{
  "_format": "hh3-artifact-1",
  "contractName": "FuncUUPSToken",
  "sourceName": "contracts/FuncUUPSToken.sol",
  "abi": [
    {
      "inputs": [],
      "stateMutability": "nonpayable",
      "type": "constructor"
    },
    {
      "inputs": [
        {
          "internalType": "address",
          "name": "target",
          "type": "address"
        }
      ],
      "name": "AddressEmptyCode",
      "type": "error"
    },
    {
      "inputs": [],
      "name": "ECDSAInvalidSignature",
      "type": "error"
    },
    {
      "inputs": [
        {
          "internalType": "uint256",
          "name": "length",
          "type": "uint256"
        }
      ],
      "name": "ECDSAInvalidSignatureLength",
      "type": "error"
    },
    {
      "inputs": [
        {
          "internalType": "bytes32",
          "name": "s",
          "type": "bytes32"
        }
      ],
      "name": "ECDSAInvalidSignatureS",
      "type": "error"
    },
    {
      "inputs": [
        {
          "internalType": "address",
          "name": "implementation",
          "type": "address"
        }
      ],
      "name": "ERC1967InvalidImplementation",
      "type": "error"
    },
    {
      "inputs": [],
      "name": "ERC1967NonPayable",
      "type": "error"
    },
    {
      "inputs": [
        {
          "internalType": "address",
          "name": "spender",
          "type": "address"
        },
        {
          "internalType": "uint256",
          "name": "allowance",
          "type": "uint256"
        },
        {
          "internalType": "uint256",
          "name": "needed",
          "type": "uint256"
        }
      ],
      "name": "ERC20InsufficientAllowance",
      "type": "error"
    },
    {
      "inputs": [
        {
          "internalType": "address",
          "name": "sender",
          "type": "address"
        },
        {
          "internalType": "uint256",
          "name": "balance",
          "type": "uint256"
        },
        {
          "internalType": "uint256",
          "name": "needed",
          "type": "uint256"
        }
      ],
      "name": "ERC20InsufficientBalance",
      "type": "error"
    },
    {
      "inputs": [
        {
          "internalType": "address",
          "name": "approver",
          "type": "address"
        }
      ],
      "name": "ERC20InvalidApprover",
      "type": "error"
    },
    {
      "inputs": [
        {
          "internalType": "address",
          "name": "receiver",
          "type": "address"
        }
      ],
      "name": "ERC20InvalidReceiver",
      "type": "error"
    },
    {
      "inputs": [
        {
          "internalType": "address",
          "name": "sender",
          "type": "address"
        }
      ],
      "name": "ERC20InvalidSender",
      "type": "error"
    },
    {
      "inputs": [
        {
          "internalType": "address",
          "name": "spender",
          "type": "address"
        }
      ],
      "name": "ERC20InvalidSpender",
      "type": "error"
    },
    {
      "inputs": [
        {
          "internalType": "uint256",
          "name": "deadline",
          "type": "uint256"
        }
      ],
      "name": "ERC2612ExpiredSignature",
      "type": "error"
    },
    {
      "inputs": [
        {
          "internalType": "address",
          "name": "signer",
          "type": "address"
        },
        {
          "internalType": "address",
          "name": "owner",
          "type": "address"
        }
      ],
      "name": "ERC2612InvalidSigner",
      "type": "error"
    },
    {
      "inputs": [],
      "name": "FailedCall",
      "type": "error"
    },
    {
      "inputs": [
        {
          "internalType": "address",
          "name": "account",
          "type": "address"
        },
        {
          "internalType": "uint256",
          "name": "currentNonce",
          "type": "uint256"
        }
      ],
      "name": "InvalidAccountNonce",
      "type": "error"
    },
    {
      "inputs": [],
      "name": "InvalidInitialization",
      "type": "error"
    },
    {
      "inputs": [],
      "name": "NotInitializing",
      "type": "error"
    },
    {
      "inputs": [
        {
          "internalType": "address",
          "name": "owner",
          "type": "address"
        }
      ],
      "name": "OwnableInvalidOwner",
      "type": "error"
    },
    {
      "inputs": [
        {
          "internalType": "address",
          "name": "account",
          "type": "address"
        }
      ],
      "name": "OwnableUnauthorizedAccount",
      "type": "error"
    },
    {
      "inputs": [],
      "name": "UUPSUnauthorizedCallContext",
      "type": "error"
    },
    {
      "inputs": [
        {
          "internalType": "bytes32",
          "name": "slot",
          "type": "bytes32"
        }
      ],
      "name": "UUPSUnsupportedProxiableUUID",
      "type": "error"
    },
    {
      "anonymous": false,
      "inputs": [
        {
          "indexed": true,
          "internalType": "address",
          "name": "owner",
          "type": "address"
        },
        {
          "indexed": true,
          "internalType": "address",
          "name": "spender",
          "type": "address"
        },
        {
          "indexed": false,
          "internalType": "uint256",
          "name": "value",
          "type": "uint256"
        }
      ],
      "name": "Approval",
      "type": "event"
    },
    {
      "anonymous": false,
      "inputs": [],
      "name": "EIP712DomainChanged",
      "type": "event"
    },
    {
      "anonymous": false,
      "inputs": [
        {
          "indexed": false,
          "internalType": "uint64",
          "name": "version",
          "type": "uint64"
        }
      ],
      "name": "Initialized",
      "type": "event"
    },
    {
      "anonymous": false,
      "inputs": [
        {
          "indexed": true,
          "internalType": "address",
          "name": "previousOwner",
          "type": "address"
        },
        {
          "indexed": true,
          "internalType": "address",
          "name": "newOwner",
          "type": "address"
        }
      ],
      "name": "OwnershipTransferred",
      "type": "event"
    },
    {
      "anonymous": false,
      "inputs": [
        {
          "indexed": true,
          "internalType": "address",
          "name": "from",
          "type": "address"
        },
        {
          "indexed": true,
          "internalType": "address",
          "name": "to",
          "type": "address"
        },
        {
          "indexed": false,
          "internalType": "uint256",
          "name": "value",
          "type": "uint256"
        }
      ],
      "name": "Transfer",
      "type": "event"
    },
    {
      "anonymous": false,
      "inputs": [
        {
          "indexed": true,
          "internalType": "address",
          "name": "implementation",
          "type": "address"
        }
      ],
      "name": "Upgraded",
      "type": "event"
    },
    {
      "inputs": [],
      "name": "DOMAIN_SEPARATOR",
      "outputs": [
        {
          "internalType": "bytes32",
          "name": "",
          "type": "bytes32"
        }
      ],
      "stateMutability": "view",
      "type": "function"
    },
    {
      "inputs": [],
      "name": "UPGRADE_INTERFACE_VERSION",
      "outputs": [
        {
          "internalType": "string",
          "name": "",
          "type": "string"
        }
      ],
      "stateMutability": "view",
      "type": "function"
    },
    {
      "inputs": [
        {
          "internalType": "address",
          "name": "owner",
          "type": "address"
        },
        {
          "internalType": "address",
          "name": "spender",
          "type": "address"
        }
      ],
      "name": "allowance",
      "outputs": [
        {
          "internalType": "uint256",
          "name": "",
          "type": "uint256"
        }
      ],
      "stateMutability": "view",
      "type": "function"
    },
    {
      "inputs": [
        {
          "internalType": "address",
          "name": "spender",
          "type": "address"
        },
        {
          "internalType": "uint256",
          "name": "value",
          "type": "uint256"
        }
      ],
      "name": "approve",
      "outputs": [
        {
          "internalType": "bool",
          "name": "",
          "type": "bool"
        }
      ],
      "stateMutability": "nonpayable",
      "type": "function"
    },
    {
      "inputs": [
        {
          "internalType": "address",
          "name": "account",
          "type": "address"
        }
      ],
      "name": "balanceOf",
      "outputs": [
        {
          "internalType": "uint256",
          "name": "",
          "type": "uint256"
        }
      ],
      "stateMutability": "view",
      "type": "function"
    },
    {
      "inputs": [],
      "name": "decimals",
      "outputs": [
        {
          "internalType": "uint8",
          "name": "",
          "type": "uint8"
        }
      ],
      "stateMutability": "view",
      "type": "function"
    },
    {
      "inputs": [],
      "name": "eip712Domain",
      "outputs": [
        {
          "internalType": "bytes1",
          "name": "fields",
          "type": "bytes1"
        },
        {
          "internalType": "string",
          "name": "name",
          "type": "string"
        },
        {
          "internalType": "string",
          "name": "version",
          "type": "string"
        },
        {
          "internalType": "uint256",
          "name": "chainId",
          "type": "uint256"
        },
        {
          "internalType": "address",
          "name": "verifyingContract",
          "type": "address"
        },
        {
          "internalType": "bytes32",
          "name": "salt",
          "type": "bytes32"
        },
        {
          "internalType": "uint256[]",
          "name": "extensions",
          "type": "uint256[]"
        }
      ],
      "stateMutability": "view",
      "type": "function"
    },
    {
      "inputs": [
        {
          "internalType": "address",
          "name": "initialOwner",
          "type": "address"
        }
      ],
      "name": "initialize",
      "outputs": [],
      "stateMutability": "nonpayable",
      "type": "function"
    },
    {
      "inputs": [
        {
          "internalType": "address",
          "name": "to",
          "type": "address"
        },
        {
          "internalType": "uint256",
          "name": "amount",
          "type": "uint256"
        }
      ],
      "name": "mint",
      "outputs": [],
      "stateMutability": "nonpayable",
      "type": "function"
    },
    {
      "inputs": [],
      "name": "name",
      "outputs": [
        {
          "internalType": "string",
          "name": "",
          "type": "string"
        }
      ],
      "stateMutability": "view",
      "type": "function"
    },
    {
      "inputs": [
        {
          "internalType": "address",
          "name": "owner",
          "type": "address"
        }
      ],
      "name": "nonces",
      "outputs": [
        {
          "internalType": "uint256",
          "name": "",
          "type": "uint256"
        }
      ],
      "stateMutability": "view",
      "type": "function"
    },
    {
      "inputs": [],
      "name": "owner",
      "outputs": [
        {
          "internalType": "address",
          "name": "",
          "type": "address"
        }
      ],
      "stateMutability": "view",
      "type": "function"
    },
    {
      "inputs": [
        {
          "internalType": "address",
          "name": "owner",
          "type": "address"
        },
        {
          "internalType": "address",
          "name": "spender",
          "type": "address"
        },
        {
          "internalType": "uint256",
          "name": "value",
          "type": "uint256"
        },
        {
          "internalType": "uint256",
          "name": "deadline",
          "type": "uint256"
        },
        {
          "internalType": "uint8",
          "name": "v",
          "type": "uint8"
        },
        {
          "internalType": "bytes32",
          "name": "r",
          "type": "bytes32"
        },
        {
          "internalType": "bytes32",
          "name": "s",
          "type": "bytes32"
        }
      ],
      "name": "permit",
      "outputs": [],
      "stateMutability": "nonpayable",
      "type": "function"
    },
    {
      "inputs": [],
      "name": "proxiableUUID",
      "outputs": [
        {
          "internalType": "bytes32",
          "name": "",
          "type": "bytes32"
        }
      ],
      "stateMutability": "view",
      "type": "function"
    },
    {
      "inputs": [],
      "name": "renounceOwnership",
      "outputs": [],
      "stateMutability": "nonpayable",
      "type": "function"
    },
    {
      "inputs": [],
      "name": "symbol",
      "outputs": [
        {
          "internalType": "string",
          "name": "",
          "type": "string"
        }
      ],
      "stateMutability": "view",
      "type": "function"
    },
    {
      "inputs": [],
      "name": "totalSupply",
      "outputs": [
        {
          "internalType": "uint256",
          "name": "",
          "type": "uint256"
        }
      ],
      "stateMutability": "view",
      "type": "function"
    },
    {
      "inputs": [
        {
          "internalType": "address",
          "name": "to",
          "type": "address"
        },
        {
          "internalType": "uint256",
          "name": "value",
          "type": "uint256"
        }
      ],
      "name": "transfer",
      "outputs": [
        {
          "internalType": "bool",
          "name": "",
          "type": "bool"
        }
      ],
      "stateMutability": "nonpayable",
      "type": "function"
    },
    {
      "inputs": [
        {
          "internalType": "address",
          "name": "from",
          "type": "address"
        },
        {
          "internalType": "address",
          "name": "to",
          "type": "address"
        },
        {
          "internalType": "uint256",
          "name": "value",
          "type": "uint256"
        }
      ],
      "name": "transferFrom",
      "outputs": [
        {
          "internalType": "bool",
          "name": "",
          "type": "bool"
        }
      ],
      "stateMutability": "nonpayable",
      "type": "function"
    },
    {
      "inputs": [
        {
          "internalType": "address",
          "name": "newOwner",
          "type": "address"
        }
      ],
      "name": "transferOwnership",
      "outputs": [],
      "stateMutability": "nonpayable",
      "type": "function"
    },
    {
      "inputs": [
        {
          "internalType": "address",
          "name": "newImplementation",
          "type": "address"
        },
        {
          "internalType": "bytes",
          "name": "data",
          "type": "bytes"
        }
      ],
      "name": "upgradeToAndCall",
      "outputs": [],
      "stateMutability": "payable",
      "type": "function"
    }
  ],
  "bytecode": "0x60a060405230608052348015610013575f5ffd5b5061001c610021565b6100d3565b7ff0c57e16840df040f15088dc2f81fe391c3923bec73e23a9662efc9c229c6a00805468010000000000000000900460ff16156100715760405163f92ee8a960e01b815260040160405180910390fd5b80546001600160401b03908116146100d05780546001600160401b0319166001600160401b0390811782556040519081527fc7f505b2f371ae2175ee4913f4499e1f2633a7b5936321eed1cdaeb6115181d29060200160405180910390a15b50565b608051611b366100f95f395f8181610b4301528181610b6c0152610cab0152611b365ff3fe608060405260043610610126575f3560e01c8063715018a6116100a8578063a9059cbb1161006d578063a9059cbb14610329578063ad3cb1cc14610348578063c4d66de814610378578063d505accf14610397578063dd62ed3e146103b6578063f2fde38b146103d5575f5ffd5b8063715018a6146102755780637ecebe001461028957806384b0196e146102a85780638da5cb5b146102cf57806395d89b4114610315575f5ffd5b80633644e515116100ee5780633644e515146101fa57806340c10f191461020e5780634f1ef2861461022f57806352d1902d1461024257806370a0823114610256575f5ffd5b806306fdde031461012a578063095ea7b31461015457806318160ddd1461018357806323b872dd146101c0578063313ce567146101df575b5f5ffd5b348015610135575f5ffd5b5061013e6103f4565b60405161014b9190611655565b60405180910390f35b34801561015f575f5ffd5b5061017361016e366004611682565b610499565b604051901515815260200161014b565b34801561018e575f5ffd5b507f52c63247e1f47db19d5ce0460030c497f067ca4cebf71ba98eeadabe20bace02545b60405190815260200161014b565b3480156101cb575f5ffd5b506101736101da3660046116aa565b6104b2565b3480156101ea575f5ffd5b506040516012815260200161014b565b348015610205575f5ffd5b506101b26104d7565b348015610219575f5ffd5b5061022d610228366004611682565b6104e5565b005b61022d61023d3660046116f8565b6104fb565b34801561024d575f5ffd5b506101b2610516565b348015610261575f5ffd5b506101b26102703660046117bc565b610531565b348015610280575f5ffd5b5061022d610561565b348015610294575f5ffd5b506101b26102a33660046117bc565b610574565b3480156102b3575f5ffd5b506102bc61057e565b60405161014b97969594939291906117d5565b3480156102da575f5ffd5b507f9016d09d72d40fdae2fd8ceac6b6234c7706214fd39c1cd1e609a0528c199300546040516001600160a01b03909116815260200161014b565b348015610320575f5ffd5b5061013e61062c565b348015610334575f5ffd5b50610173610343366004611682565b61066a565b348015610353575f5ffd5b5061013e604051806040016040528060058152602001640352e302e360dc1b81525081565b348015610383575f5ffd5b5061022d6103923660046117bc565b610677565b3480156103a2575f5ffd5b5061022d6103b136600461186b565b6107f2565b3480156103c1575f5ffd5b506101b26103d03660046118d8565b610947565b3480156103e0575f5ffd5b5061022d6103ef3660046117bc565b610990565b60605f5f516020611aa15f395f51905f525b905080600301805461041790611909565b80601f016020809104026020016040519081016040528092919081815260200182805461044390611909565b801561048e5780601f106104655761010080835404028352916020019161048e565b820191905f5260205f20905b81548152906001019060200180831161047157829003601f168201915b505050505091505090565b5f336104a68185856109cd565b60019150505b92915050565b5f336104bf8582856109df565b6104ca858585610a43565b60019150505b9392505050565b5f6104e0610aa0565b905090565b6104ed610aa9565b6104f78282610b04565b5050565b610503610b38565b61050c82610bdc565b6104f78282610be4565b5f61051f610ca0565b505f516020611ae15f395f51905f5290565b5f805f516020611aa15f395f51905f525b6001600160a01b039093165f9081526020939093525050604090205490565b610569610aa9565b6105725f610ce9565b565b5f6104ac82610d59565b5f60608082808083815f516020611ac15f395f51905f5280549091501580156105a957506001810154155b6105f25760405162461bcd60e51b81526020600482015260156024820152741152540dcc4c8e88155b9a5b9a5d1a585b1a5e9959605a1b60448201526064015b60405180910390fd5b6105fa610d81565b610602610dbf565b604080515f80825260208201909252600f60f81b9c939b5091995046985030975095509350915050565b7f52c63247e1f47db19d5ce0460030c497f067ca4cebf71ba98eeadabe20bace0480546060915f516020611aa15f395f51905f529161041790611909565b5f336104a6818585610a43565b5f610680610dd5565b805490915060ff600160401b820416159067ffffffffffffffff165f811580156106a75750825b90505f8267ffffffffffffffff1660011480156106c35750303b155b9050811580156106d1575080155b156106ef5760405163f92ee8a960e01b815260040160405180910390fd5b845467ffffffffffffffff19166001178555831561071957845460ff60401b1916600160401b1785555b6107656040518060400160405280600d81526020016c233ab731aaaaa829aa37b5b2b760991b81525060405180604001604052806005815260200164465555505360d81b815250610dfd565b61076e86610e0f565b61079c6040518060400160405280600d81526020016c233ab731aaaaa829aa37b5b2b760991b815250610e20565b6107a4610e4b565b83156107ea57845460ff60401b19168555604051600181527fc7f505b2f371ae2175ee4913f4499e1f2633a7b5936321eed1cdaeb6115181d29060200160405180910390a15b505050505050565b834211156108165760405163313c898160e11b8152600481018590526024016105e9565b5f7f6e71edae12b1b97f4d1f60370fef10105fa2faae0126114a169c64845d6126c98888886108808c6001600160a01b03165f9081527f5ab42ced628888259c08ac98db1eb0cf702fc1501344311d8b100cd1bfe4bb006020526040902080546001810190915590565b6040805160208101969096526001600160a01b0394851690860152929091166060840152608083015260a082015260c0810186905260e0016040516020818303038152906040528051906020012090505f6108da82610e53565b90505f6108e982878787610e7f565b9050896001600160a01b0316816001600160a01b031614610930576040516325c0072360e11b81526001600160a01b0380831660048301528b1660248201526044016105e9565b61093b8a8a8a6109cd565b50505050505050505050565b6001600160a01b039182165f9081527f52c63247e1f47db19d5ce0460030c497f067ca4cebf71ba98eeadabe20bace016020908152604080832093909416825291909152205490565b610998610aa9565b6001600160a01b0381166109c157604051631e4fbdf760e01b81525f60048201526024016105e9565b6109ca81610ce9565b50565b6109da8383836001610eab565b505050565b5f6109ea8484610947565b90505f19811015610a3d5781811015610a2f57604051637dc7a0d960e11b81526001600160a01b038416600482015260248101829052604481018390526064016105e9565b610a3d84848484035f610eab565b50505050565b6001600160a01b038316610a6c57604051634b637e8f60e11b81525f60048201526024016105e9565b6001600160a01b038216610a955760405163ec442f0560e01b81525f60048201526024016105e9565b6109da838383610f8f565b5f6104e06110c8565b33610adb7f9016d09d72d40fdae2fd8ceac6b6234c7706214fd39c1cd1e609a0528c199300546001600160a01b031690565b6001600160a01b0316146105725760405163118cdaa760e01b81523360048201526024016105e9565b6001600160a01b038216610b2d5760405163ec442f0560e01b81525f60048201526024016105e9565b6104f75f8383610f8f565b306001600160a01b037f0000000000000000000000000000000000000000000000000000000000000000161480610bbe57507f00000000000000000000000000000000000000000000000000000000000000006001600160a01b0316610bb25f516020611ae15f395f51905f52546001600160a01b031690565b6001600160a01b031614155b156105725760405163703e46dd60e11b815260040160405180910390fd5b6109ca610aa9565b816001600160a01b03166352d1902d6040518163ffffffff1660e01b8152600401602060405180830381865afa925050508015610c3e575060408051601f3d908101601f19168201909252610c3b91810190611941565b60015b610c6657604051634c9c8ce360e01b81526001600160a01b03831660048201526024016105e9565b5f516020611ae15f395f51905f528114610c9657604051632a87526960e21b8152600481018290526024016105e9565b6109da838361113b565b306001600160a01b037f000000000000000000000000000000000000000000000000000000000000000016146105725760405163703e46dd60e11b815260040160405180910390fd5b7f9016d09d72d40fdae2fd8ceac6b6234c7706214fd39c1cd1e609a0528c19930080546001600160a01b031981166001600160a01b03848116918217845560405192169182907f8be0079c531659141344cd1fd0a4f28419497f9722a3daafe3b4186f6b6457e0905f90a3505050565b5f807f5ab42ced628888259c08ac98db1eb0cf702fc1501344311d8b100cd1bfe4bb00610542565b7fa16a46d94261c7517cc8ff89f61c0ce93598e3c849801011dee649a6a557d10280546060915f516020611ac15f395f51905f529161041790611909565b60605f5f516020611ac15f395f51905f52610406565b5f807ff0c57e16840df040f15088dc2f81fe391c3923bec73e23a9662efc9c229c6a006104ac565b610e05611190565b6104f782826111b5565b610e17611190565b6109ca81611205565b610e28611190565b6109ca81604051806040016040528060018152602001603160f81b81525061120d565b610572611190565b5f6104ac610e5f610aa0565b8360405161190160f01b8152600281019290925260228201526042902090565b5f5f5f5f610e8f8888888861126c565b925092509250610e9f8282611334565b50909695505050505050565b5f516020611aa15f395f51905f526001600160a01b038516610ee25760405163e602df0560e01b81525f60048201526024016105e9565b6001600160a01b038416610f0b57604051634a1406b160e11b81525f60048201526024016105e9565b6001600160a01b038086165f90815260018301602090815260408083209388168352929052208390558115610f8857836001600160a01b0316856001600160a01b03167f8c5be1e5ebec7d5bd14f71427d1e84f3dd0314c0f7b2291e5b200ac8c7c3b92585604051610f7f91815260200190565b60405180910390a35b5050505050565b5f516020611aa15f395f51905f526001600160a01b038416610fc95781816002015f828254610fbe9190611958565b909155506110399050565b6001600160a01b0384165f908152602082905260409020548281101561101b5760405163391434e360e21b81526001600160a01b038616600482015260248101829052604481018490526064016105e9565b6001600160a01b0385165f9081526020839052604090209083900390555b6001600160a01b038316611057576002810180548390039055611075565b6001600160a01b0383165f9081526020829052604090208054830190555b826001600160a01b0316846001600160a01b03167fddf252ad1be2c89b69c2b068fc378daa952ba7f163c4a11628f55a4df523b3ef846040516110ba91815260200190565b60405180910390a350505050565b5f7f8b73c3c69bb8fe3d512ecc4cf759cc79239f7b179b0ffacaa9a75d522b39400f6110f26113ec565b6110fa611454565b60408051602081019490945283019190915260608201524660808201523060a082015260c00160405160208183030381529060405280519060200120905090565b61114482611496565b6040516001600160a01b038316907fbc7cd75a20ee27fd9adebab32041f755214dbc6bffa90cc0225b39da2e5c2d3b905f90a2805115611188576109da82826114f9565b6104f761156b565b61119861158a565b61057257604051631afcd79f60e31b815260040160405180910390fd5b6111bd611190565b5f516020611aa15f395f51905f527f52c63247e1f47db19d5ce0460030c497f067ca4cebf71ba98eeadabe20bace036111f684826119bb565b5060048101610a3d83826119bb565b610998611190565b611215611190565b5f516020611ac15f395f51905f527fa16a46d94261c7517cc8ff89f61c0ce93598e3c849801011dee649a6a557d10261124e84826119bb565b506003810161125d83826119bb565b505f8082556001909101555050565b5f80807f7fffffffffffffffffffffffffffffff5d576e7357a4501ddfe92f46681b20a08411156112a557505f9150600390508261132a565b604080515f808252602082018084528a905260ff891692820192909252606081018790526080810186905260019060a0016020604051602081039080840390855afa1580156112f6573d5f5f3e3d5ffd5b5050604051601f1901519150506001600160a01b03811661132157505f92506001915082905061132a565b92505f91508190505b9450945094915050565b5f82600381111561134757611347611a76565b03611350575050565b600182600381111561136457611364611a76565b036113825760405163f645eedf60e01b815260040160405180910390fd5b600282600381111561139657611396611a76565b036113b75760405163fce698f760e01b8152600481018290526024016105e9565b60038260038111156113cb576113cb611a76565b036104f7576040516335e2f38360e21b8152600481018290526024016105e9565b5f5f516020611ac15f395f51905f5281611404610d81565b80519091501561141c57805160209091012092915050565b8154801561142b579392505050565b7fc5d2460186f7233c927e7db2dcc703c0e500b653ca82273b7bfad8045d85a470935050505090565b5f5f516020611ac15f395f51905f528161146c610dbf565b80519091501561148457805160209091012092915050565b6001820154801561142b579392505050565b806001600160a01b03163b5f036114cb57604051634c9c8ce360e01b81526001600160a01b03821660048201526024016105e9565b5f516020611ae15f395f51905f5280546001600160a01b0319166001600160a01b0392909216919091179055565b60605f5f846001600160a01b0316846040516115159190611a8a565b5f60405180830381855af49150503d805f811461154d576040519150601f19603f3d011682016040523d82523d5f602084013e611552565b606091505b50915091506115628583836115a3565b95945050505050565b34156105725760405163b398979f60e01b815260040160405180910390fd5b5f611593610dd5565b54600160401b900460ff16919050565b6060826115b8576115b3826115ff565b6104d0565b81511580156115cf57506001600160a01b0384163b155b156115f857604051639996b31560e01b81526001600160a01b03851660048201526024016105e9565b50806104d0565b80511561160e57805160208201fd5b60405163d6bda27560e01b815260040160405180910390fd5b5f81518084528060208401602086015e5f602082860101526020601f19601f83011685010191505092915050565b602081525f6104d06020830184611627565b80356001600160a01b038116811461167d575f5ffd5b919050565b5f5f60408385031215611693575f5ffd5b61169c83611667565b946020939093013593505050565b5f5f5f606084860312156116bc575f5ffd5b6116c584611667565b92506116d360208501611667565b929592945050506040919091013590565b634e487b7160e01b5f52604160045260245ffd5b5f5f60408385031215611709575f5ffd5b61171283611667565b9150602083013567ffffffffffffffff81111561172d575f5ffd5b8301601f8101851361173d575f5ffd5b803567ffffffffffffffff811115611757576117576116e4565b604051601f8201601f19908116603f0116810167ffffffffffffffff81118282101715611786576117866116e4565b60405281815282820160200187101561179d575f5ffd5b816020840160208301375f602083830101528093505050509250929050565b5f602082840312156117cc575f5ffd5b6104d082611667565b60ff60f81b8816815260e060208201525f6117f360e0830189611627565b82810360408401526118058189611627565b606084018890526001600160a01b038716608085015260a0840186905283810360c0850152845180825260208087019350909101905f5b8181101561185a57835183526020938401939092019160010161183c565b50909b9a5050505050505050505050565b5f5f5f5f5f5f5f60e0888a031215611881575f5ffd5b61188a88611667565b965061189860208901611667565b95506040880135945060608801359350608088013560ff811681146118bb575f5ffd5b9699959850939692959460a0840135945060c09093013592915050565b5f5f604083850312156118e9575f5ffd5b6118f283611667565b915061190060208401611667565b90509250929050565b600181811c9082168061191d57607f821691505b60208210810361193b57634e487b7160e01b5f52602260045260245ffd5b50919050565b5f60208284031215611951575f5ffd5b5051919050565b808201808211156104ac57634e487b7160e01b5f52601160045260245ffd5b601f8211156109da57805f5260205f20601f840160051c8101602085101561199c5750805b601f840160051c820191505b81811015610f88575f81556001016119a8565b815167ffffffffffffffff8111156119d5576119d56116e4565b6119e9816119e38454611909565b84611977565b6020601f821160018114611a1b575f8315611a045750848201515b5f19600385901b1c1916600184901b178455610f88565b5f84815260208120601f198516915b82811015611a4a5787850151825560209485019460019092019101611a2a565b5084821015611a6757868401515f19600387901b60f8161c191681555b50505050600190811b01905550565b634e487b7160e01b5f52602160045260245ffd5b5f82518060208501845e5f92019182525091905056fe52c63247e1f47db19d5ce0460030c497f067ca4cebf71ba98eeadabe20bace00a16a46d94261c7517cc8ff89f61c0ce93598e3c849801011dee649a6a557d100360894a13ba1a3210667c828492db98dca3e2076cc3735a920a3ca505d382bbca264697066735822122052df1d244945bbcef2533b473f62ec5bbe21f4b635b4b15e564a360f072bd0b864736f6c634300081b0033",
  "linkReferences": {},
  "deployedLinkReferences": {},
  "immutableReferences": {
    "482": [
      {
        "length": 32,
        "start": 2883
      },
      {
        "length": 32,
        "start": 2924
      },
      {
        "length": 32,
        "start": 3243
      }
    ]
  },
  "inputSourceName": "project/contracts/FuncUUPSToken.sol",
  "buildInfoId": "solc-0_8_27-535ea3e136e2be71a005ffc5c06251733d57df22"
}