{
  "_format": "hh-sol-artifact-1",
  "contractName": "UUPSMultiToken",
  "sourceName": "contracts/UUPSMultiToken.sol",
  "abi": [
    {
      "inputs": [],
      "stateMutability": "nonpayable",
      "type": "constructor"
    },
    {
      "inputs": [
        {
          "internalType": "address",
          "name": "target",
          "type": "address"
        }
      ],
      "name": "AddressEmptyCode",
      "type": "error"
    },
    {
      "inputs": [
        {
          "internalType": "address",
          "name": "sender",
          "type": "address"
        },
        {
          "internalType": "uint256",
          "name": "balance",
          "type": "uint256"
        },
        {
          "internalType": "uint256",
          "name": "needed",
          "type": "uint256"
        },
        {
          "internalType": "uint256",
          "name": "tokenId",
          "type": "uint256"
        }
      ],
      "name": "ERC1155InsufficientBalance",
      "type": "error"
    },
    {
      "inputs": [
        {
          "internalType": "address",
          "name": "approver",
          "type": "address"
        }
      ],
      "name": "ERC1155InvalidApprover",
      "type": "error"
    },
    {
      "inputs": [
        {
          "internalType": "uint256",
          "name": "idsLength",
          "type": "uint256"
        },
        {
          "internalType": "uint256",
          "name": "valuesLength",
          "type": "uint256"
        }
      ],
      "name": "ERC1155InvalidArrayLength",
      "type": "error"
    },
    {
      "inputs": [
        {
          "internalType": "address",
          "name": "operator",
          "type": "address"
        }
      ],
      "name": "ERC1155InvalidOperator",
      "type": "error"
    },
    {
      "inputs": [
        {
          "internalType": "address",
          "name": "receiver",
          "type": "address"
        }
      ],
      "name": "ERC1155InvalidReceiver",
      "type": "error"
    },
    {
      "inputs": [
        {
          "internalType": "address",
          "name": "sender",
          "type": "address"
        }
      ],
      "name": "ERC1155InvalidSender",
      "type": "error"
    },
    {
      "inputs": [
        {
          "internalType": "address",
          "name": "operator",
          "type": "address"
        },
        {
          "internalType": "address",
          "name": "owner",
          "type": "address"
        }
      ],
      "name": "ERC1155MissingApprovalForAll",
      "type": "error"
    },
    {
      "inputs": [
        {
          "internalType": "address",
          "name": "implementation",
          "type": "address"
        }
      ],
      "name": "ERC1967InvalidImplementation",
      "type": "error"
    },
    {
      "inputs": [],
      "name": "ERC1967NonPayable",
      "type": "error"
    },
    {
      "inputs": [],
      "name": "EnforcedPause",
      "type": "error"
    },
    {
      "inputs": [],
      "name": "ExpectedPause",
      "type": "error"
    },
    {
      "inputs": [],
      "name": "FailedCall",
      "type": "error"
    },
    {
      "inputs": [],
      "name": "InvalidInitialization",
      "type": "error"
    },
    {
      "inputs": [],
      "name": "NotInitializing",
      "type": "error"
    },
    {
      "inputs": [
        {
          "internalType": "address",
          "name": "owner",
          "type": "address"
        }
      ],
      "name": "OwnableInvalidOwner",
      "type": "error"
    },
    {
      "inputs": [
        {
          "internalType": "address",
          "name": "account",
          "type": "address"
        }
      ],
      "name": "OwnableUnauthorizedAccount",
      "type": "error"
    },
    {
      "inputs": [],
      "name": "UUPSUnauthorizedCallContext",
      "type": "error"
    },
    {
      "inputs": [
        {
          "internalType": "bytes32",
          "name": "slot",
          "type": "bytes32"
        }
      ],
      "name": "UUPSUnsupportedProxiableUUID",
      "type": "error"
    },
    {
      "anonymous": false,
      "inputs": [
        {
          "indexed": true,
          "internalType": "address",
          "name": "account",
          "type": "address"
        },
        {
          "indexed": true,
          "internalType": "address",
          "name": "operator",
          "type": "address"
        },
        {
          "indexed": false,
          "internalType": "bool",
          "name": "approved",
          "type": "bool"
        }
      ],
      "name": "ApprovalForAll",
      "type": "event"
    },
    {
      "anonymous": false,
      "inputs": [
        {
          "indexed": false,
          "internalType": "uint64",
          "name": "version",
          "type": "uint64"
        }
      ],
      "name": "Initialized",
      "type": "event"
    },
    {
      "anonymous": false,
      "inputs": [
        {
          "indexed": true,
          "internalType": "address",
          "name": "previousOwner",
          "type": "address"
        },
        {
          "indexed": true,
          "internalType": "address",
          "name": "newOwner",
          "type": "address"
        }
      ],
      "name": "OwnershipTransferred",
      "type": "event"
    },
    {
      "anonymous": false,
      "inputs": [
        {
          "indexed": false,
          "internalType": "address",
          "name": "account",
          "type": "address"
        }
      ],
      "name": "Paused",
      "type": "event"
    },
    {
      "anonymous": false,
      "inputs": [
        {
          "indexed": true,
          "internalType": "address",
          "name": "operator",
          "type": "address"
        },
        {
          "indexed": true,
          "internalType": "address",
          "name": "from",
          "type": "address"
        },
        {
          "indexed": true,
          "internalType": "address",
          "name": "to",
          "type": "address"
        },
        {
          "indexed": false,
          "internalType": "uint256[]",
          "name": "ids",
          "type": "uint256[]"
        },
        {
          "indexed": false,
          "internalType": "uint256[]",
          "name": "values",
          "type": "uint256[]"
        }
      ],
      "name": "TransferBatch",
      "type": "event"
    },
    {
      "anonymous": false,
      "inputs": [
        {
          "indexed": true,
          "internalType": "address",
          "name": "operator",
          "type": "address"
        },
        {
          "indexed": true,
          "internalType": "address",
          "name": "from",
          "type": "address"
        },
        {
          "indexed": true,
          "internalType": "address",
          "name": "to",
          "type": "address"
        },
        {
          "indexed": false,
          "internalType": "uint256",
          "name": "id",
          "type": "uint256"
        },
        {
          "indexed": false,
          "internalType": "uint256",
          "name": "value",
          "type": "uint256"
        }
      ],
      "name": "TransferSingle",
      "type": "event"
    },
    {
      "anonymous": false,
      "inputs": [
        {
          "indexed": false,
          "internalType": "string",
          "name": "value",
          "type": "string"
        },
        {
          "indexed": true,
          "internalType": "uint256",
          "name": "id",
          "type": "uint256"
        }
      ],
      "name": "URI",
      "type": "event"
    },
    {
      "anonymous": false,
      "inputs": [
        {
          "indexed": false,
          "internalType": "address",
          "name": "account",
          "type": "address"
        }
      ],
      "name": "Unpaused",
      "type": "event"
    },
    {
      "anonymous": false,
      "inputs": [
        {
          "indexed": true,
          "internalType": "address",
          "name": "implementation",
          "type": "address"
        }
      ],
      "name": "Upgraded",
      "type": "event"
    },
    {
      "inputs": [],
      "name": "UPGRADE_INTERFACE_VERSION",
      "outputs": [
        {
          "internalType": "string",
          "name": "",
          "type": "string"
        }
      ],
      "stateMutability": "view",
      "type": "function"
    },
    {
      "inputs": [
        {
          "internalType": "address",
          "name": "account",
          "type": "address"
        },
        {
          "internalType": "uint256",
          "name": "id",
          "type": "uint256"
        }
      ],
      "name": "balanceOf",
      "outputs": [
        {
          "internalType": "uint256",
          "name": "",
          "type": "uint256"
        }
      ],
      "stateMutability": "view",
      "type": "function"
    },
    {
      "inputs": [
        {
          "internalType": "address[]",
          "name": "accounts",
          "type": "address[]"
        },
        {
          "internalType": "uint256[]",
          "name": "ids",
          "type": "uint256[]"
        }
      ],
      "name": "balanceOfBatch",
      "outputs": [
        {
          "internalType": "uint256[]",
          "name": "",
          "type": "uint256[]"
        }
      ],
      "stateMutability": "view",
      "type": "function"
    },
    {
      "inputs": [
        {
          "internalType": "address",
          "name": "account",
          "type": "address"
        },
        {
          "internalType": "uint256",
          "name": "id",
          "type": "uint256"
        },
        {
          "internalType": "uint256",
          "name": "value",
          "type": "uint256"
        }
      ],
      "name": "burn",
      "outputs": [],
      "stateMutability": "nonpayable",
      "type": "function"
    },
    {
      "inputs": [
        {
          "internalType": "address",
          "name": "account",
          "type": "address"
        },
        {
          "internalType": "uint256[]",
          "name": "ids",
          "type": "uint256[]"
        },
        {
          "internalType": "uint256[]",
          "name": "values",
          "type": "uint256[]"
        }
      ],
      "name": "burnBatch",
      "outputs": [],
      "stateMutability": "nonpayable",
      "type": "function"
    },
    {
      "inputs": [
        {
          "internalType": "address",
          "name": "initialOwner",
          "type": "address"
        }
      ],
      "name": "initialize",
      "outputs": [],
      "stateMutability": "nonpayable",
      "type": "function"
    },
    {
      "inputs": [
        {
          "internalType": "address",
          "name": "account",
          "type": "address"
        },
        {
          "internalType": "address",
          "name": "operator",
          "type": "address"
        }
      ],
      "name": "isApprovedForAll",
      "outputs": [
        {
          "internalType": "bool",
          "name": "",
          "type": "bool"
        }
      ],
      "stateMutability": "view",
      "type": "function"
    },
    {
      "inputs": [
        {
          "internalType": "address",
          "name": "account",
          "type": "address"
        },
        {
          "internalType": "uint256",
          "name": "id",
          "type": "uint256"
        },
        {
          "internalType": "uint256",
          "name": "amount",
          "type": "uint256"
        },
        {
          "internalType": "bytes",
          "name": "data",
          "type": "bytes"
        }
      ],
      "name": "mint",
      "outputs": [],
      "stateMutability": "nonpayable",
      "type": "function"
    },
    {
      "inputs": [
        {
          "internalType": "address",
          "name": "to",
          "type": "address"
        },
        {
          "internalType": "uint256[]",
          "name": "ids",
          "type": "uint256[]"
        },
        {
          "internalType": "uint256[]",
          "name": "amounts",
          "type": "uint256[]"
        },
        {
          "internalType": "bytes",
          "name": "data",
          "type": "bytes"
        }
      ],
      "name": "mintBatch",
      "outputs": [],
      "stateMutability": "nonpayable",
      "type": "function"
    },
    {
      "inputs": [],
      "name": "owner",
      "outputs": [
        {
          "internalType": "address",
          "name": "",
          "type": "address"
        }
      ],
      "stateMutability": "view",
      "type": "function"
    },
    {
      "inputs": [],
      "name": "pause",
      "outputs": [],
      "stateMutability": "nonpayable",
      "type": "function"
    },
    {
      "inputs": [],
      "name": "paused",
      "outputs": [
        {
          "internalType": "bool",
          "name": "",
          "type": "bool"
        }
      ],
      "stateMutability": "view",
      "type": "function"
    },
    {
      "inputs": [],
      "name": "proxiableUUID",
      "outputs": [
        {
          "internalType": "bytes32",
          "name": "",
          "type": "bytes32"
        }
      ],
      "stateMutability": "view",
      "type": "function"
    },
    {
      "inputs": [],
      "name": "renounceOwnership",
      "outputs": [],
      "stateMutability": "nonpayable",
      "type": "function"
    },
    {
      "inputs": [
        {
          "internalType": "address",
          "name": "from",
          "type": "address"
        },
        {
          "internalType": "address",
          "name": "to",
          "type": "address"
        },
        {
          "internalType": "uint256[]",
          "name": "ids",
          "type": "uint256[]"
        },
        {
          "internalType": "uint256[]",
          "name": "values",
          "type": "uint256[]"
        },
        {
          "internalType": "bytes",
          "name": "data",
          "type": "bytes"
        }
      ],
      "name": "safeBatchTransferFrom",
      "outputs": [],
      "stateMutability": "nonpayable",
      "type": "function"
    },
    {
      "inputs": [
        {
          "internalType": "address",
          "name": "from",
          "type": "address"
        },
        {
          "internalType": "address",
          "name": "to",
          "type": "address"
        },
        {
          "internalType": "uint256",
          "name": "id",
          "type": "uint256"
        },
        {
          "internalType": "uint256",
          "name": "value",
          "type": "uint256"
        },
        {
          "internalType": "bytes",
          "name": "data",
          "type": "bytes"
        }
      ],
      "name": "safeTransferFrom",
      "outputs": [],
      "stateMutability": "nonpayable",
      "type": "function"
    },
    {
      "inputs": [
        {
          "internalType": "address",
          "name": "operator",
          "type": "address"
        },
        {
          "internalType": "bool",
          "name": "approved",
          "type": "bool"
        }
      ],
      "name": "setApprovalForAll",
      "outputs": [],
      "stateMutability": "nonpayable",
      "type": "function"
    },
    {
      "inputs": [
        {
          "internalType": "string",
          "name": "newuri",
          "type": "string"
        }
      ],
      "name": "setURI",
      "outputs": [],
      "stateMutability": "nonpayable",
      "type": "function"
    },
    {
      "inputs": [
        {
          "internalType": "bytes4",
          "name": "interfaceId",
          "type": "bytes4"
        }
      ],
      "name": "supportsInterface",
      "outputs": [
        {
          "internalType": "bool",
          "name": "",
          "type": "bool"
        }
      ],
      "stateMutability": "view",
      "type": "function"
    },
    {
      "inputs": [
        {
          "internalType": "address",
          "name": "newOwner",
          "type": "address"
        }
      ],
      "name": "transferOwnership",
      "outputs": [],
      "stateMutability": "nonpayable",
      "type": "function"
    },
    {
      "inputs": [],
      "name": "unpause",
      "outputs": [],
      "stateMutability": "nonpayable",
      "type": "function"
    },
    {
      "inputs": [
        {
          "internalType": "address",
          "name": "newImplementation",
          "type": "address"
        },
        {
          "internalType": "bytes",
          "name": "data",
          "type": "bytes"
        }
      ],
      "name": "upgradeToAndCall",
      "outputs": [],
      "stateMutability": "payable",
      "type": "function"
    },
    {
      "inputs": [
        {
          "internalType": "uint256",
          "name": "",
          "type": "uint256"
        }
      ],
      "name": "uri",
      "outputs": [
        {
          "internalType": "string",
          "name": "",
          "type": "string"
        }
      ],
      "stateMutability": "view",
      "type": "function"
    }
  ],
  "bytecode": "0x60a06040523060805234801561001457600080fd5b5061001d610022565b6100d4565b7ff0c57e16840df040f15088dc2f81fe391c3923bec73e23a9662efc9c229c6a00805468010000000000000000900460ff16156100725760405163f92ee8a960e01b815260040160405180910390fd5b80546001600160401b03908116146100d15780546001600160401b0319166001600160401b0390811782556040519081527fc7f505b2f371ae2175ee4913f4499e1f2633a7b5936321eed1cdaeb6115181d29060200160405180910390a15b50565b60805161226c620000fe60003960008181610c1701528181610c400152610d81015261226c6000f3fe60806040526004361061013f5760003560e01c80636b20c454116100b6578063ad3cb1cc1161006f578063ad3cb1cc14610396578063c4d66de8146103c7578063e985e9c5146103e7578063f242432a14610407578063f2fde38b14610427578063f5298aca1461044757600080fd5b80636b20c454146102c5578063715018a6146102e5578063731133e9146102fa5780638456cb591461031a5780638da5cb5b1461032f578063a22cb4651461037657600080fd5b80632eb2c2d6116101085780632eb2c2d6146102165780633f4ba83a146102365780634e1273f41461024b5780634f1ef2861461027857806352d1902d1461028b5780635c975abb146102a057600080fd5b8062fdd58e1461014457806301ffc9a71461017757806302fe5305146101a75780630e89341c146101c95780631f7fdffa146101f6575b600080fd5b34801561015057600080fd5b5061016461015f366004611852565b610467565b6040519081526020015b60405180910390f35b34801561018357600080fd5b50610197610192366004611892565b61049e565b604051901515815260200161016e565b3480156101b357600080fd5b506101c76101c236600461194c565b6104ee565b005b3480156101d557600080fd5b506101e96101e436600461199c565b610502565b60405161016e9190611a05565b34801561020257600080fd5b506101c7610211366004611aca565b6105c7565b34801561022257600080fd5b506101c7610231366004611b62565b6105e1565b34801561024257600080fd5b506101c761064d565b34801561025757600080fd5b5061026b610266366004611c0b565b61065f565b60405161016e9190611d06565b6101c7610286366004611d19565b61072b565b34801561029757600080fd5b5061016461074a565b3480156102ac57600080fd5b506000805160206122178339815191525460ff16610197565b3480156102d157600080fd5b506101c76102e0366004611d5c565b610767565b3480156102f157600080fd5b506101c76107cb565b34801561030657600080fd5b506101c7610315366004611dcf565b6107dd565b34801561032657600080fd5b506101c76107f1565b34801561033b57600080fd5b507f9016d09d72d40fdae2fd8ceac6b6234c7706214fd39c1cd1e609a0528c199300546040516001600160a01b03909116815260200161016e565b34801561038257600080fd5b506101c7610391366004611e23565b610801565b3480156103a257600080fd5b506101e9604051806040016040528060058152602001640352e302e360dc1b81525081565b3480156103d357600080fd5b506101c76103e2366004611e5f565b61080c565b3480156103f357600080fd5b50610197610402366004611e7a565b61095b565b34801561041357600080fd5b506101c7610422366004611ead565b6109a8565b34801561043357600080fd5b506101c7610442366004611e5f565b610a07565b34801561045357600080fd5b506101c7610462366004611f11565b610a42565b60008181526000805160206121f7833981519152602090815260408083206001600160a01b03861684529091529020545b92915050565b60006001600160e01b03198216636cdb3d1360e11b14806104cf57506001600160e01b031982166303a24d0760e21b145b8061049857506301ffc9a760e01b6001600160e01b0319831614610498565b6104f6610a78565b6104ff81610ad3565b50565b7f88be536d5240c274a3b1d3a1be54482fd9caa294f08c62a7cde569f49a3c450280546060916000805160206121f78339815191529161054190611f44565b80601f016020809104026020016040519081016040528092919081815260200182805461056d90611f44565b80156105ba5780601f1061058f576101008083540402835291602001916105ba565b820191906000526020600020905b81548152906001019060200180831161059d57829003601f168201915b5050505050915050919050565b6105cf610a78565b6105db84848484610b0d565b50505050565b336001600160a01b03861681148015906106025750610600868261095b565b155b156106385760405163711bec9160e11b81526001600160a01b038083166004830152871660248201526044015b60405180910390fd5b6106458686868686610b45565b505050505050565b610655610a78565b61065d610bac565b565b606081518351146106905781518351604051635b05999160e01b81526004810192909252602482015260440161062f565b600083516001600160401b038111156106ab576106ab6118af565b6040519080825280602002602001820160405280156106d4578160200160208202803683370190505b50905060005b8451811015610723576020808202860101516106fe90602080840287010151610467565b82828151811061071057610710611f7e565b60209081029190910101526001016106da565b509392505050565b610733610c0c565b61073c82610cb1565b6107468282610cb9565b5050565b6000610754610d76565b506000805160206121d783398151915290565b6001600160a01b03831633148015906107875750610785833361095b565b155b156107bb57335b60405163711bec9160e11b81526001600160a01b039182166004820152908416602482015260440161062f565b6107c6838383610dbf565b505050565b6107d3610a78565b61065d6000610e05565b6107e5610a78565b6105db84848484610e76565b6107f9610a78565b61065d610ed3565b610746338383610f1c565b6000610816610fc4565b805490915060ff600160401b82041615906001600160401b031660008115801561083d5750825b90506000826001600160401b031660011480156108595750303b155b905081158015610867575080155b156108855760405163f92ee8a960e01b815260040160405180910390fd5b845467ffffffffffffffff1916600117855583156108af57845460ff60401b1916600160401b1785555b6108ed6040518060400160405280601781526020017f697066733a2f2f516d555550532f7b69647d2e6a736f6e000000000000000000815250610fed565b6108f686610ffe565b6108fe61100f565b61090661100f565b61090e61100f565b831561064557845460ff60401b19168555604051600181527fc7f505b2f371ae2175ee4913f4499e1f2633a7b5936321eed1cdaeb6115181d29060200160405180910390a1505050505050565b6001600160a01b0391821660009081527f88be536d5240c274a3b1d3a1be54482fd9caa294f08c62a7cde569f49a3c45016020908152604080832093909416825291909152205460ff1690565b336001600160a01b03861681148015906109c957506109c7868261095b565b155b156109fa5760405163711bec9160e11b81526001600160a01b0380831660048301528716602482015260440161062f565b6106458686868686611017565b610a0f610a78565b6001600160a01b038116610a3957604051631e4fbdf760e01b81526000600482015260240161062f565b6104ff81610e05565b6001600160a01b0383163314801590610a625750610a60833361095b565b155b15610a6d573361078e565b6107c68383836110a5565b33610aaa7f9016d09d72d40fdae2fd8ceac6b6234c7706214fd39c1cd1e609a0528c199300546001600160a01b031690565b6001600160a01b03161461065d5760405163118cdaa760e01b815233600482015260240161062f565b6000805160206121f78339815191527f88be536d5240c274a3b1d3a1be54482fd9caa294f08c62a7cde569f49a3c45026107c68382611fdc565b6001600160a01b038416610b3757604051632bfa23e760e11b81526000600482015260240161062f565b6105db600085858585611109565b6001600160a01b038416610b6f57604051632bfa23e760e11b81526000600482015260240161062f565b6001600160a01b038516610b9857604051626a0d4560e21b81526000600482015260240161062f565b610ba58585858585611109565b5050505050565b610bb461115c565b600080516020612217833981519152805460ff191681557f5db9ee0a495bf2e6ff9c91a7834c1ba4fdd244a5e8aa4e537bd38aeae4b073aa335b6040516001600160a01b03909116815260200160405180910390a150565b306001600160a01b037f0000000000000000000000000000000000000000000000000000000000000000161480610c9357507f00000000000000000000000000000000000000000000000000000000000000006001600160a01b0316610c876000805160206121d7833981519152546001600160a01b031690565b6001600160a01b031614155b1561065d5760405163703e46dd60e11b815260040160405180910390fd5b6104ff610a78565b816001600160a01b03166352d1902d6040518163ffffffff1660e01b8152600401602060405180830381865afa925050508015610d13575060408051601f3d908101601f19168201909252610d109181019061209b565b60015b610d3b57604051634c9c8ce360e01b81526001600160a01b038316600482015260240161062f565b6000805160206121d78339815191528114610d6c57604051632a87526960e21b81526004810182905260240161062f565b6107c6838361118c565b306001600160a01b037f0000000000000000000000000000000000000000000000000000000000000000161461065d5760405163703e46dd60e11b815260040160405180910390fd5b6001600160a01b038316610de857604051626a0d4560e21b81526000600482015260240161062f565b6107c6836000848460405180602001604052806000815250611109565b7f9016d09d72d40fdae2fd8ceac6b6234c7706214fd39c1cd1e609a0528c19930080546001600160a01b031981166001600160a01b03848116918217845560405192169182907f8be0079c531659141344cd1fd0a4f28419497f9722a3daafe3b4186f6b6457e090600090a3505050565b6001600160a01b038416610ea057604051632bfa23e760e11b81526000600482015260240161062f565b60408051600180825260208201869052818301908152606082018590526080820190925290610645600087848487611109565b610edb6111e2565b600080516020612217833981519152805460ff191660011781557f62e78cea01bee320cd4e420270b5ea74000d11b0c9f74754ebdbfc544b05a25833610bee565b6000805160206121f78339815191526001600160a01b038316610f545760405162ced3e160e81b81526000600482015260240161062f565b6001600160a01b038481166000818152600184016020908152604080832094881680845294825291829020805460ff191687151590811790915591519182527f17307eab39ab6107e8899845ad3d59bd9653f200f220920489ca2b5937696c31910160405180910390a350505050565b6000807ff0c57e16840df040f15088dc2f81fe391c3923bec73e23a9662efc9c229c6a00610498565b610ff5611213565b6104ff81611238565b611006611213565b6104ff81611240565b61065d611213565b6001600160a01b03841661104157604051632bfa23e760e11b81526000600482015260240161062f565b6001600160a01b03851661106a57604051626a0d4560e21b81526000600482015260240161062f565b6040805160018082526020820186905281830190815260608201859052608082019092529061109c8787848487611109565b50505050505050565b6001600160a01b0383166110ce57604051626a0d4560e21b81526000600482015260240161062f565b604080516001808252602082018590528183019081526060820184905260a08201909252600060808201818152919291610ba5918791859085905b61111585858585611248565b6001600160a01b03841615610ba5578251339060010361114e5760208481015190840151611147838989858589611254565b5050610645565b610645818787878787611378565b6000805160206122178339815191525460ff1661065d57604051638dfc202b60e01b815260040160405180910390fd5b61119582611461565b6040516001600160a01b038316907fbc7cd75a20ee27fd9adebab32041f755214dbc6bffa90cc0225b39da2e5c2d3b90600090a28051156111da576107c682826114c6565b61074661153c565b6000805160206122178339815191525460ff161561065d5760405163d93c066560e01b815260040160405180910390fd5b61121b61155b565b61065d57604051631afcd79f60e31b815260040160405180910390fd5b6104f6611213565b610a0f611213565b6105db84848484611575565b6001600160a01b0384163b156106455760405163f23a6e6160e01b81526001600160a01b0385169063f23a6e619061129890899089908890889088906004016120b4565b6020604051808303816000875af19250505080156112d3575060408051601f3d908101601f191682019092526112d0918101906120f9565b60015b61133c573d808015611301576040519150601f19603f3d011682016040523d82523d6000602084013e611306565b606091505b50805160000361133457604051632bfa23e760e11b81526001600160a01b038616600482015260240161062f565b805181602001fd5b6001600160e01b0319811663f23a6e6160e01b1461109c57604051632bfa23e760e11b81526001600160a01b038616600482015260240161062f565b6001600160a01b0384163b156106455760405163bc197c8160e01b81526001600160a01b0385169063bc197c81906113bc9089908990889088908890600401612116565b6020604051808303816000875af19250505080156113f7575060408051601f3d908101601f191682019092526113f4918101906120f9565b60015b611425573d808015611301576040519150601f19603f3d011682016040523d82523d6000602084013e611306565b6001600160e01b0319811663bc197c8160e01b1461109c57604051632bfa23e760e11b81526001600160a01b038616600482015260240161062f565b806001600160a01b03163b60000361149757604051634c9c8ce360e01b81526001600160a01b038216600482015260240161062f565b6000805160206121d783398151915280546001600160a01b0319166001600160a01b0392909216919091179055565b6060600080846001600160a01b0316846040516114e39190612174565b600060405180830381855af49150503d806000811461151e576040519150601f19603f3d011682016040523d82523d6000602084013e611523565b606091505b5091509150611533858383611589565b95945050505050565b341561065d5760405163b398979f60e01b815260040160405180910390fd5b6000611565610fc4565b54600160401b900460ff16919050565b61157d6111e2565b6105db848484846115e8565b60608261159e576115998261180d565b6115e1565b81511580156115b557506001600160a01b0384163b155b156115de57604051639996b31560e01b81526001600160a01b038516600482015260240161062f565b50805b9392505050565b805182516000805160206121f783398151915291146116275782518251604051635b05999160e01b81526004810192909252602482015260440161062f565b3360005b845181101561172d576020818102868101820151908601909101516001600160a01b038916156116de576000828152602086815260408083206001600160a01b038d168452909152902054818110156116b7576040516303dee4c560e01b81526001600160a01b038b16600482015260248101829052604481018390526064810184905260840161062f565b6000838152602087815260408083206001600160a01b038e16845290915290209082900390555b6001600160a01b03881615611723576000828152602086815260408083206001600160a01b038c1684529091528120805483929061171d908490612190565b90915550505b505060010161162b565b5083516001036117ae5760208401516000906020850151909150866001600160a01b0316886001600160a01b0316846001600160a01b03167fc3d58168c5ae7397731d063d5bbf3d657854427343f4c083240f7aacaa2d0f62858560405161179f929190918252602082015260400190565b60405180910390a45050610645565b846001600160a01b0316866001600160a01b0316826001600160a01b03167f4a39dc06d4c0dbc64b70af90fd698a233a518aa5d07e595d983b8c0526c8f7fb87876040516117fd9291906121b1565b60405180910390a4505050505050565b80511561181d5780518082602001fd5b60405163d6bda27560e01b815260040160405180910390fd5b80356001600160a01b038116811461184d57600080fd5b919050565b6000806040838503121561186557600080fd5b61186e83611836565b946020939093013593505050565b6001600160e01b0319811681146104ff57600080fd5b6000602082840312156118a457600080fd5b81356115e18161187c565b634e487b7160e01b600052604160045260246000fd5b604051601f8201601f191681016001600160401b03811182821017156118ed576118ed6118af565b604052919050565b60006001600160401b0383111561190e5761190e6118af565b611921601f8401601f19166020016118c5565b905082815283838301111561193557600080fd5b828260208301376000602084830101529392505050565b60006020828403121561195e57600080fd5b81356001600160401b0381111561197457600080fd5b8201601f8101841361198557600080fd5b611994848235602084016118f5565b949350505050565b6000602082840312156119ae57600080fd5b5035919050565b60005b838110156119d05781810151838201526020016119b8565b50506000910152565b600081518084526119f18160208601602086016119b5565b601f01601f19169290920160200192915050565b6020815260006115e160208301846119d9565b60006001600160401b03821115611a3157611a316118af565b5060051b60200190565b600082601f830112611a4c57600080fd5b81356020611a61611a5c83611a18565b6118c5565b8083825260208201915060208460051b870101935086841115611a8357600080fd5b602086015b84811015611a9f5780358352918301918301611a88565b509695505050505050565b600082601f830112611abb57600080fd5b6115e1838335602085016118f5565b60008060008060808587031215611ae057600080fd5b611ae985611836565b935060208501356001600160401b0380821115611b0557600080fd5b611b1188838901611a3b565b94506040870135915080821115611b2757600080fd5b611b3388838901611a3b565b93506060870135915080821115611b4957600080fd5b50611b5687828801611aaa565b91505092959194509250565b600080600080600060a08688031215611b7a57600080fd5b611b8386611836565b9450611b9160208701611836565b935060408601356001600160401b0380821115611bad57600080fd5b611bb989838a01611a3b565b94506060880135915080821115611bcf57600080fd5b611bdb89838a01611a3b565b93506080880135915080821115611bf157600080fd5b50611bfe88828901611aaa565b9150509295509295909350565b60008060408385031215611c1e57600080fd5b82356001600160401b0380821115611c3557600080fd5b818501915085601f830112611c4957600080fd5b81356020611c59611a5c83611a18565b82815260059290921b84018101918181019089841115611c7857600080fd5b948201945b83861015611c9d57611c8e86611836565b82529482019490820190611c7d565b96505086013592505080821115611cb357600080fd5b50611cc085828601611a3b565b9150509250929050565b60008151808452602080850194506020840160005b83811015611cfb57815187529582019590820190600101611cdf565b509495945050505050565b6020815260006115e16020830184611cca565b60008060408385031215611d2c57600080fd5b611d3583611836565b915060208301356001600160401b03811115611d5057600080fd5b611cc085828601611aaa565b600080600060608486031215611d7157600080fd5b611d7a84611836565b925060208401356001600160401b0380821115611d9657600080fd5b611da287838801611a3b565b93506040860135915080821115611db857600080fd5b50611dc586828701611a3b565b9150509250925092565b60008060008060808587031215611de557600080fd5b611dee85611836565b9350602085013592506040850135915060608501356001600160401b03811115611e1757600080fd5b611b5687828801611aaa565b60008060408385031215611e3657600080fd5b611e3f83611836565b915060208301358015158114611e5457600080fd5b809150509250929050565b600060208284031215611e7157600080fd5b6115e182611836565b60008060408385031215611e8d57600080fd5b611e9683611836565b9150611ea460208401611836565b90509250929050565b600080600080600060a08688031215611ec557600080fd5b611ece86611836565b9450611edc60208701611836565b9350604086013592506060860135915060808601356001600160401b03811115611f0557600080fd5b611bfe88828901611aaa565b600080600060608486031215611f2657600080fd5b611f2f84611836565b95602085013595506040909401359392505050565b600181811c90821680611f5857607f821691505b602082108103611f7857634e487b7160e01b600052602260045260246000fd5b50919050565b634e487b7160e01b600052603260045260246000fd5b601f8211156107c6576000816000526020600020601f850160051c81016020861015611fbd5750805b601f850160051c820191505b8181101561064557828155600101611fc9565b81516001600160401b03811115611ff557611ff56118af565b612009816120038454611f44565b84611f94565b602080601f83116001811461203e57600084156120265750858301515b600019600386901b1c1916600185901b178555610645565b600085815260208120601f198616915b8281101561206d5788860151825594840194600190910190840161204e565b508582101561208b5787850151600019600388901b60f8161c191681555b5050505050600190811b01905550565b6000602082840312156120ad57600080fd5b5051919050565b6001600160a01b03868116825285166020820152604081018490526060810183905260a0608082018190526000906120ee908301846119d9565b979650505050505050565b60006020828403121561210b57600080fd5b81516115e18161187c565b6001600160a01b0386811682528516602082015260a06040820181905260009061214290830186611cca565b82810360608401526121548186611cca565b9050828103608084015261216881856119d9565b98975050505050505050565b600082516121868184602087016119b5565b9190910192915050565b8082018082111561049857634e487b7160e01b600052601160045260246000fd5b6040815260006121c46040830185611cca565b82810360208401526115338185611cca56fe360894a13ba1a3210667c828492db98dca3e2076cc3735a920a3ca505d382bbc88be536d5240c274a3b1d3a1be54482fd9caa294f08c62a7cde569f49a3c4500cd5ed15c6e187e77e9aee88184c21f4f2182ab5827cb3b7e07fbedcd63f03300a2646970667358221220524da96168383b949b12bbf140b61e025062481168f0f37319324b88c133fb9f64736f6c63430008160033",
  "linkReferences": {},
  "deployedLinkReferences": {}
}