{
  "_format": "hh3-artifact-1",
  "contractName": "FuncTransToken",
  "sourceName": "contracts/FuncTransToken.sol",
  "abi": [
    {
      "inputs": [],
      "stateMutability": "nonpayable",
      "type": "constructor"
    },
    {
      "inputs": [],
      "name": "ECDSAInvalidSignature",
      "type": "error"
    },
    {
      "inputs": [
        {
          "internalType": "uint256",
          "name": "length",
          "type": "uint256"
        }
      ],
      "name": "ECDSAInvalidSignatureLength",
      "type": "error"
    },
    {
      "inputs": [
        {
          "internalType": "bytes32",
          "name": "s",
          "type": "bytes32"
        }
      ],
      "name": "ECDSAInvalidSignatureS",
      "type": "error"
    },
    {
      "inputs": [
        {
          "internalType": "address",
          "name": "spender",
          "type": "address"
        },
        {
          "internalType": "uint256",
          "name": "allowance",
          "type": "uint256"
        },
        {
          "internalType": "uint256",
          "name": "needed",
          "type": "uint256"
        }
      ],
      "name": "ERC20InsufficientAllowance",
      "type": "error"
    },
    {
      "inputs": [
        {
          "internalType": "address",
          "name": "sender",
          "type": "address"
        },
        {
          "internalType": "uint256",
          "name": "balance",
          "type": "uint256"
        },
        {
          "internalType": "uint256",
          "name": "needed",
          "type": "uint256"
        }
      ],
      "name": "ERC20InsufficientBalance",
      "type": "error"
    },
    {
      "inputs": [
        {
          "internalType": "address",
          "name": "approver",
          "type": "address"
        }
      ],
      "name": "ERC20InvalidApprover",
      "type": "error"
    },
    {
      "inputs": [
        {
          "internalType": "address",
          "name": "receiver",
          "type": "address"
        }
      ],
      "name": "ERC20InvalidReceiver",
      "type": "error"
    },
    {
      "inputs": [
        {
          "internalType": "address",
          "name": "sender",
          "type": "address"
        }
      ],
      "name": "ERC20InvalidSender",
      "type": "error"
    },
    {
      "inputs": [
        {
          "internalType": "address",
          "name": "spender",
          "type": "address"
        }
      ],
      "name": "ERC20InvalidSpender",
      "type": "error"
    },
    {
      "inputs": [
        {
          "internalType": "uint256",
          "name": "deadline",
          "type": "uint256"
        }
      ],
      "name": "ERC2612ExpiredSignature",
      "type": "error"
    },
    {
      "inputs": [
        {
          "internalType": "address",
          "name": "signer",
          "type": "address"
        },
        {
          "internalType": "address",
          "name": "owner",
          "type": "address"
        }
      ],
      "name": "ERC2612InvalidSigner",
      "type": "error"
    },
    {
      "inputs": [
        {
          "internalType": "address",
          "name": "account",
          "type": "address"
        },
        {
          "internalType": "uint256",
          "name": "currentNonce",
          "type": "uint256"
        }
      ],
      "name": "InvalidAccountNonce",
      "type": "error"
    },
    {
      "inputs": [],
      "name": "InvalidInitialization",
      "type": "error"
    },
    {
      "inputs": [],
      "name": "NotInitializing",
      "type": "error"
    },
    {
      "inputs": [
        {
          "internalType": "address",
          "name": "owner",
          "type": "address"
        }
      ],
      "name": "OwnableInvalidOwner",
      "type": "error"
    },
    {
      "inputs": [
        {
          "internalType": "address",
          "name": "account",
          "type": "address"
        }
      ],
      "name": "OwnableUnauthorizedAccount",
      "type": "error"
    },
    {
      "anonymous": false,
      "inputs": [
        {
          "indexed": true,
          "internalType": "address",
          "name": "owner",
          "type": "address"
        },
        {
          "indexed": true,
          "internalType": "address",
          "name": "spender",
          "type": "address"
        },
        {
          "indexed": false,
          "internalType": "uint256",
          "name": "value",
          "type": "uint256"
        }
      ],
      "name": "Approval",
      "type": "event"
    },
    {
      "anonymous": false,
      "inputs": [],
      "name": "EIP712DomainChanged",
      "type": "event"
    },
    {
      "anonymous": false,
      "inputs": [
        {
          "indexed": false,
          "internalType": "uint64",
          "name": "version",
          "type": "uint64"
        }
      ],
      "name": "Initialized",
      "type": "event"
    },
    {
      "anonymous": false,
      "inputs": [
        {
          "indexed": true,
          "internalType": "address",
          "name": "previousOwner",
          "type": "address"
        },
        {
          "indexed": true,
          "internalType": "address",
          "name": "newOwner",
          "type": "address"
        }
      ],
      "name": "OwnershipTransferred",
      "type": "event"
    },
    {
      "anonymous": false,
      "inputs": [
        {
          "indexed": true,
          "internalType": "address",
          "name": "from",
          "type": "address"
        },
        {
          "indexed": true,
          "internalType": "address",
          "name": "to",
          "type": "address"
        },
        {
          "indexed": false,
          "internalType": "uint256",
          "name": "value",
          "type": "uint256"
        }
      ],
      "name": "Transfer",
      "type": "event"
    },
    {
      "inputs": [],
      "name": "DOMAIN_SEPARATOR",
      "outputs": [
        {
          "internalType": "bytes32",
          "name": "",
          "type": "bytes32"
        }
      ],
      "stateMutability": "view",
      "type": "function"
    },
    {
      "inputs": [
        {
          "internalType": "address",
          "name": "owner",
          "type": "address"
        },
        {
          "internalType": "address",
          "name": "spender",
          "type": "address"
        }
      ],
      "name": "allowance",
      "outputs": [
        {
          "internalType": "uint256",
          "name": "",
          "type": "uint256"
        }
      ],
      "stateMutability": "view",
      "type": "function"
    },
    {
      "inputs": [
        {
          "internalType": "address",
          "name": "spender",
          "type": "address"
        },
        {
          "internalType": "uint256",
          "name": "value",
          "type": "uint256"
        }
      ],
      "name": "approve",
      "outputs": [
        {
          "internalType": "bool",
          "name": "",
          "type": "bool"
        }
      ],
      "stateMutability": "nonpayable",
      "type": "function"
    },
    {
      "inputs": [
        {
          "internalType": "address",
          "name": "account",
          "type": "address"
        }
      ],
      "name": "balanceOf",
      "outputs": [
        {
          "internalType": "uint256",
          "name": "",
          "type": "uint256"
        }
      ],
      "stateMutability": "view",
      "type": "function"
    },
    {
      "inputs": [],
      "name": "decimals",
      "outputs": [
        {
          "internalType": "uint8",
          "name": "",
          "type": "uint8"
        }
      ],
      "stateMutability": "view",
      "type": "function"
    },
    {
      "inputs": [],
      "name": "eip712Domain",
      "outputs": [
        {
          "internalType": "bytes1",
          "name": "fields",
          "type": "bytes1"
        },
        {
          "internalType": "string",
          "name": "name",
          "type": "string"
        },
        {
          "internalType": "string",
          "name": "version",
          "type": "string"
        },
        {
          "internalType": "uint256",
          "name": "chainId",
          "type": "uint256"
        },
        {
          "internalType": "address",
          "name": "verifyingContract",
          "type": "address"
        },
        {
          "internalType": "bytes32",
          "name": "salt",
          "type": "bytes32"
        },
        {
          "internalType": "uint256[]",
          "name": "extensions",
          "type": "uint256[]"
        }
      ],
      "stateMutability": "view",
      "type": "function"
    },
    {
      "inputs": [
        {
          "internalType": "address",
          "name": "initialOwner",
          "type": "address"
        }
      ],
      "name": "initialize",
      "outputs": [],
      "stateMutability": "nonpayable",
      "type": "function"
    },
    {
      "inputs": [
        {
          "internalType": "address",
          "name": "to",
          "type": "address"
        },
        {
          "internalType": "uint256",
          "name": "amount",
          "type": "uint256"
        }
      ],
      "name": "mint",
      "outputs": [],
      "stateMutability": "nonpayable",
      "type": "function"
    },
    {
      "inputs": [],
      "name": "name",
      "outputs": [
        {
          "internalType": "string",
          "name": "",
          "type": "string"
        }
      ],
      "stateMutability": "view",
      "type": "function"
    },
    {
      "inputs": [
        {
          "internalType": "address",
          "name": "owner",
          "type": "address"
        }
      ],
      "name": "nonces",
      "outputs": [
        {
          "internalType": "uint256",
          "name": "",
          "type": "uint256"
        }
      ],
      "stateMutability": "view",
      "type": "function"
    },
    {
      "inputs": [],
      "name": "owner",
      "outputs": [
        {
          "internalType": "address",
          "name": "",
          "type": "address"
        }
      ],
      "stateMutability": "view",
      "type": "function"
    },
    {
      "inputs": [
        {
          "internalType": "address",
          "name": "owner",
          "type": "address"
        },
        {
          "internalType": "address",
          "name": "spender",
          "type": "address"
        },
        {
          "internalType": "uint256",
          "name": "value",
          "type": "uint256"
        },
        {
          "internalType": "uint256",
          "name": "deadline",
          "type": "uint256"
        },
        {
          "internalType": "uint8",
          "name": "v",
          "type": "uint8"
        },
        {
          "internalType": "bytes32",
          "name": "r",
          "type": "bytes32"
        },
        {
          "internalType": "bytes32",
          "name": "s",
          "type": "bytes32"
        }
      ],
      "name": "permit",
      "outputs": [],
      "stateMutability": "nonpayable",
      "type": "function"
    },
    {
      "inputs": [],
      "name": "renounceOwnership",
      "outputs": [],
      "stateMutability": "nonpayable",
      "type": "function"
    },
    {
      "inputs": [],
      "name": "symbol",
      "outputs": [
        {
          "internalType": "string",
          "name": "",
          "type": "string"
        }
      ],
      "stateMutability": "view",
      "type": "function"
    },
    {
      "inputs": [],
      "name": "totalSupply",
      "outputs": [
        {
          "internalType": "uint256",
          "name": "",
          "type": "uint256"
        }
      ],
      "stateMutability": "view",
      "type": "function"
    },
    {
      "inputs": [
        {
          "internalType": "address",
          "name": "to",
          "type": "address"
        },
        {
          "internalType": "uint256",
          "name": "value",
          "type": "uint256"
        }
      ],
      "name": "transfer",
      "outputs": [
        {
          "internalType": "bool",
          "name": "",
          "type": "bool"
        }
      ],
      "stateMutability": "nonpayable",
      "type": "function"
    },
    {
      "inputs": [
        {
          "internalType": "address",
          "name": "from",
          "type": "address"
        },
        {
          "internalType": "address",
          "name": "to",
          "type": "address"
        },
        {
          "internalType": "uint256",
          "name": "value",
          "type": "uint256"
        }
      ],
      "name": "transferFrom",
      "outputs": [
        {
          "internalType": "bool",
          "name": "",
          "type": "bool"
        }
      ],
      "stateMutability": "nonpayable",
      "type": "function"
    },
    {
      "inputs": [
        {
          "internalType": "address",
          "name": "newOwner",
          "type": "address"
        }
      ],
      "name": "transferOwnership",
      "outputs": [],
      "stateMutability": "nonpayable",
      "type": "function"
    }
  ],
  "bytecode": "0x6080604052348015600e575f5ffd5b5060156019565b60c9565b7ff0c57e16840df040f15088dc2f81fe391c3923bec73e23a9662efc9c229c6a00805468010000000000000000900460ff161560685760405163f92ee8a960e01b815260040160405180910390fd5b80546001600160401b039081161460c65780546001600160401b0319166001600160401b0390811782556040519081527fc7f505b2f371ae2175ee4913f4499e1f2633a7b5936321eed1cdaeb6115181d29060200160405180910390a15b50565b611525806100d65f395ff3fe608060405234801561000f575f5ffd5b5060043610610111575f3560e01c80637ecebe001161009e578063a9059cbb1161006e578063a9059cbb14610251578063c4d66de814610264578063d505accf14610277578063dd62ed3e1461028a578063f2fde38b1461029d575f5ffd5b80637ecebe00146101e157806384b0196e146101f45780638da5cb5b1461020f57806395d89b4114610249575f5ffd5b8063313ce567116100e4578063313ce5671461019a5780633644e515146101a957806340c10f19146101b157806370a08231146101c6578063715018a6146101d9575f5ffd5b806306fdde0314610115578063095ea7b31461013357806318160ddd1461015657806323b872dd14610187575b5f5ffd5b61011d6102b0565b60405161012a919061114e565b60405180910390f35b610146610141366004611182565b610355565b604051901515815260200161012a565b7f52c63247e1f47db19d5ce0460030c497f067ca4cebf71ba98eeadabe20bace02545b60405190815260200161012a565b6101466101953660046111aa565b61036e565b6040516012815260200161012a565b610179610391565b6101c46101bf366004611182565b61039f565b005b6101796101d43660046111e4565b6103b5565b6101c46103e5565b6101796101ef3660046111e4565b6103f8565b6101fc610402565b60405161012a97969594939291906111fd565b7f9016d09d72d40fdae2fd8ceac6b6234c7706214fd39c1cd1e609a0528c199300546040516001600160a01b03909116815260200161012a565b61011d6104b0565b61014661025f366004611182565b6104ee565b6101c46102723660046111e4565b6104fb565b6101c4610285366004611293565b610671565b610179610298366004611300565b6107c6565b6101c46102ab3660046111e4565b61080f565b60605f5f5160206114b05f395f51905f525b90508060030180546102d390611331565b80601f01602080910402602001604051908101604052809291908181526020018280546102ff90611331565b801561034a5780601f106103215761010080835404028352916020019161034a565b820191905f5260205f20905b81548152906001019060200180831161032d57829003601f168201915b505050505091505090565b5f3361036281858561084c565b60019150505b92915050565b5f3361037b85828561085e565b6103868585856108c2565b506001949350505050565b5f61039a61091f565b905090565b6103a7610928565b6103b18282610983565b5050565b5f805f5160206114b05f395f51905f525b6001600160a01b039093165f9081526020939093525050604090205490565b6103ed610928565b6103f65f6109b7565b565b5f61036882610a27565b5f60608082808083815f5160206114d05f395f51905f52805490915015801561042d57506001810154155b6104765760405162461bcd60e51b81526020600482015260156024820152741152540dcc4c8e88155b9a5b9a5d1a585b1a5e9959605a1b60448201526064015b60405180910390fd5b61047e610a4f565b610486610a8d565b604080515f80825260208201909252600f60f81b9c939b5091995046985030975095509350915050565b7f52c63247e1f47db19d5ce0460030c497f067ca4cebf71ba98eeadabe20bace0480546060915f5160206114b05f395f51905f52916102d390611331565b5f336103628185856108c2565b5f610504610aa3565b805490915060ff600160401b820416159067ffffffffffffffff165f8115801561052b5750825b90505f8267ffffffffffffffff1660011480156105475750303b155b905081158015610555575080155b156105735760405163f92ee8a960e01b815260040160405180910390fd5b845467ffffffffffffffff19166001178555831561059d57845460ff60401b1916600160401b1785555b6105eb6040518060400160405280600e81526020016d233ab731aa3930b739aa37b5b2b760911b81525060405180604001604052806006815260200165465452414e5360d01b815250610acb565b6105f486610add565b6106236040518060400160405280600e81526020016d233ab731aa3930b739aa37b5b2b760911b815250610aee565b831561066957845460ff60401b19168555604051600181527fc7f505b2f371ae2175ee4913f4499e1f2633a7b5936321eed1cdaeb6115181d29060200160405180910390a15b505050505050565b834211156106955760405163313c898160e11b81526004810185905260240161046d565b5f7f6e71edae12b1b97f4d1f60370fef10105fa2faae0126114a169c64845d6126c98888886106ff8c6001600160a01b03165f9081527f5ab42ced628888259c08ac98db1eb0cf702fc1501344311d8b100cd1bfe4bb006020526040902080546001810190915590565b6040805160208101969096526001600160a01b0394851690860152929091166060840152608083015260a082015260c0810186905260e0016040516020818303038152906040528051906020012090505f61075982610b19565b90505f61076882878787610b45565b9050896001600160a01b0316816001600160a01b0316146107af576040516325c0072360e11b81526001600160a01b0380831660048301528b16602482015260440161046d565b6107ba8a8a8a61084c565b50505050505050505050565b6001600160a01b039182165f9081527f52c63247e1f47db19d5ce0460030c497f067ca4cebf71ba98eeadabe20bace016020908152604080832093909416825291909152205490565b610817610928565b6001600160a01b03811661084057604051631e4fbdf760e01b81525f600482015260240161046d565b610849816109b7565b50565b6108598383836001610b71565b505050565b5f61086984846107c6565b90505f198110156108bc57818110156108ae57604051637dc7a0d960e11b81526001600160a01b0384166004820152602481018290526044810183905260640161046d565b6108bc84848484035f610b71565b50505050565b6001600160a01b0383166108eb57604051634b637e8f60e11b81525f600482015260240161046d565b6001600160a01b0382166109145760405163ec442f0560e01b81525f600482015260240161046d565b610859838383610c55565b5f61039a610d8e565b3361095a7f9016d09d72d40fdae2fd8ceac6b6234c7706214fd39c1cd1e609a0528c199300546001600160a01b031690565b6001600160a01b0316146103f65760405163118cdaa760e01b815233600482015260240161046d565b6001600160a01b0382166109ac5760405163ec442f0560e01b81525f600482015260240161046d565b6103b15f8383610c55565b7f9016d09d72d40fdae2fd8ceac6b6234c7706214fd39c1cd1e609a0528c19930080546001600160a01b031981166001600160a01b03848116918217845560405192169182907f8be0079c531659141344cd1fd0a4f28419497f9722a3daafe3b4186f6b6457e0905f90a3505050565b5f807f5ab42ced628888259c08ac98db1eb0cf702fc1501344311d8b100cd1bfe4bb006103c6565b7fa16a46d94261c7517cc8ff89f61c0ce93598e3c849801011dee649a6a557d10280546060915f5160206114d05f395f51905f52916102d390611331565b60605f5f5160206114d05f395f51905f526102c2565b5f807ff0c57e16840df040f15088dc2f81fe391c3923bec73e23a9662efc9c229c6a00610368565b610ad3610e01565b6103b18282610e26565b610ae5610e01565b61084981610e76565b610af6610e01565b61084981604051806040016040528060018152602001603160f81b815250610e7e565b5f610368610b2561091f565b8360405161190160f01b8152600281019290925260228201526042902090565b5f5f5f5f610b5588888888610edd565b925092509250610b658282610fa5565b50909695505050505050565b5f5160206114b05f395f51905f526001600160a01b038516610ba85760405163e602df0560e01b81525f600482015260240161046d565b6001600160a01b038416610bd157604051634a1406b160e11b81525f600482015260240161046d565b6001600160a01b038086165f90815260018301602090815260408083209388168352929052208390558115610c4e57836001600160a01b0316856001600160a01b03167f8c5be1e5ebec7d5bd14f71427d1e84f3dd0314c0f7b2291e5b200ac8c7c3b92585604051610c4591815260200190565b60405180910390a35b5050505050565b5f5160206114b05f395f51905f526001600160a01b038416610c8f5781816002015f828254610c84919061137d565b90915550610cff9050565b6001600160a01b0384165f9081526020829052604090205482811015610ce15760405163391434e360e21b81526001600160a01b0386166004820152602481018290526044810184905260640161046d565b6001600160a01b0385165f9081526020839052604090209083900390555b6001600160a01b038316610d1d576002810180548390039055610d3b565b6001600160a01b0383165f9081526020829052604090208054830190555b826001600160a01b0316846001600160a01b03167fddf252ad1be2c89b69c2b068fc378daa952ba7f163c4a11628f55a4df523b3ef84604051610d8091815260200190565b60405180910390a350505050565b5f7f8b73c3c69bb8fe3d512ecc4cf759cc79239f7b179b0ffacaa9a75d522b39400f610db861105d565b610dc06110c5565b60408051602081019490945283019190915260608201524660808201523060a082015260c00160405160208183030381529060405280519060200120905090565b610e09611107565b6103f657604051631afcd79f60e31b815260040160405180910390fd5b610e2e610e01565b5f5160206114b05f395f51905f527f52c63247e1f47db19d5ce0460030c497f067ca4cebf71ba98eeadabe20bace03610e6784826113e0565b50600481016108bc83826113e0565b610817610e01565b610e86610e01565b5f5160206114d05f395f51905f527fa16a46d94261c7517cc8ff89f61c0ce93598e3c849801011dee649a6a557d102610ebf84826113e0565b5060038101610ece83826113e0565b505f8082556001909101555050565b5f80807f7fffffffffffffffffffffffffffffff5d576e7357a4501ddfe92f46681b20a0841115610f1657505f91506003905082610f9b565b604080515f808252602082018084528a905260ff891692820192909252606081018790526080810186905260019060a0016020604051602081039080840390855afa158015610f67573d5f5f3e3d5ffd5b5050604051601f1901519150506001600160a01b038116610f9257505f925060019150829050610f9b565b92505f91508190505b9450945094915050565b5f826003811115610fb857610fb861149b565b03610fc1575050565b6001826003811115610fd557610fd561149b565b03610ff35760405163f645eedf60e01b815260040160405180910390fd5b60028260038111156110075761100761149b565b036110285760405163fce698f760e01b81526004810182905260240161046d565b600382600381111561103c5761103c61149b565b036103b1576040516335e2f38360e21b81526004810182905260240161046d565b5f5f5160206114d05f395f51905f5281611075610a4f565b80519091501561108d57805160209091012092915050565b8154801561109c579392505050565b7fc5d2460186f7233c927e7db2dcc703c0e500b653ca82273b7bfad8045d85a470935050505090565b5f5f5160206114d05f395f51905f52816110dd610a8d565b8051909150156110f557805160209091012092915050565b6001820154801561109c579392505050565b5f611110610aa3565b54600160401b900460ff16919050565b5f81518084528060208401602086015e5f602082860101526020601f19601f83011685010191505092915050565b602081525f6111606020830184611120565b9392505050565b80356001600160a01b038116811461117d575f5ffd5b919050565b5f5f60408385031215611193575f5ffd5b61119c83611167565b946020939093013593505050565b5f5f5f606084860312156111bc575f5ffd5b6111c584611167565b92506111d360208501611167565b929592945050506040919091013590565b5f602082840312156111f4575f5ffd5b61116082611167565b60ff60f81b8816815260e060208201525f61121b60e0830189611120565b828103604084015261122d8189611120565b606084018890526001600160a01b038716608085015260a0840186905283810360c0850152845180825260208087019350909101905f5b81811015611282578351835260209384019390920191600101611264565b50909b9a5050505050505050505050565b5f5f5f5f5f5f5f60e0888a0312156112a9575f5ffd5b6112b288611167565b96506112c060208901611167565b95506040880135945060608801359350608088013560ff811681146112e3575f5ffd5b9699959850939692959460a0840135945060c09093013592915050565b5f5f60408385031215611311575f5ffd5b61131a83611167565b915061132860208401611167565b90509250929050565b600181811c9082168061134557607f821691505b60208210810361136357634e487b7160e01b5f52602260045260245ffd5b50919050565b634e487b7160e01b5f52604160045260245ffd5b8082018082111561036857634e487b7160e01b5f52601160045260245ffd5b601f82111561085957805f5260205f20601f840160051c810160208510156113c15750805b601f840160051c820191505b81811015610c4e575f81556001016113cd565b815167ffffffffffffffff8111156113fa576113fa611369565b61140e816114088454611331565b8461139c565b6020601f821160018114611440575f83156114295750848201515b5f19600385901b1c1916600184901b178455610c4e565b5f84815260208120601f198516915b8281101561146f578785015182556020948501946001909201910161144f565b508482101561148c57868401515f19600387901b60f8161c191681555b50505050600190811b01905550565b634e487b7160e01b5f52602160045260245ffdfe52c63247e1f47db19d5ce0460030c497f067ca4cebf71ba98eeadabe20bace00a16a46d94261c7517cc8ff89f61c0ce93598e3c849801011dee649a6a557d100a2646970667358221220da0f8520fda4725cf349a328aad55dfee4040f79d0c0e99471e068d5c338c75b64736f6c634300081b0033",
  "linkReferences": {},
  "deployedLinkReferences": {},
  "immutableReferences": {},
  "inputSourceName": "project/contracts/FuncTransToken.sol",
  "buildInfoId": "solc-0_8_27-e70a2a8e814f5ddc5c5871562935018828b7c69d"
}