{
  "_format": "hh3-artifact-1",
  "contractName": "ComplexMultiToken",
  "sourceName": "contracts/ComplexMultiToken.sol",
  "abi": [
    {
      "inputs": [
        {
          "internalType": "address",
          "name": "initialOwner",
          "type": "address"
        }
      ],
      "stateMutability": "nonpayable",
      "type": "constructor"
    },
    {
      "inputs": [
        {
          "internalType": "address",
          "name": "sender",
          "type": "address"
        },
        {
          "internalType": "uint256",
          "name": "balance",
          "type": "uint256"
        },
        {
          "internalType": "uint256",
          "name": "needed",
          "type": "uint256"
        },
        {
          "internalType": "uint256",
          "name": "tokenId",
          "type": "uint256"
        }
      ],
      "name": "ERC1155InsufficientBalance",
      "type": "error"
    },
    {
      "inputs": [
        {
          "internalType": "address",
          "name": "approver",
          "type": "address"
        }
      ],
      "name": "ERC1155InvalidApprover",
      "type": "error"
    },
    {
      "inputs": [
        {
          "internalType": "uint256",
          "name": "idsLength",
          "type": "uint256"
        },
        {
          "internalType": "uint256",
          "name": "valuesLength",
          "type": "uint256"
        }
      ],
      "name": "ERC1155InvalidArrayLength",
      "type": "error"
    },
    {
      "inputs": [
        {
          "internalType": "address",
          "name": "operator",
          "type": "address"
        }
      ],
      "name": "ERC1155InvalidOperator",
      "type": "error"
    },
    {
      "inputs": [
        {
          "internalType": "address",
          "name": "receiver",
          "type": "address"
        }
      ],
      "name": "ERC1155InvalidReceiver",
      "type": "error"
    },
    {
      "inputs": [
        {
          "internalType": "address",
          "name": "sender",
          "type": "address"
        }
      ],
      "name": "ERC1155InvalidSender",
      "type": "error"
    },
    {
      "inputs": [
        {
          "internalType": "address",
          "name": "operator",
          "type": "address"
        },
        {
          "internalType": "address",
          "name": "owner",
          "type": "address"
        }
      ],
      "name": "ERC1155MissingApprovalForAll",
      "type": "error"
    },
    {
      "inputs": [],
      "name": "EnforcedPause",
      "type": "error"
    },
    {
      "inputs": [],
      "name": "ExpectedPause",
      "type": "error"
    },
    {
      "inputs": [
        {
          "internalType": "address",
          "name": "owner",
          "type": "address"
        }
      ],
      "name": "OwnableInvalidOwner",
      "type": "error"
    },
    {
      "inputs": [
        {
          "internalType": "address",
          "name": "account",
          "type": "address"
        }
      ],
      "name": "OwnableUnauthorizedAccount",
      "type": "error"
    },
    {
      "anonymous": false,
      "inputs": [
        {
          "indexed": true,
          "internalType": "address",
          "name": "account",
          "type": "address"
        },
        {
          "indexed": true,
          "internalType": "address",
          "name": "operator",
          "type": "address"
        },
        {
          "indexed": false,
          "internalType": "bool",
          "name": "approved",
          "type": "bool"
        }
      ],
      "name": "ApprovalForAll",
      "type": "event"
    },
    {
      "anonymous": false,
      "inputs": [
        {
          "indexed": true,
          "internalType": "address",
          "name": "previousOwner",
          "type": "address"
        },
        {
          "indexed": true,
          "internalType": "address",
          "name": "newOwner",
          "type": "address"
        }
      ],
      "name": "OwnershipTransferred",
      "type": "event"
    },
    {
      "anonymous": false,
      "inputs": [
        {
          "indexed": false,
          "internalType": "address",
          "name": "account",
          "type": "address"
        }
      ],
      "name": "Paused",
      "type": "event"
    },
    {
      "anonymous": false,
      "inputs": [
        {
          "indexed": true,
          "internalType": "address",
          "name": "operator",
          "type": "address"
        },
        {
          "indexed": true,
          "internalType": "address",
          "name": "from",
          "type": "address"
        },
        {
          "indexed": true,
          "internalType": "address",
          "name": "to",
          "type": "address"
        },
        {
          "indexed": false,
          "internalType": "uint256[]",
          "name": "ids",
          "type": "uint256[]"
        },
        {
          "indexed": false,
          "internalType": "uint256[]",
          "name": "values",
          "type": "uint256[]"
        }
      ],
      "name": "TransferBatch",
      "type": "event"
    },
    {
      "anonymous": false,
      "inputs": [
        {
          "indexed": true,
          "internalType": "address",
          "name": "operator",
          "type": "address"
        },
        {
          "indexed": true,
          "internalType": "address",
          "name": "from",
          "type": "address"
        },
        {
          "indexed": true,
          "internalType": "address",
          "name": "to",
          "type": "address"
        },
        {
          "indexed": false,
          "internalType": "uint256",
          "name": "id",
          "type": "uint256"
        },
        {
          "indexed": false,
          "internalType": "uint256",
          "name": "value",
          "type": "uint256"
        }
      ],
      "name": "TransferSingle",
      "type": "event"
    },
    {
      "anonymous": false,
      "inputs": [
        {
          "indexed": false,
          "internalType": "string",
          "name": "value",
          "type": "string"
        },
        {
          "indexed": true,
          "internalType": "uint256",
          "name": "id",
          "type": "uint256"
        }
      ],
      "name": "URI",
      "type": "event"
    },
    {
      "anonymous": false,
      "inputs": [
        {
          "indexed": false,
          "internalType": "address",
          "name": "account",
          "type": "address"
        }
      ],
      "name": "Unpaused",
      "type": "event"
    },
    {
      "inputs": [
        {
          "internalType": "address",
          "name": "account",
          "type": "address"
        },
        {
          "internalType": "uint256",
          "name": "id",
          "type": "uint256"
        }
      ],
      "name": "balanceOf",
      "outputs": [
        {
          "internalType": "uint256",
          "name": "",
          "type": "uint256"
        }
      ],
      "stateMutability": "view",
      "type": "function"
    },
    {
      "inputs": [
        {
          "internalType": "address[]",
          "name": "accounts",
          "type": "address[]"
        },
        {
          "internalType": "uint256[]",
          "name": "ids",
          "type": "uint256[]"
        }
      ],
      "name": "balanceOfBatch",
      "outputs": [
        {
          "internalType": "uint256[]",
          "name": "",
          "type": "uint256[]"
        }
      ],
      "stateMutability": "view",
      "type": "function"
    },
    {
      "inputs": [
        {
          "internalType": "address",
          "name": "account",
          "type": "address"
        },
        {
          "internalType": "uint256",
          "name": "id",
          "type": "uint256"
        },
        {
          "internalType": "uint256",
          "name": "value",
          "type": "uint256"
        }
      ],
      "name": "burn",
      "outputs": [],
      "stateMutability": "nonpayable",
      "type": "function"
    },
    {
      "inputs": [
        {
          "internalType": "address",
          "name": "account",
          "type": "address"
        },
        {
          "internalType": "uint256[]",
          "name": "ids",
          "type": "uint256[]"
        },
        {
          "internalType": "uint256[]",
          "name": "values",
          "type": "uint256[]"
        }
      ],
      "name": "burnBatch",
      "outputs": [],
      "stateMutability": "nonpayable",
      "type": "function"
    },
    {
      "inputs": [
        {
          "internalType": "uint256",
          "name": "id",
          "type": "uint256"
        }
      ],
      "name": "exists",
      "outputs": [
        {
          "internalType": "bool",
          "name": "",
          "type": "bool"
        }
      ],
      "stateMutability": "view",
      "type": "function"
    },
    {
      "inputs": [
        {
          "internalType": "address",
          "name": "account",
          "type": "address"
        },
        {
          "internalType": "address",
          "name": "operator",
          "type": "address"
        }
      ],
      "name": "isApprovedForAll",
      "outputs": [
        {
          "internalType": "bool",
          "name": "",
          "type": "bool"
        }
      ],
      "stateMutability": "view",
      "type": "function"
    },
    {
      "inputs": [
        {
          "internalType": "address",
          "name": "account",
          "type": "address"
        },
        {
          "internalType": "uint256",
          "name": "id",
          "type": "uint256"
        },
        {
          "internalType": "uint256",
          "name": "amount",
          "type": "uint256"
        },
        {
          "internalType": "bytes",
          "name": "data",
          "type": "bytes"
        }
      ],
      "name": "mint",
      "outputs": [],
      "stateMutability": "nonpayable",
      "type": "function"
    },
    {
      "inputs": [
        {
          "internalType": "address",
          "name": "to",
          "type": "address"
        },
        {
          "internalType": "uint256[]",
          "name": "ids",
          "type": "uint256[]"
        },
        {
          "internalType": "uint256[]",
          "name": "amounts",
          "type": "uint256[]"
        },
        {
          "internalType": "bytes",
          "name": "data",
          "type": "bytes"
        }
      ],
      "name": "mintBatch",
      "outputs": [],
      "stateMutability": "nonpayable",
      "type": "function"
    },
    {
      "inputs": [],
      "name": "owner",
      "outputs": [
        {
          "internalType": "address",
          "name": "",
          "type": "address"
        }
      ],
      "stateMutability": "view",
      "type": "function"
    },
    {
      "inputs": [],
      "name": "pause",
      "outputs": [],
      "stateMutability": "nonpayable",
      "type": "function"
    },
    {
      "inputs": [],
      "name": "paused",
      "outputs": [
        {
          "internalType": "bool",
          "name": "",
          "type": "bool"
        }
      ],
      "stateMutability": "view",
      "type": "function"
    },
    {
      "inputs": [],
      "name": "renounceOwnership",
      "outputs": [],
      "stateMutability": "nonpayable",
      "type": "function"
    },
    {
      "inputs": [
        {
          "internalType": "address",
          "name": "from",
          "type": "address"
        },
        {
          "internalType": "address",
          "name": "to",
          "type": "address"
        },
        {
          "internalType": "uint256[]",
          "name": "ids",
          "type": "uint256[]"
        },
        {
          "internalType": "uint256[]",
          "name": "values",
          "type": "uint256[]"
        },
        {
          "internalType": "bytes",
          "name": "data",
          "type": "bytes"
        }
      ],
      "name": "safeBatchTransferFrom",
      "outputs": [],
      "stateMutability": "nonpayable",
      "type": "function"
    },
    {
      "inputs": [
        {
          "internalType": "address",
          "name": "from",
          "type": "address"
        },
        {
          "internalType": "address",
          "name": "to",
          "type": "address"
        },
        {
          "internalType": "uint256",
          "name": "id",
          "type": "uint256"
        },
        {
          "internalType": "uint256",
          "name": "value",
          "type": "uint256"
        },
        {
          "internalType": "bytes",
          "name": "data",
          "type": "bytes"
        }
      ],
      "name": "safeTransferFrom",
      "outputs": [],
      "stateMutability": "nonpayable",
      "type": "function"
    },
    {
      "inputs": [
        {
          "internalType": "address",
          "name": "operator",
          "type": "address"
        },
        {
          "internalType": "bool",
          "name": "approved",
          "type": "bool"
        }
      ],
      "name": "setApprovalForAll",
      "outputs": [],
      "stateMutability": "nonpayable",
      "type": "function"
    },
    {
      "inputs": [
        {
          "internalType": "string",
          "name": "newuri",
          "type": "string"
        }
      ],
      "name": "setURI",
      "outputs": [],
      "stateMutability": "nonpayable",
      "type": "function"
    },
    {
      "inputs": [
        {
          "internalType": "bytes4",
          "name": "interfaceId",
          "type": "bytes4"
        }
      ],
      "name": "supportsInterface",
      "outputs": [
        {
          "internalType": "bool",
          "name": "",
          "type": "bool"
        }
      ],
      "stateMutability": "view",
      "type": "function"
    },
    {
      "inputs": [],
      "name": "totalSupply",
      "outputs": [
        {
          "internalType": "uint256",
          "name": "",
          "type": "uint256"
        }
      ],
      "stateMutability": "view",
      "type": "function"
    },
    {
      "inputs": [
        {
          "internalType": "uint256",
          "name": "id",
          "type": "uint256"
        }
      ],
      "name": "totalSupply",
      "outputs": [
        {
          "internalType": "uint256",
          "name": "",
          "type": "uint256"
        }
      ],
      "stateMutability": "view",
      "type": "function"
    },
    {
      "inputs": [
        {
          "internalType": "address",
          "name": "newOwner",
          "type": "address"
        }
      ],
      "name": "transferOwnership",
      "outputs": [],
      "stateMutability": "nonpayable",
      "type": "function"
    },
    {
      "inputs": [],
      "name": "unpause",
      "outputs": [],
      "stateMutability": "nonpayable",
      "type": "function"
    },
    {
      "inputs": [
        {
          "internalType": "uint256",
          "name": "",
          "type": "uint256"
        }
      ],
      "name": "uri",
      "outputs": [
        {
          "internalType": "string",
          "name": "",
          "type": "string"
        }
      ],
      "stateMutability": "view",
      "type": "function"
    }
  ],
  "bytecode": "0x608060405234801561000f575f5ffd5b50604051611c6a380380611c6a83398101604081905261002e9161010c565b60408051808201909152601f81527f697066733a2f2f516d436f6d706c6578546f6b656e2f7b69647d2e6a736f6e006020820152819061006d816100ab565b506001600160a01b03811661009b57604051631e4fbdf760e01b81525f600482015260240160405180910390fd5b6100a4816100bb565b505061028b565b60026100b782826101d1565b5050565b600380546001600160a01b038381166001600160a01b0319831681179093556040519116919082907f8be0079c531659141344cd1fd0a4f28419497f9722a3daafe3b4186f6b6457e0905f90a35050565b5f6020828403121561011c575f5ffd5b81516001600160a01b0381168114610132575f5ffd5b9392505050565b634e487b7160e01b5f52604160045260245ffd5b600181811c9082168061016157607f821691505b60208210810361017f57634e487b7160e01b5f52602260045260245ffd5b50919050565b601f8211156101cc57805f5260205f20601f840160051c810160208510156101aa5750805b601f840160051c820191505b818110156101c9575f81556001016101b6565b50505b505050565b81516001600160401b038111156101ea576101ea610139565b6101fe816101f8845461014d565b84610185565b6020601f821160018114610230575f83156102195750848201515b5f19600385901b1c1916600184901b1784556101c9565b5f84815260208120601f198516915b8281101561025f578785015182556020948501946001909201910161023f565b508482101561027c57868401515f19600387901b60f8161c191681555b50505050600190811b01905550565b6119d2806102985f395ff3fe608060405234801561000f575f5ffd5b506004361061013c575f3560e01c80636b20c454116100b4578063a22cb46511610079578063a22cb46514610298578063bd85b039146102ab578063e985e9c5146102ca578063f242432a146102dd578063f2fde38b146102f0578063f5298aca14610303575f5ffd5b80636b20c45414610247578063715018a61461025a578063731133e9146102625780638456cb59146102755780638da5cb5b1461027d575f5ffd5b80631f7fdffa116101055780631f7fdffa146101c65780632eb2c2d6146101d95780633f4ba83a146101ec5780634e1273f4146101f45780634f558e79146102145780635c975abb14610235575f5ffd5b8062fdd58e1461014057806301ffc9a71461016657806302fe5305146101895780630e89341c1461019e57806318160ddd146101be575b5f5ffd5b61015361014e3660046110f1565b610316565b6040519081526020015b60405180910390f35b61017961017436600461112e565b61033d565b604051901515815260200161015d565b61019c6101973660046111ec565b61038c565b005b6101b16101ac366004611238565b6103a0565b60405161015d919061127d565b600554610153565b61019c6101d4366004611339565b610432565b61019c6101e73660046113d5565b61044c565b61019c6104b8565b610207610202366004611481565b6104ca565b60405161015d919061157c565b610179610222366004611238565b5f90815260046020526040902054151590565b600354600160a01b900460ff16610179565b61019c61025536600461158e565b610594565b61019c6105f8565b61019c610270366004611600565b610609565b61019c61061d565b6003546040516001600160a01b03909116815260200161015d565b61019c6102a6366004611644565b61062d565b6101536102b9366004611238565b5f9081526004602052604090205490565b6101796102d836600461167d565b61063c565b61019c6102eb3660046116ae565b610669565b61019c6102fe366004611701565b6106c8565b61019c61031136600461171a565b610702565b5f818152602081815260408083206001600160a01b03861684529091529020545b92915050565b5f6001600160e01b03198216636cdb3d1360e11b148061036d57506001600160e01b031982166303a24d0760e21b145b8061033757506301ffc9a760e01b6001600160e01b0319831614610337565b610394610738565b61039d81610765565b50565b6060600280546103af9061174a565b80601f01602080910402602001604051908101604052809291908181526020018280546103db9061174a565b80156104265780601f106103fd57610100808354040283529160200191610426565b820191905f5260205f20905b81548152906001019060200180831161040957829003601f168201915b50505050509050919050565b61043a610738565b61044684848484610771565b50505050565b336001600160a01b038616811480159061046d575061046b868261063c565b155b156104a35760405163711bec9160e11b81526001600160a01b038083166004830152871660248201526044015b60405180910390fd5b6104b086868686866107a7565b505050505050565b6104c0610738565b6104c861080c565b565b606081518351146104fb5781518351604051635b05999160e01b81526004810192909252602482015260440161049a565b5f83516001600160401b0381111561051557610515611150565b60405190808252806020026020018201604052801561053e578160200160208202803683370190505b5090505f5b845181101561058c5760208082028601015161056790602080840287010151610316565b82828151811061057957610579611782565b6020908102919091010152600101610543565b509392505050565b6001600160a01b03831633148015906105b457506105b2833361063c565b155b156105e857335b60405163711bec9160e11b81526001600160a01b039182166004820152908416602482015260440161049a565b6105f3838383610861565b505050565b610600610738565b6104c85f6108a4565b610611610738565b610446848484846108f5565b610625610738565b6104c8610950565b610638338383610993565b5050565b6001600160a01b039182165f90815260016020908152604080832093909416825291909152205460ff1690565b336001600160a01b038616811480159061068a5750610688868261063c565b155b156106bb5760405163711bec9160e11b81526001600160a01b0380831660048301528716602482015260440161049a565b6104b08686868686610a27565b6106d0610738565b6001600160a01b0381166106f957604051631e4fbdf760e01b81525f600482015260240161049a565b61039d816108a4565b6001600160a01b03831633148015906107225750610720833361063c565b155b1561072d57336105bb565b6105f3838383610ab3565b6003546001600160a01b031633146104c85760405163118cdaa760e01b815233600482015260240161049a565b600261063882826117da565b6001600160a01b03841661079a57604051632bfa23e760e11b81525f600482015260240161049a565b6104465f85858585610b15565b6001600160a01b0384166107d057604051632bfa23e760e11b81525f600482015260240161049a565b6001600160a01b0385166107f857604051626a0d4560e21b81525f600482015260240161049a565b6108058585858585610b15565b5050505050565b610814610b68565b6003805460ff60a01b191690557f5db9ee0a495bf2e6ff9c91a7834c1ba4fdd244a5e8aa4e537bd38aeae4b073aa335b6040516001600160a01b03909116815260200160405180910390a1565b6001600160a01b03831661088957604051626a0d4560e21b81525f600482015260240161049a565b6105f3835f848460405180602001604052805f815250610b15565b600380546001600160a01b038381166001600160a01b0319831681179093556040519116919082907f8be0079c531659141344cd1fd0a4f28419497f9722a3daafe3b4186f6b6457e0905f90a35050565b6001600160a01b03841661091e57604051632bfa23e760e11b81525f600482015260240161049a565b604080516001808252602082018690528183019081526060820185905260808201909252906104b05f87848487610b15565b610958610b92565b6003805460ff60a01b1916600160a01b1790557f62e78cea01bee320cd4e420270b5ea74000d11b0c9f74754ebdbfc544b05a2586108443390565b6001600160a01b0382166109bb5760405162ced3e160e81b81525f600482015260240161049a565b6001600160a01b038381165f81815260016020908152604080832094871680845294825291829020805460ff191686151590811790915591519182527f17307eab39ab6107e8899845ad3d59bd9653f200f220920489ca2b5937696c31910160405180910390a3505050565b6001600160a01b038416610a5057604051632bfa23e760e11b81525f600482015260240161049a565b6001600160a01b038516610a7857604051626a0d4560e21b81525f600482015260240161049a565b60408051600180825260208201869052818301908152606082018590526080820190925290610aaa8787848487610b15565b50505050505050565b6001600160a01b038316610adb57604051626a0d4560e21b81525f600482015260240161049a565b604080516001808252602082018590528183019081526060820184905260a082019092525f60808201818152919291610805918791859085905b610b2185858585610bbd565b6001600160a01b038416156108055782513390600103610b5a5760208481015190840151610b53838989858589610bc9565b50506104b0565b6104b0818787878787610cea565b600354600160a01b900460ff166104c857604051638dfc202b60e01b815260040160405180910390fd5b600354600160a01b900460ff16156104c85760405163d93c066560e01b815260040160405180910390fd5b61044684848484610dd1565b6001600160a01b0384163b156104b05760405163f23a6e6160e01b81526001600160a01b0385169063f23a6e6190610c0d9089908990889088908890600401611894565b6020604051808303815f875af1925050508015610c47575060408051601f3d908101601f19168201909252610c44918101906118d8565b60015b610cae573d808015610c74576040519150601f19603f3d011682016040523d82523d5f602084013e610c79565b606091505b5080515f03610ca657604051632bfa23e760e11b81526001600160a01b038616600482015260240161049a565b805160208201fd5b6001600160e01b0319811663f23a6e6160e01b14610aaa57604051632bfa23e760e11b81526001600160a01b038616600482015260240161049a565b6001600160a01b0384163b156104b05760405163bc197c8160e01b81526001600160a01b0385169063bc197c8190610d2e90899089908890889088906004016118f3565b6020604051808303815f875af1925050508015610d68575060408051601f3d908101601f19168201909252610d65918101906118d8565b60015b610d95573d808015610c74576040519150601f19603f3d011682016040523d82523d5f602084013e610c79565b6001600160e01b0319811663bc197c8160e01b14610aaa57604051632bfa23e760e11b81526001600160a01b038616600482015260240161049a565b610ddd84848484610eb8565b6001600160a01b038416610e5a575f805b8351811015610e415760208181028481018201519086018201515f908152600490925260408220805491928392610e26908490611950565b90915550610e3690508184611950565b925050600101610dee565b508060055f828254610e539190611950565b9091555050505b6001600160a01b038316610446575f805b8351811015610ea75760208181028481018201519086018201515f90815260049092526040909120805482900390559190910190600101610e6b565b506005805491909103905550505050565b610ec0610b92565b610446848484848051825114610ef65781518151604051635b05999160e01b81526004810192909252602482015260440161049a565b335f5b8351811015610ff8576020818102858101820151908501909101516001600160a01b03881615610faa575f828152602081815260408083206001600160a01b038c16845290915290205481811015610f84576040516303dee4c560e01b81526001600160a01b038a16600482015260248101829052604481018390526064810184905260840161049a565b5f838152602081815260408083206001600160a01b038d16845290915290209082900390555b6001600160a01b03871615610fee575f828152602081815260408083206001600160a01b038b16845290915281208054839290610fe8908490611950565b90915550505b5050600101610ef9565b5082516001036110785760208301515f906020840151909150856001600160a01b0316876001600160a01b0316846001600160a01b03167fc3d58168c5ae7397731d063d5bbf3d657854427343f4c083240f7aacaa2d0f628585604051611069929190918252602082015260400190565b60405180910390a45050610805565b836001600160a01b0316856001600160a01b0316826001600160a01b03167f4a39dc06d4c0dbc64b70af90fd698a233a518aa5d07e595d983b8c0526c8f7fb86866040516110c792919061196f565b60405180910390a45050505050565b80356001600160a01b03811681146110ec575f5ffd5b919050565b5f5f60408385031215611102575f5ffd5b61110b836110d6565b946020939093013593505050565b6001600160e01b03198116811461039d575f5ffd5b5f6020828403121561113e575f5ffd5b813561114981611119565b9392505050565b634e487b7160e01b5f52604160045260245ffd5b604051601f8201601f191681016001600160401b038111828210171561118c5761118c611150565b604052919050565b5f5f6001600160401b038411156111ad576111ad611150565b50601f8301601f19166020016111c281611164565b9150508281528383830111156111d6575f5ffd5b828260208301375f602084830101529392505050565b5f602082840312156111fc575f5ffd5b81356001600160401b03811115611211575f5ffd5b8201601f81018413611221575f5ffd5b61123084823560208401611194565b949350505050565b5f60208284031215611248575f5ffd5b5035919050565b5f81518084528060208401602086015e5f602082860101526020601f19601f83011685010191505092915050565b602081525f611149602083018461124f565b5f6001600160401b038211156112a7576112a7611150565b5060051b60200190565b5f82601f8301126112c0575f5ffd5b81356112d36112ce8261128f565b611164565b8082825260208201915060208360051b8601019250858311156112f4575f5ffd5b602085015b838110156113115780358352602092830192016112f9565b5095945050505050565b5f82601f83011261132a575f5ffd5b61114983833560208501611194565b5f5f5f5f6080858703121561134c575f5ffd5b611355856110d6565b935060208501356001600160401b0381111561136f575f5ffd5b61137b878288016112b1565b93505060408501356001600160401b03811115611396575f5ffd5b6113a2878288016112b1565b92505060608501356001600160401b038111156113bd575f5ffd5b6113c98782880161131b565b91505092959194509250565b5f5f5f5f5f60a086880312156113e9575f5ffd5b6113f2866110d6565b9450611400602087016110d6565b935060408601356001600160401b0381111561141a575f5ffd5b611426888289016112b1565b93505060608601356001600160401b03811115611441575f5ffd5b61144d888289016112b1565b92505060808601356001600160401b03811115611468575f5ffd5b6114748882890161131b565b9150509295509295909350565b5f5f60408385031215611492575f5ffd5b82356001600160401b038111156114a7575f5ffd5b8301601f810185136114b7575f5ffd5b80356114c56112ce8261128f565b8082825260208201915060208360051b8501019250878311156114e6575f5ffd5b6020840193505b8284101561150f576114fe846110d6565b8252602093840193909101906114ed565b945050505060208301356001600160401b0381111561152c575f5ffd5b611538858286016112b1565b9150509250929050565b5f8151808452602084019350602083015f5b82811015611572578151865260209586019590910190600101611554565b5093949350505050565b602081525f6111496020830184611542565b5f5f5f606084860312156115a0575f5ffd5b6115a9846110d6565b925060208401356001600160401b038111156115c3575f5ffd5b6115cf868287016112b1565b92505060408401356001600160401b038111156115ea575f5ffd5b6115f6868287016112b1565b9150509250925092565b5f5f5f5f60808587031215611613575f5ffd5b61161c856110d6565b9350602085013592506040850135915060608501356001600160401b038111156113bd575f5ffd5b5f5f60408385031215611655575f5ffd5b61165e836110d6565b915060208301358015158114611672575f5ffd5b809150509250929050565b5f5f6040838503121561168e575f5ffd5b611697836110d6565b91506116a5602084016110d6565b90509250929050565b5f5f5f5f5f60a086880312156116c2575f5ffd5b6116cb866110d6565b94506116d9602087016110d6565b9350604086013592506060860135915060808601356001600160401b03811115611468575f5ffd5b5f60208284031215611711575f5ffd5b611149826110d6565b5f5f5f6060848603121561172c575f5ffd5b611735846110d6565b95602085013595506040909401359392505050565b600181811c9082168061175e57607f821691505b60208210810361177c57634e487b7160e01b5f52602260045260245ffd5b50919050565b634e487b7160e01b5f52603260045260245ffd5b601f8211156105f357805f5260205f20601f840160051c810160208510156117bb5750805b601f840160051c820191505b81811015610805575f81556001016117c7565b81516001600160401b038111156117f3576117f3611150565b61180781611801845461174a565b84611796565b6020601f821160018114611839575f83156118225750848201515b5f19600385901b1c1916600184901b178455610805565b5f84815260208120601f198516915b828110156118685787850151825560209485019460019092019101611848565b508482101561188557868401515f19600387901b60f8161c191681555b50505050600190811b01905550565b6001600160a01b03868116825285166020820152604081018490526060810183905260a0608082018190525f906118cd9083018461124f565b979650505050505050565b5f602082840312156118e8575f5ffd5b815161114981611119565b6001600160a01b0386811682528516602082015260a0604082018190525f9061191e90830186611542565b82810360608401526119308186611542565b90508281036080840152611944818561124f565b98975050505050505050565b8082018082111561033757634e487b7160e01b5f52601160045260245ffd5b604081525f6119816040830185611542565b82810360208401526119938185611542565b9594505050505056fea2646970667358221220aacdc793470e986cebd6dc829723f602bc8c4ace29755b072f86403586e32c5964736f6c634300081b0033",
  "linkReferences": {},
  "deployedLinkReferences": {},
  "immutableReferences": {},
  "inputSourceName": "project/contracts/ComplexMultiToken.sol",
  "buildInfoId": "solc-0_8_27-9ad4071e1c7f756d1fd6cf9fc8c6dc33858f9050"
}