{
  "_format": "hh-sol-artifact-1",
  "contractName": "TransparentNFT",
  "sourceName": "contracts/TransparentNFT.sol",
  "abi": [
    {
      "inputs": [],
      "stateMutability": "nonpayable",
      "type": "constructor"
    },
    {
      "inputs": [
        {
          "internalType": "address",
          "name": "sender",
          "type": "address"
        },
        {
          "internalType": "uint256",
          "name": "tokenId",
          "type": "uint256"
        },
        {
          "internalType": "address",
          "name": "owner",
          "type": "address"
        }
      ],
      "name": "ERC721IncorrectOwner",
      "type": "error"
    },
    {
      "inputs": [
        {
          "internalType": "address",
          "name": "operator",
          "type": "address"
        },
        {
          "internalType": "uint256",
          "name": "tokenId",
          "type": "uint256"
        }
      ],
      "name": "ERC721InsufficientApproval",
      "type": "error"
    },
    {
      "inputs": [
        {
          "internalType": "address",
          "name": "approver",
          "type": "address"
        }
      ],
      "name": "ERC721InvalidApprover",
      "type": "error"
    },
    {
      "inputs": [
        {
          "internalType": "address",
          "name": "operator",
          "type": "address"
        }
      ],
      "name": "ERC721InvalidOperator",
      "type": "error"
    },
    {
      "inputs": [
        {
          "internalType": "address",
          "name": "owner",
          "type": "address"
        }
      ],
      "name": "ERC721InvalidOwner",
      "type": "error"
    },
    {
      "inputs": [
        {
          "internalType": "address",
          "name": "receiver",
          "type": "address"
        }
      ],
      "name": "ERC721InvalidReceiver",
      "type": "error"
    },
    {
      "inputs": [
        {
          "internalType": "address",
          "name": "sender",
          "type": "address"
        }
      ],
      "name": "ERC721InvalidSender",
      "type": "error"
    },
    {
      "inputs": [
        {
          "internalType": "uint256",
          "name": "tokenId",
          "type": "uint256"
        }
      ],
      "name": "ERC721NonexistentToken",
      "type": "error"
    },
    {
      "inputs": [],
      "name": "EnforcedPause",
      "type": "error"
    },
    {
      "inputs": [],
      "name": "ExpectedPause",
      "type": "error"
    },
    {
      "inputs": [],
      "name": "InvalidInitialization",
      "type": "error"
    },
    {
      "inputs": [],
      "name": "NotInitializing",
      "type": "error"
    },
    {
      "inputs": [
        {
          "internalType": "address",
          "name": "owner",
          "type": "address"
        }
      ],
      "name": "OwnableInvalidOwner",
      "type": "error"
    },
    {
      "inputs": [
        {
          "internalType": "address",
          "name": "account",
          "type": "address"
        }
      ],
      "name": "OwnableUnauthorizedAccount",
      "type": "error"
    },
    {
      "anonymous": false,
      "inputs": [
        {
          "indexed": true,
          "internalType": "address",
          "name": "owner",
          "type": "address"
        },
        {
          "indexed": true,
          "internalType": "address",
          "name": "approved",
          "type": "address"
        },
        {
          "indexed": true,
          "internalType": "uint256",
          "name": "tokenId",
          "type": "uint256"
        }
      ],
      "name": "Approval",
      "type": "event"
    },
    {
      "anonymous": false,
      "inputs": [
        {
          "indexed": true,
          "internalType": "address",
          "name": "owner",
          "type": "address"
        },
        {
          "indexed": true,
          "internalType": "address",
          "name": "operator",
          "type": "address"
        },
        {
          "indexed": false,
          "internalType": "bool",
          "name": "approved",
          "type": "bool"
        }
      ],
      "name": "ApprovalForAll",
      "type": "event"
    },
    {
      "anonymous": false,
      "inputs": [
        {
          "indexed": false,
          "internalType": "uint64",
          "name": "version",
          "type": "uint64"
        }
      ],
      "name": "Initialized",
      "type": "event"
    },
    {
      "anonymous": false,
      "inputs": [
        {
          "indexed": true,
          "internalType": "address",
          "name": "previousOwner",
          "type": "address"
        },
        {
          "indexed": true,
          "internalType": "address",
          "name": "newOwner",
          "type": "address"
        }
      ],
      "name": "OwnershipTransferred",
      "type": "event"
    },
    {
      "anonymous": false,
      "inputs": [
        {
          "indexed": false,
          "internalType": "address",
          "name": "account",
          "type": "address"
        }
      ],
      "name": "Paused",
      "type": "event"
    },
    {
      "anonymous": false,
      "inputs": [
        {
          "indexed": true,
          "internalType": "address",
          "name": "from",
          "type": "address"
        },
        {
          "indexed": true,
          "internalType": "address",
          "name": "to",
          "type": "address"
        },
        {
          "indexed": true,
          "internalType": "uint256",
          "name": "tokenId",
          "type": "uint256"
        }
      ],
      "name": "Transfer",
      "type": "event"
    },
    {
      "anonymous": false,
      "inputs": [
        {
          "indexed": false,
          "internalType": "address",
          "name": "account",
          "type": "address"
        }
      ],
      "name": "Unpaused",
      "type": "event"
    },
    {
      "inputs": [
        {
          "internalType": "address",
          "name": "to",
          "type": "address"
        },
        {
          "internalType": "uint256",
          "name": "tokenId",
          "type": "uint256"
        }
      ],
      "name": "approve",
      "outputs": [],
      "stateMutability": "nonpayable",
      "type": "function"
    },
    {
      "inputs": [
        {
          "internalType": "address",
          "name": "owner",
          "type": "address"
        }
      ],
      "name": "balanceOf",
      "outputs": [
        {
          "internalType": "uint256",
          "name": "",
          "type": "uint256"
        }
      ],
      "stateMutability": "view",
      "type": "function"
    },
    {
      "inputs": [
        {
          "internalType": "uint256",
          "name": "tokenId",
          "type": "uint256"
        }
      ],
      "name": "burn",
      "outputs": [],
      "stateMutability": "nonpayable",
      "type": "function"
    },
    {
      "inputs": [
        {
          "internalType": "uint256",
          "name": "tokenId",
          "type": "uint256"
        }
      ],
      "name": "getApproved",
      "outputs": [
        {
          "internalType": "address",
          "name": "",
          "type": "address"
        }
      ],
      "stateMutability": "view",
      "type": "function"
    },
    {
      "inputs": [
        {
          "internalType": "address",
          "name": "initialOwner",
          "type": "address"
        }
      ],
      "name": "initialize",
      "outputs": [],
      "stateMutability": "nonpayable",
      "type": "function"
    },
    {
      "inputs": [
        {
          "internalType": "address",
          "name": "owner",
          "type": "address"
        },
        {
          "internalType": "address",
          "name": "operator",
          "type": "address"
        }
      ],
      "name": "isApprovedForAll",
      "outputs": [
        {
          "internalType": "bool",
          "name": "",
          "type": "bool"
        }
      ],
      "stateMutability": "view",
      "type": "function"
    },
    {
      "inputs": [],
      "name": "name",
      "outputs": [
        {
          "internalType": "string",
          "name": "",
          "type": "string"
        }
      ],
      "stateMutability": "view",
      "type": "function"
    },
    {
      "inputs": [],
      "name": "owner",
      "outputs": [
        {
          "internalType": "address",
          "name": "",
          "type": "address"
        }
      ],
      "stateMutability": "view",
      "type": "function"
    },
    {
      "inputs": [
        {
          "internalType": "uint256",
          "name": "tokenId",
          "type": "uint256"
        }
      ],
      "name": "ownerOf",
      "outputs": [
        {
          "internalType": "address",
          "name": "",
          "type": "address"
        }
      ],
      "stateMutability": "view",
      "type": "function"
    },
    {
      "inputs": [],
      "name": "pause",
      "outputs": [],
      "stateMutability": "nonpayable",
      "type": "function"
    },
    {
      "inputs": [],
      "name": "paused",
      "outputs": [
        {
          "internalType": "bool",
          "name": "",
          "type": "bool"
        }
      ],
      "stateMutability": "view",
      "type": "function"
    },
    {
      "inputs": [],
      "name": "renounceOwnership",
      "outputs": [],
      "stateMutability": "nonpayable",
      "type": "function"
    },
    {
      "inputs": [
        {
          "internalType": "address",
          "name": "to",
          "type": "address"
        },
        {
          "internalType": "uint256",
          "name": "tokenId",
          "type": "uint256"
        }
      ],
      "name": "safeMint",
      "outputs": [],
      "stateMutability": "nonpayable",
      "type": "function"
    },
    {
      "inputs": [
        {
          "internalType": "address",
          "name": "from",
          "type": "address"
        },
        {
          "internalType": "address",
          "name": "to",
          "type": "address"
        },
        {
          "internalType": "uint256",
          "name": "tokenId",
          "type": "uint256"
        }
      ],
      "name": "safeTransferFrom",
      "outputs": [],
      "stateMutability": "nonpayable",
      "type": "function"
    },
    {
      "inputs": [
        {
          "internalType": "address",
          "name": "from",
          "type": "address"
        },
        {
          "internalType": "address",
          "name": "to",
          "type": "address"
        },
        {
          "internalType": "uint256",
          "name": "tokenId",
          "type": "uint256"
        },
        {
          "internalType": "bytes",
          "name": "data",
          "type": "bytes"
        }
      ],
      "name": "safeTransferFrom",
      "outputs": [],
      "stateMutability": "nonpayable",
      "type": "function"
    },
    {
      "inputs": [
        {
          "internalType": "address",
          "name": "operator",
          "type": "address"
        },
        {
          "internalType": "bool",
          "name": "approved",
          "type": "bool"
        }
      ],
      "name": "setApprovalForAll",
      "outputs": [],
      "stateMutability": "nonpayable",
      "type": "function"
    },
    {
      "inputs": [
        {
          "internalType": "bytes4",
          "name": "interfaceId",
          "type": "bytes4"
        }
      ],
      "name": "supportsInterface",
      "outputs": [
        {
          "internalType": "bool",
          "name": "",
          "type": "bool"
        }
      ],
      "stateMutability": "view",
      "type": "function"
    },
    {
      "inputs": [],
      "name": "symbol",
      "outputs": [
        {
          "internalType": "string",
          "name": "",
          "type": "string"
        }
      ],
      "stateMutability": "view",
      "type": "function"
    },
    {
      "inputs": [
        {
          "internalType": "uint256",
          "name": "tokenId",
          "type": "uint256"
        }
      ],
      "name": "tokenURI",
      "outputs": [
        {
          "internalType": "string",
          "name": "",
          "type": "string"
        }
      ],
      "stateMutability": "view",
      "type": "function"
    },
    {
      "inputs": [
        {
          "internalType": "address",
          "name": "from",
          "type": "address"
        },
        {
          "internalType": "address",
          "name": "to",
          "type": "address"
        },
        {
          "internalType": "uint256",
          "name": "tokenId",
          "type": "uint256"
        }
      ],
      "name": "transferFrom",
      "outputs": [],
      "stateMutability": "nonpayable",
      "type": "function"
    },
    {
      "inputs": [
        {
          "internalType": "address",
          "name": "newOwner",
          "type": "address"
        }
      ],
      "name": "transferOwnership",
      "outputs": [],
      "stateMutability": "nonpayable",
      "type": "function"
    },
    {
      "inputs": [],
      "name": "unpause",
      "outputs": [],
      "stateMutability": "nonpayable",
      "type": "function"
    }
  ],
  "bytecode": "0x608060405234801561001057600080fd5b5061001961001e565b6100d0565b7ff0c57e16840df040f15088dc2f81fe391c3923bec73e23a9662efc9c229c6a00805468010000000000000000900460ff161561006e5760405163f92ee8a960e01b815260040160405180910390fd5b80546001600160401b03908116146100cd5780546001600160401b0319166001600160401b0390811782556040519081527fc7f505b2f371ae2175ee4913f4499e1f2633a7b5936321eed1cdaeb6115181d29060200160405180910390a15b50565b611793806100df6000396000f3fe608060405234801561001057600080fd5b50600436106101425760003560e01c8063715018a6116100b8578063a22cb4651161007c578063a22cb465146102ac578063b88d4fde146102bf578063c4d66de8146102d2578063c87b56dd146102e5578063e985e9c5146102f8578063f2fde38b1461030b57600080fd5b8063715018a6146102515780638456cb59146102595780638da5cb5b1461026157806395d89b4114610291578063a14481941461029957600080fd5b80633f4ba83a1161010a5780633f4ba83a146101d757806342842e0e146101df57806342966c68146101f25780635c975abb146102055780636352211e1461021d57806370a082311461023057600080fd5b806301ffc9a71461014757806306fdde031461016f578063081812fc14610184578063095ea7b3146101af57806323b872dd146101c4575b600080fd5b61015a6101553660046112bb565b61031e565b60405190151581526020015b60405180910390f35b610177610370565b6040516101669190611328565b61019761019236600461133b565b610414565b6040516001600160a01b039091168152602001610166565b6101c26101bd366004611370565b610429565b005b6101c26101d236600461139a565b610438565b6101c26104c8565b6101c26101ed36600461139a565b6104da565b6101c261020036600461133b565b6104fa565b60008051602061173e8339815191525460ff1661015a565b61019761022b36600461133b565b610506565b61024361023e3660046113d6565b610511565b604051908152602001610166565b6101c261056d565b6101c261057f565b7f9016d09d72d40fdae2fd8ceac6b6234c7706214fd39c1cd1e609a0528c199300546001600160a01b0316610197565b61017761058f565b6101c26102a7366004611370565b6105ce565b6101c26102ba3660046113f1565b6105e0565b6101c26102cd366004611443565b6105eb565b6101c26102e03660046113d6565b610603565b6101776102f336600461133b565b61075b565b61015a61030636600461151f565b6107d0565b6101c26103193660046113d6565b61081d565b60006001600160e01b031982166380ac58cd60e01b148061034f57506001600160e01b03198216635b5e139f60e01b145b8061036a57506301ffc9a760e01b6001600160e01b03198316145b92915050565b60008051602061171e833981519152805460609190819061039090611552565b80601f01602080910402602001604051908101604052809291908181526020018280546103bc90611552565b80156104095780601f106103de57610100808354040283529160200191610409565b820191906000526020600020905b8154815290600101906020018083116103ec57829003601f168201915b505050505091505090565b600061041f8261085b565b5061036a82610893565b6104348282336108cd565b5050565b6001600160a01b03821661046757604051633250574960e11b8152600060048201526024015b60405180910390fd5b60006104748383336108da565b9050836001600160a01b0316816001600160a01b0316146104c2576040516364283d7b60e01b81526001600160a01b038086166004830152602482018490528216604482015260640161045e565b50505050565b6104d06108ef565b6104d861094a565b565b6104f5838383604051806020016040528060008152506105eb565b505050565b610434600082336108da565b600061036a8261085b565b600060008051602061171e8339815191526001600160a01b03831661054c576040516322718ad960e21b81526000600482015260240161045e565b6001600160a01b039092166000908152600390920160205250604090205490565b6105756108ef565b6104d860006109aa565b6105876108ef565b6104d8610a1b565b7f80bb2b638cc20bc4d0a60d66940f3ab4a00c1d7b313497ca82fb0b4ab0079301805460609160008051602061171e8339815191529161039090611552565b6105d66108ef565b6104348282610a64565b610434338383610a7e565b6105f6848484610438565b6104c23385858585610b2f565b600061060d610c58565b805490915060ff600160401b820416159067ffffffffffffffff166000811580156106355750825b905060008267ffffffffffffffff1660011480156106525750303b155b905081158015610660575080155b1561067e5760405163f92ee8a960e01b815260040160405180910390fd5b845467ffffffffffffffff1916600117855583156106a857845460ff60401b1916600160401b1785555b6106f46040518060400160405280600e81526020016d151c985b9cdc185c995b9d13919560921b815250604051806040016040528060048152602001631513919560e21b815250610c81565b6106fc610c93565b61070586610c9b565b61070d610c93565b831561075357845460ff60401b19168555604051600181527fc7f505b2f371ae2175ee4913f4499e1f2633a7b5936321eed1cdaeb6115181d29060200160405180910390a15b505050505050565b60606107668261085b565b50600061077e60408051602081019091526000815290565b9050600081511161079e57604051806020016040528060008152506107c9565b806107a884610cac565b6040516020016107b992919061158c565b6040516020818303038152906040525b9392505050565b6001600160a01b0391821660009081527f80bb2b638cc20bc4d0a60d66940f3ab4a00c1d7b313497ca82fb0b4ab00793056020908152604080832093909416825291909152205460ff1690565b6108256108ef565b6001600160a01b03811661084f57604051631e4fbdf760e01b81526000600482015260240161045e565b610858816109aa565b50565b60008061086783610d3f565b90506001600160a01b03811661036a57604051637e27328960e01b81526004810184905260240161045e565b60009081527f80bb2b638cc20bc4d0a60d66940f3ab4a00c1d7b313497ca82fb0b4ab007930460205260409020546001600160a01b031690565b6104f58383836001610d79565b60006108e7848484610e8f565b949350505050565b336109217f9016d09d72d40fdae2fd8ceac6b6234c7706214fd39c1cd1e609a0528c199300546001600160a01b031690565b6001600160a01b0316146104d85760405163118cdaa760e01b815233600482015260240161045e565b610952610ea4565b60008051602061173e833981519152805460ff191681557f5db9ee0a495bf2e6ff9c91a7834c1ba4fdd244a5e8aa4e537bd38aeae4b073aa335b6040516001600160a01b03909116815260200160405180910390a150565b7f9016d09d72d40fdae2fd8ceac6b6234c7706214fd39c1cd1e609a0528c19930080546001600160a01b031981166001600160a01b03848116918217845560405192169182907f8be0079c531659141344cd1fd0a4f28419497f9722a3daafe3b4186f6b6457e090600090a3505050565b610a23610ed4565b60008051602061173e833981519152805460ff191660011781557f62e78cea01bee320cd4e420270b5ea74000d11b0c9f74754ebdbfc544b05a2583361098c565b610434828260405180602001604052806000815250610f05565b60008051602061171e8339815191526001600160a01b038316610abf57604051630b61174360e31b81526001600160a01b038416600482015260240161045e565b6001600160a01b038481166000818152600584016020908152604080832094881680845294825291829020805460ff191687151590811790915591519182527f17307eab39ab6107e8899845ad3d59bd9653f200f220920489ca2b5937696c31910160405180910390a350505050565b6001600160a01b0383163b15610c5157604051630a85bd0160e11b81526001600160a01b0384169063150b7a0290610b719088908890879087906004016115bb565b6020604051808303816000875af1925050508015610bac575060408051601f3d908101601f19168201909252610ba9918101906115f8565b60015b610c15573d808015610bda576040519150601f19603f3d011682016040523d82523d6000602084013e610bdf565b606091505b508051600003610c0d57604051633250574960e11b81526001600160a01b038516600482015260240161045e565b805181602001fd5b6001600160e01b03198116630a85bd0160e11b1461075357604051633250574960e11b81526001600160a01b038516600482015260240161045e565b5050505050565b6000807ff0c57e16840df040f15088dc2f81fe391c3923bec73e23a9662efc9c229c6a0061036a565b610c89610f1d565b6104348282610f42565b6104d8610f1d565b610ca3610f1d565b61085881610f73565b60606000610cb983610f7b565b600101905060008167ffffffffffffffff811115610cd957610cd961142d565b6040519080825280601f01601f191660200182016040528015610d03576020820181803683370190505b5090508181016020015b600019016f181899199a1a9b1b9c1cb0b131b232b360811b600a86061a8153600a8504945084610d0d57509392505050565b60009081527f80bb2b638cc20bc4d0a60d66940f3ab4a00c1d7b313497ca82fb0b4ab007930260205260409020546001600160a01b031690565b60008051602061171e8339815191528180610d9c57506001600160a01b03831615155b15610e5e576000610dac8561085b565b90506001600160a01b03841615801590610dd85750836001600160a01b0316816001600160a01b031614155b8015610deb5750610de981856107d0565b155b15610e145760405163a9fbf51f60e01b81526001600160a01b038516600482015260240161045e565b8215610e5c5784866001600160a01b0316826001600160a01b03167f8c5be1e5ebec7d5bd14f71427d1e84f3dd0314c0f7b2291e5b200ac8c7c3b92560405160405180910390a45b505b600093845260040160205250506040902080546001600160a01b0319166001600160a01b0392909216919091179055565b6000610e99610ed4565b6108e7848484611053565b60008051602061173e8339815191525460ff166104d857604051638dfc202b60e01b815260040160405180910390fd5b60008051602061173e8339815191525460ff16156104d85760405163d93c066560e01b815260040160405180910390fd5b610f0f838361115d565b6104f5336000858585610b2f565b610f256111c2565b6104d857604051631afcd79f60e31b815260040160405180910390fd5b610f4a610f1d565b60008051602061171e83398151915280610f64848261165d565b50600181016104c2838261165d565b610825610f1d565b60008072184f03e93ff9f4daa797ed6e38ed64bf6a1f0160401b8310610fba5772184f03e93ff9f4daa797ed6e38ed64bf6a1f0160401b830492506040015b6d04ee2d6d415b85acef81000000008310610fe6576d04ee2d6d415b85acef8100000000830492506020015b662386f26fc10000831061100457662386f26fc10000830492506010015b6305f5e100831061101c576305f5e100830492506008015b612710831061103057612710830492506004015b60648310611042576064830492506002015b600a831061036a5760010192915050565b600060008051602061171e8339815191528161106e85610d3f565b90506001600160a01b0384161561108a5761108a8185876111dc565b6001600160a01b038116156110ca576110a7600086600080610d79565b6001600160a01b0381166000908152600383016020526040902080546000190190555b6001600160a01b038616156110fb576001600160a01b03861660009081526003830160205260409020805460010190555b600085815260028301602052604080822080546001600160a01b0319166001600160a01b038a811691821790925591518893918516917fddf252ad1be2c89b69c2b068fc378daa952ba7f163c4a11628f55a4df523b3ef91a495945050505050565b6001600160a01b03821661118757604051633250574960e11b81526000600482015260240161045e565b6000611195838360006108da565b90506001600160a01b038116156104f5576040516339e3563760e11b81526000600482015260240161045e565b60006111cc610c58565b54600160401b900460ff16919050565b6111e7838383611240565b6104f5576001600160a01b03831661121557604051637e27328960e01b81526004810182905260240161045e565b60405163177e802f60e01b81526001600160a01b03831660048201526024810182905260440161045e565b60006001600160a01b038316158015906108e75750826001600160a01b0316846001600160a01b0316148061127a575061127a84846107d0565b806108e75750826001600160a01b031661129383610893565b6001600160a01b031614949350505050565b6001600160e01b03198116811461085857600080fd5b6000602082840312156112cd57600080fd5b81356107c9816112a5565b60005b838110156112f35781810151838201526020016112db565b50506000910152565b600081518084526113148160208601602086016112d8565b601f01601f19169290920160200192915050565b6020815260006107c960208301846112fc565b60006020828403121561134d57600080fd5b5035919050565b80356001600160a01b038116811461136b57600080fd5b919050565b6000806040838503121561138357600080fd5b61138c83611354565b946020939093013593505050565b6000806000606084860312156113af57600080fd5b6113b884611354565b92506113c660208501611354565b9150604084013590509250925092565b6000602082840312156113e857600080fd5b6107c982611354565b6000806040838503121561140457600080fd5b61140d83611354565b91506020830135801515811461142257600080fd5b809150509250929050565b634e487b7160e01b600052604160045260246000fd5b6000806000806080858703121561145957600080fd5b61146285611354565b935061147060208601611354565b925060408501359150606085013567ffffffffffffffff8082111561149457600080fd5b818701915087601f8301126114a857600080fd5b8135818111156114ba576114ba61142d565b604051601f8201601f19908116603f011681019083821181831017156114e2576114e261142d565b816040528281528a60208487010111156114fb57600080fd5b82602086016020830137600060208483010152809550505050505092959194509250565b6000806040838503121561153257600080fd5b61153b83611354565b915061154960208401611354565b90509250929050565b600181811c9082168061156657607f821691505b60208210810361158657634e487b7160e01b600052602260045260246000fd5b50919050565b6000835161159e8184602088016112d8565b8351908301906115b28183602088016112d8565b01949350505050565b6001600160a01b03858116825284166020820152604081018390526080606082018190526000906115ee908301846112fc565b9695505050505050565b60006020828403121561160a57600080fd5b81516107c9816112a5565b601f8211156104f5576000816000526020600020601f850160051c8101602086101561163e5750805b601f850160051c820191505b818110156107535782815560010161164a565b815167ffffffffffffffff8111156116775761167761142d565b61168b816116858454611552565b84611615565b602080601f8311600181146116c057600084156116a85750858301515b600019600386901b1c1916600185901b178555610753565b600085815260208120601f198616915b828110156116ef578886015182559484019460019091019084016116d0565b508582101561170d5787850151600019600388901b60f8161c191681555b5050505050600190811b0190555056fe80bb2b638cc20bc4d0a60d66940f3ab4a00c1d7b313497ca82fb0b4ab0079300cd5ed15c6e187e77e9aee88184c21f4f2182ab5827cb3b7e07fbedcd63f03300a2646970667358221220f9df422950402a819ceb0eb88985e942133d270e4c62ddff5465b3ce80bf713e64736f6c63430008160033",
  "linkReferences": {},
  "deployedLinkReferences": {}
}