{
  "_format": "hh-sol-artifact-1",
  "contractName": "TransparentMultiToken",
  "sourceName": "contracts/TransparentMultiToken.sol",
  "abi": [
    {
      "inputs": [],
      "stateMutability": "nonpayable",
      "type": "constructor"
    },
    {
      "inputs": [
        {
          "internalType": "address",
          "name": "sender",
          "type": "address"
        },
        {
          "internalType": "uint256",
          "name": "balance",
          "type": "uint256"
        },
        {
          "internalType": "uint256",
          "name": "needed",
          "type": "uint256"
        },
        {
          "internalType": "uint256",
          "name": "tokenId",
          "type": "uint256"
        }
      ],
      "name": "ERC1155InsufficientBalance",
      "type": "error"
    },
    {
      "inputs": [
        {
          "internalType": "address",
          "name": "approver",
          "type": "address"
        }
      ],
      "name": "ERC1155InvalidApprover",
      "type": "error"
    },
    {
      "inputs": [
        {
          "internalType": "uint256",
          "name": "idsLength",
          "type": "uint256"
        },
        {
          "internalType": "uint256",
          "name": "valuesLength",
          "type": "uint256"
        }
      ],
      "name": "ERC1155InvalidArrayLength",
      "type": "error"
    },
    {
      "inputs": [
        {
          "internalType": "address",
          "name": "operator",
          "type": "address"
        }
      ],
      "name": "ERC1155InvalidOperator",
      "type": "error"
    },
    {
      "inputs": [
        {
          "internalType": "address",
          "name": "receiver",
          "type": "address"
        }
      ],
      "name": "ERC1155InvalidReceiver",
      "type": "error"
    },
    {
      "inputs": [
        {
          "internalType": "address",
          "name": "sender",
          "type": "address"
        }
      ],
      "name": "ERC1155InvalidSender",
      "type": "error"
    },
    {
      "inputs": [
        {
          "internalType": "address",
          "name": "operator",
          "type": "address"
        },
        {
          "internalType": "address",
          "name": "owner",
          "type": "address"
        }
      ],
      "name": "ERC1155MissingApprovalForAll",
      "type": "error"
    },
    {
      "inputs": [],
      "name": "InvalidInitialization",
      "type": "error"
    },
    {
      "inputs": [],
      "name": "NotInitializing",
      "type": "error"
    },
    {
      "inputs": [
        {
          "internalType": "address",
          "name": "owner",
          "type": "address"
        }
      ],
      "name": "OwnableInvalidOwner",
      "type": "error"
    },
    {
      "inputs": [
        {
          "internalType": "address",
          "name": "account",
          "type": "address"
        }
      ],
      "name": "OwnableUnauthorizedAccount",
      "type": "error"
    },
    {
      "anonymous": false,
      "inputs": [
        {
          "indexed": true,
          "internalType": "address",
          "name": "account",
          "type": "address"
        },
        {
          "indexed": true,
          "internalType": "address",
          "name": "operator",
          "type": "address"
        },
        {
          "indexed": false,
          "internalType": "bool",
          "name": "approved",
          "type": "bool"
        }
      ],
      "name": "ApprovalForAll",
      "type": "event"
    },
    {
      "anonymous": false,
      "inputs": [
        {
          "indexed": false,
          "internalType": "uint64",
          "name": "version",
          "type": "uint64"
        }
      ],
      "name": "Initialized",
      "type": "event"
    },
    {
      "anonymous": false,
      "inputs": [
        {
          "indexed": true,
          "internalType": "address",
          "name": "previousOwner",
          "type": "address"
        },
        {
          "indexed": true,
          "internalType": "address",
          "name": "newOwner",
          "type": "address"
        }
      ],
      "name": "OwnershipTransferred",
      "type": "event"
    },
    {
      "anonymous": false,
      "inputs": [
        {
          "indexed": true,
          "internalType": "address",
          "name": "operator",
          "type": "address"
        },
        {
          "indexed": true,
          "internalType": "address",
          "name": "from",
          "type": "address"
        },
        {
          "indexed": true,
          "internalType": "address",
          "name": "to",
          "type": "address"
        },
        {
          "indexed": false,
          "internalType": "uint256[]",
          "name": "ids",
          "type": "uint256[]"
        },
        {
          "indexed": false,
          "internalType": "uint256[]",
          "name": "values",
          "type": "uint256[]"
        }
      ],
      "name": "TransferBatch",
      "type": "event"
    },
    {
      "anonymous": false,
      "inputs": [
        {
          "indexed": true,
          "internalType": "address",
          "name": "operator",
          "type": "address"
        },
        {
          "indexed": true,
          "internalType": "address",
          "name": "from",
          "type": "address"
        },
        {
          "indexed": true,
          "internalType": "address",
          "name": "to",
          "type": "address"
        },
        {
          "indexed": false,
          "internalType": "uint256",
          "name": "id",
          "type": "uint256"
        },
        {
          "indexed": false,
          "internalType": "uint256",
          "name": "value",
          "type": "uint256"
        }
      ],
      "name": "TransferSingle",
      "type": "event"
    },
    {
      "anonymous": false,
      "inputs": [
        {
          "indexed": false,
          "internalType": "string",
          "name": "value",
          "type": "string"
        },
        {
          "indexed": true,
          "internalType": "uint256",
          "name": "id",
          "type": "uint256"
        }
      ],
      "name": "URI",
      "type": "event"
    },
    {
      "inputs": [
        {
          "internalType": "address",
          "name": "account",
          "type": "address"
        },
        {
          "internalType": "uint256",
          "name": "id",
          "type": "uint256"
        }
      ],
      "name": "balanceOf",
      "outputs": [
        {
          "internalType": "uint256",
          "name": "",
          "type": "uint256"
        }
      ],
      "stateMutability": "view",
      "type": "function"
    },
    {
      "inputs": [
        {
          "internalType": "address[]",
          "name": "accounts",
          "type": "address[]"
        },
        {
          "internalType": "uint256[]",
          "name": "ids",
          "type": "uint256[]"
        }
      ],
      "name": "balanceOfBatch",
      "outputs": [
        {
          "internalType": "uint256[]",
          "name": "",
          "type": "uint256[]"
        }
      ],
      "stateMutability": "view",
      "type": "function"
    },
    {
      "inputs": [
        {
          "internalType": "address",
          "name": "account",
          "type": "address"
        },
        {
          "internalType": "uint256",
          "name": "id",
          "type": "uint256"
        },
        {
          "internalType": "uint256",
          "name": "value",
          "type": "uint256"
        }
      ],
      "name": "burn",
      "outputs": [],
      "stateMutability": "nonpayable",
      "type": "function"
    },
    {
      "inputs": [
        {
          "internalType": "address",
          "name": "account",
          "type": "address"
        },
        {
          "internalType": "uint256[]",
          "name": "ids",
          "type": "uint256[]"
        },
        {
          "internalType": "uint256[]",
          "name": "values",
          "type": "uint256[]"
        }
      ],
      "name": "burnBatch",
      "outputs": [],
      "stateMutability": "nonpayable",
      "type": "function"
    },
    {
      "inputs": [
        {
          "internalType": "uint256",
          "name": "id",
          "type": "uint256"
        }
      ],
      "name": "exists",
      "outputs": [
        {
          "internalType": "bool",
          "name": "",
          "type": "bool"
        }
      ],
      "stateMutability": "view",
      "type": "function"
    },
    {
      "inputs": [
        {
          "internalType": "address",
          "name": "initialOwner",
          "type": "address"
        }
      ],
      "name": "initialize",
      "outputs": [],
      "stateMutability": "nonpayable",
      "type": "function"
    },
    {
      "inputs": [
        {
          "internalType": "address",
          "name": "account",
          "type": "address"
        },
        {
          "internalType": "address",
          "name": "operator",
          "type": "address"
        }
      ],
      "name": "isApprovedForAll",
      "outputs": [
        {
          "internalType": "bool",
          "name": "",
          "type": "bool"
        }
      ],
      "stateMutability": "view",
      "type": "function"
    },
    {
      "inputs": [
        {
          "internalType": "address",
          "name": "account",
          "type": "address"
        },
        {
          "internalType": "uint256",
          "name": "id",
          "type": "uint256"
        },
        {
          "internalType": "uint256",
          "name": "amount",
          "type": "uint256"
        },
        {
          "internalType": "bytes",
          "name": "data",
          "type": "bytes"
        }
      ],
      "name": "mint",
      "outputs": [],
      "stateMutability": "nonpayable",
      "type": "function"
    },
    {
      "inputs": [
        {
          "internalType": "address",
          "name": "to",
          "type": "address"
        },
        {
          "internalType": "uint256[]",
          "name": "ids",
          "type": "uint256[]"
        },
        {
          "internalType": "uint256[]",
          "name": "amounts",
          "type": "uint256[]"
        },
        {
          "internalType": "bytes",
          "name": "data",
          "type": "bytes"
        }
      ],
      "name": "mintBatch",
      "outputs": [],
      "stateMutability": "nonpayable",
      "type": "function"
    },
    {
      "inputs": [],
      "name": "owner",
      "outputs": [
        {
          "internalType": "address",
          "name": "",
          "type": "address"
        }
      ],
      "stateMutability": "view",
      "type": "function"
    },
    {
      "inputs": [],
      "name": "renounceOwnership",
      "outputs": [],
      "stateMutability": "nonpayable",
      "type": "function"
    },
    {
      "inputs": [
        {
          "internalType": "address",
          "name": "from",
          "type": "address"
        },
        {
          "internalType": "address",
          "name": "to",
          "type": "address"
        },
        {
          "internalType": "uint256[]",
          "name": "ids",
          "type": "uint256[]"
        },
        {
          "internalType": "uint256[]",
          "name": "values",
          "type": "uint256[]"
        },
        {
          "internalType": "bytes",
          "name": "data",
          "type": "bytes"
        }
      ],
      "name": "safeBatchTransferFrom",
      "outputs": [],
      "stateMutability": "nonpayable",
      "type": "function"
    },
    {
      "inputs": [
        {
          "internalType": "address",
          "name": "from",
          "type": "address"
        },
        {
          "internalType": "address",
          "name": "to",
          "type": "address"
        },
        {
          "internalType": "uint256",
          "name": "id",
          "type": "uint256"
        },
        {
          "internalType": "uint256",
          "name": "value",
          "type": "uint256"
        },
        {
          "internalType": "bytes",
          "name": "data",
          "type": "bytes"
        }
      ],
      "name": "safeTransferFrom",
      "outputs": [],
      "stateMutability": "nonpayable",
      "type": "function"
    },
    {
      "inputs": [
        {
          "internalType": "address",
          "name": "operator",
          "type": "address"
        },
        {
          "internalType": "bool",
          "name": "approved",
          "type": "bool"
        }
      ],
      "name": "setApprovalForAll",
      "outputs": [],
      "stateMutability": "nonpayable",
      "type": "function"
    },
    {
      "inputs": [
        {
          "internalType": "string",
          "name": "newuri",
          "type": "string"
        }
      ],
      "name": "setURI",
      "outputs": [],
      "stateMutability": "nonpayable",
      "type": "function"
    },
    {
      "inputs": [
        {
          "internalType": "bytes4",
          "name": "interfaceId",
          "type": "bytes4"
        }
      ],
      "name": "supportsInterface",
      "outputs": [
        {
          "internalType": "bool",
          "name": "",
          "type": "bool"
        }
      ],
      "stateMutability": "view",
      "type": "function"
    },
    {
      "inputs": [],
      "name": "totalSupply",
      "outputs": [
        {
          "internalType": "uint256",
          "name": "",
          "type": "uint256"
        }
      ],
      "stateMutability": "view",
      "type": "function"
    },
    {
      "inputs": [
        {
          "internalType": "uint256",
          "name": "id",
          "type": "uint256"
        }
      ],
      "name": "totalSupply",
      "outputs": [
        {
          "internalType": "uint256",
          "name": "",
          "type": "uint256"
        }
      ],
      "stateMutability": "view",
      "type": "function"
    },
    {
      "inputs": [
        {
          "internalType": "address",
          "name": "newOwner",
          "type": "address"
        }
      ],
      "name": "transferOwnership",
      "outputs": [],
      "stateMutability": "nonpayable",
      "type": "function"
    },
    {
      "inputs": [
        {
          "internalType": "uint256",
          "name": "",
          "type": "uint256"
        }
      ],
      "name": "uri",
      "outputs": [
        {
          "internalType": "string",
          "name": "",
          "type": "string"
        }
      ],
      "stateMutability": "view",
      "type": "function"
    }
  ],
  "bytecode": "0x608060405234801561001057600080fd5b5061001961001e565b6100d0565b7ff0c57e16840df040f15088dc2f81fe391c3923bec73e23a9662efc9c229c6a00805468010000000000000000900460ff161561006e5760405163f92ee8a960e01b815260040160405180910390fd5b80546001600160401b03908116146100cd5780546001600160401b0319166001600160401b0390811782556040519081527fc7f505b2f371ae2175ee4913f4499e1f2633a7b5936321eed1cdaeb6115181d29060200160405180910390a15b50565b611ccf806100df6000396000f3fe608060405234801561001057600080fd5b506004361061012b5760003560e01c8063715018a6116100ad578063c4d66de811610071578063c4d66de814610316578063e985e9c514610329578063f242432a1461033c578063f2fde38b1461034f578063f5298aca1461036257600080fd5b8063715018a61461026f578063731133e9146102775780638da5cb5b1461028a578063a22cb465146102c4578063bd85b039146102d757600080fd5b80631f7fdffa116100f45780631f7fdffa146101d55780632eb2c2d6146101e85780634e1273f4146101fb5780634f558e791461021b5780636b20c4541461025c57600080fd5b8062fdd58e1461013057806301ffc9a71461015657806302fe5305146101795780630e89341c1461018e57806318160ddd146101ae575b600080fd5b61014361013e366004611367565b610375565b6040519081526020015b60405180910390f35b6101696101643660046113a7565b6103ac565b604051901515815260200161014d565b61018c610187366004611468565b6103fc565b005b6101a161019c3660046114b8565b610410565b60405161014d9190611517565b7f4a593662ee04d27b6a00ebb31be7fe0c102c2ade82a7c5d764f2df05dc4e280154610143565b61018c6101e33660046115dc565b6104d5565b61018c6101f6366004611674565b6104ef565b61020e61020936600461171d565b61055b565b60405161014d9190611818565b6101696102293660046114b8565b60009081527f4a593662ee04d27b6a00ebb31be7fe0c102c2ade82a7c5d764f2df05dc4e28006020526040902054151590565b61018c61026a36600461182b565b610627565b61018c61068b565b61018c61028536600461189e565b61069f565b7f9016d09d72d40fdae2fd8ceac6b6234c7706214fd39c1cd1e609a0528c199300546040516001600160a01b03909116815260200161014d565b61018c6102d23660046118f2565b6106b3565b6101436102e53660046114b8565b60009081527f4a593662ee04d27b6a00ebb31be7fe0c102c2ade82a7c5d764f2df05dc4e2800602052604090205490565b61018c61032436600461192e565b6106c2565b610169610337366004611949565b610809565b61018c61034a36600461197c565b610856565b61018c61035d36600461192e565b6108b5565b61018c6103703660046119e0565b6108f0565b6000818152600080516020611c7a833981519152602090815260408083206001600160a01b03861684529091529020545b92915050565b60006001600160e01b03198216636cdb3d1360e11b14806103dd57506001600160e01b031982166303a24d0760e21b145b806103a657506301ffc9a760e01b6001600160e01b03198316146103a6565b610404610926565b61040d81610981565b50565b7f88be536d5240c274a3b1d3a1be54482fd9caa294f08c62a7cde569f49a3c45028054606091600080516020611c7a8339815191529161044f90611a13565b80601f016020809104026020016040519081016040528092919081815260200182805461047b90611a13565b80156104c85780601f1061049d576101008083540402835291602001916104c8565b820191906000526020600020905b8154815290600101906020018083116104ab57829003601f168201915b5050505050915050919050565b6104dd610926565b6104e9848484846109bb565b50505050565b336001600160a01b0386168114801590610510575061050e8682610809565b155b156105465760405163711bec9160e11b81526001600160a01b038083166004830152871660248201526044015b60405180910390fd5b61055386868686866109f3565b505050505050565b6060815183511461058c5781518351604051635b05999160e01b81526004810192909252602482015260440161053d565b600083516001600160401b038111156105a7576105a76113cb565b6040519080825280602002602001820160405280156105d0578160200160208202803683370190505b50905060005b845181101561061f576020808202860101516105fa90602080840287010151610375565b82828151811061060c5761060c611a4d565b60209081029190910101526001016105d6565b509392505050565b6001600160a01b038316331480159061064757506106458333610809565b155b1561067b57335b60405163711bec9160e11b81526001600160a01b039182166004820152908416602482015260440161053d565b610686838383610a5a565b505050565b610693610926565b61069d6000610aa0565b565b6106a7610926565b6104e984848484610b11565b6106be338383610b6e565b5050565b60006106cc610c16565b805490915060ff600160401b82041615906001600160401b03166000811580156106f35750825b90506000826001600160401b0316600114801561070f5750303b155b90508115801561071d575080155b1561073b5760405163f92ee8a960e01b815260040160405180910390fd5b845467ffffffffffffffff19166001178555831561076557845460ff60401b1916600160401b1785555b6107a36040518060400160405280601e81526020017f697066733a2f2f516d5472616e73706172656e742f7b69647d2e6a736f6e0000815250610c3f565b6107ac86610c50565b6107b4610c61565b6107bc610c61565b831561055357845460ff60401b19168555604051600181527fc7f505b2f371ae2175ee4913f4499e1f2633a7b5936321eed1cdaeb6115181d29060200160405180910390a1505050505050565b6001600160a01b0391821660009081527f88be536d5240c274a3b1d3a1be54482fd9caa294f08c62a7cde569f49a3c45016020908152604080832093909416825291909152205460ff1690565b336001600160a01b038616811480159061087757506108758682610809565b155b156108a85760405163711bec9160e11b81526001600160a01b0380831660048301528716602482015260440161053d565b6105538686868686610c69565b6108bd610926565b6001600160a01b0381166108e757604051631e4fbdf760e01b81526000600482015260240161053d565b61040d81610aa0565b6001600160a01b0383163314801590610910575061090e8333610809565b155b1561091b573361064e565b610686838383610cf7565b336109587f9016d09d72d40fdae2fd8ceac6b6234c7706214fd39c1cd1e609a0528c199300546001600160a01b031690565b6001600160a01b03161461069d5760405163118cdaa760e01b815233600482015260240161053d565b600080516020611c7a8339815191527f88be536d5240c274a3b1d3a1be54482fd9caa294f08c62a7cde569f49a3c45026106868382611aab565b6001600160a01b0384166109e557604051632bfa23e760e11b81526000600482015260240161053d565b6104e9600085858585610d5b565b6001600160a01b038416610a1d57604051632bfa23e760e11b81526000600482015260240161053d565b6001600160a01b038516610a4657604051626a0d4560e21b81526000600482015260240161053d565b610a538585858585610d5b565b5050505050565b6001600160a01b038316610a8357604051626a0d4560e21b81526000600482015260240161053d565b610686836000848460405180602001604052806000815250610d5b565b7f9016d09d72d40fdae2fd8ceac6b6234c7706214fd39c1cd1e609a0528c19930080546001600160a01b031981166001600160a01b03848116918217845560405192169182907f8be0079c531659141344cd1fd0a4f28419497f9722a3daafe3b4186f6b6457e090600090a3505050565b6001600160a01b038416610b3b57604051632bfa23e760e11b81526000600482015260240161053d565b60408051600180825260208201869052818301908152606082018590526080820190925290610553600087848487610d5b565b600080516020611c7a8339815191526001600160a01b038316610ba65760405162ced3e160e81b81526000600482015260240161053d565b6001600160a01b038481166000818152600184016020908152604080832094881680845294825291829020805460ff191687151590811790915591519182527f17307eab39ab6107e8899845ad3d59bd9653f200f220920489ca2b5937696c31910160405180910390a350505050565b6000807ff0c57e16840df040f15088dc2f81fe391c3923bec73e23a9662efc9c229c6a006103a6565b610c47610dae565b61040d81610dd3565b610c58610dae565b61040d81610ddb565b61069d610dae565b6001600160a01b038416610c9357604051632bfa23e760e11b81526000600482015260240161053d565b6001600160a01b038516610cbc57604051626a0d4560e21b81526000600482015260240161053d565b60408051600180825260208201869052818301908152606082018590526080820190925290610cee8787848487610d5b565b50505050505050565b6001600160a01b038316610d2057604051626a0d4560e21b81526000600482015260240161053d565b604080516001808252602082018590528183019081526060820184905260a08201909252600060808201818152919291610a53918791859085905b610d6785858585610de3565b6001600160a01b03841615610a535782513390600103610da05760208481015190840151610d99838989858589610def565b5050610553565b610553818787878787610f13565b610db6610ffc565b61069d57604051631afcd79f60e31b815260040160405180910390fd5b610404610dae565b6108bd610dae565b6104e984848484611016565b6001600160a01b0384163b156105535760405163f23a6e6160e01b81526001600160a01b0385169063f23a6e6190610e339089908990889088908890600401611b6a565b6020604051808303816000875af1925050508015610e6e575060408051601f3d908101601f19168201909252610e6b91810190611baf565b60015b610ed7573d808015610e9c576040519150601f19603f3d011682016040523d82523d6000602084013e610ea1565b606091505b508051600003610ecf57604051632bfa23e760e11b81526001600160a01b038616600482015260240161053d565b805181602001fd5b6001600160e01b0319811663f23a6e6160e01b14610cee57604051632bfa23e760e11b81526001600160a01b038616600482015260240161053d565b6001600160a01b0384163b156105535760405163bc197c8160e01b81526001600160a01b0385169063bc197c8190610f579089908990889088908890600401611bcc565b6020604051808303816000875af1925050508015610f92575060408051601f3d908101601f19168201909252610f8f91810190611baf565b60015b610fc0573d808015610e9c576040519150601f19603f3d011682016040523d82523d6000602084013e610ea1565b6001600160e01b0319811663bc197c8160e01b14610cee57604051632bfa23e760e11b81526001600160a01b038616600482015260240161053d565b6000611006610c16565b54600160401b900460ff16919050565b7f4a593662ee04d27b6a00ebb31be7fe0c102c2ade82a7c5d764f2df05dc4e280061104385858585611126565b6001600160a01b0385166110c4576000805b84518110156110a85760208181028581018201519087018201516000908152918590526040822080549192839261108d908490611c2a565b9091555061109d90508184611c2a565b925050600101611055565b50808260010160008282546110bd9190611c2a565b9091555050505b6001600160a01b038416610a53576000805b845181101561111257602081810285810182015190870182015160009081529185905260409091208054829003905591909101906001016110d6565b506001820180549190910390555050505050565b80518251600080516020611c7a83398151915291146111655782518251604051635b05999160e01b81526004810192909252602482015260440161053d565b3360005b845181101561126b576020818102868101820151908601909101516001600160a01b0389161561121c576000828152602086815260408083206001600160a01b038d168452909152902054818110156111f5576040516303dee4c560e01b81526001600160a01b038b16600482015260248101829052604481018390526064810184905260840161053d565b6000838152602087815260408083206001600160a01b038e16845290915290209082900390555b6001600160a01b03881615611261576000828152602086815260408083206001600160a01b038c1684529091528120805483929061125b908490611c2a565b90915550505b5050600101611169565b5083516001036112ec5760208401516000906020850151909150866001600160a01b0316886001600160a01b0316846001600160a01b03167fc3d58168c5ae7397731d063d5bbf3d657854427343f4c083240f7aacaa2d0f6285856040516112dd929190918252602082015260400190565b60405180910390a45050610553565b846001600160a01b0316866001600160a01b0316826001600160a01b03167f4a39dc06d4c0dbc64b70af90fd698a233a518aa5d07e595d983b8c0526c8f7fb878760405161133b929190611c4b565b60405180910390a4505050505050565b80356001600160a01b038116811461136257600080fd5b919050565b6000806040838503121561137a57600080fd5b6113838361134b565b946020939093013593505050565b6001600160e01b03198116811461040d57600080fd5b6000602082840312156113b957600080fd5b81356113c481611391565b9392505050565b634e487b7160e01b600052604160045260246000fd5b604051601f8201601f191681016001600160401b0381118282101715611409576114096113cb565b604052919050565b60006001600160401b0383111561142a5761142a6113cb565b61143d601f8401601f19166020016113e1565b905082815283838301111561145157600080fd5b828260208301376000602084830101529392505050565b60006020828403121561147a57600080fd5b81356001600160401b0381111561149057600080fd5b8201601f810184136114a157600080fd5b6114b084823560208401611411565b949350505050565b6000602082840312156114ca57600080fd5b5035919050565b6000815180845260005b818110156114f7576020818501810151868301820152016114db565b506000602082860101526020601f19601f83011685010191505092915050565b6020815260006113c460208301846114d1565b60006001600160401b03821115611543576115436113cb565b5060051b60200190565b600082601f83011261155e57600080fd5b8135602061157361156e8361152a565b6113e1565b8083825260208201915060208460051b87010193508684111561159557600080fd5b602086015b848110156115b1578035835291830191830161159a565b509695505050505050565b600082601f8301126115cd57600080fd5b6113c483833560208501611411565b600080600080608085870312156115f257600080fd5b6115fb8561134b565b935060208501356001600160401b038082111561161757600080fd5b6116238883890161154d565b9450604087013591508082111561163957600080fd5b6116458883890161154d565b9350606087013591508082111561165b57600080fd5b50611668878288016115bc565b91505092959194509250565b600080600080600060a0868803121561168c57600080fd5b6116958661134b565b94506116a36020870161134b565b935060408601356001600160401b03808211156116bf57600080fd5b6116cb89838a0161154d565b945060608801359150808211156116e157600080fd5b6116ed89838a0161154d565b9350608088013591508082111561170357600080fd5b50611710888289016115bc565b9150509295509295909350565b6000806040838503121561173057600080fd5b82356001600160401b038082111561174757600080fd5b818501915085601f83011261175b57600080fd5b8135602061176b61156e8361152a565b82815260059290921b8401810191818101908984111561178a57600080fd5b948201945b838610156117af576117a08661134b565b8252948201949082019061178f565b965050860135925050808211156117c557600080fd5b506117d28582860161154d565b9150509250929050565b60008151808452602080850194506020840160005b8381101561180d578151875295820195908201906001016117f1565b509495945050505050565b6020815260006113c460208301846117dc565b60008060006060848603121561184057600080fd5b6118498461134b565b925060208401356001600160401b038082111561186557600080fd5b6118718783880161154d565b9350604086013591508082111561188757600080fd5b506118948682870161154d565b9150509250925092565b600080600080608085870312156118b457600080fd5b6118bd8561134b565b9350602085013592506040850135915060608501356001600160401b038111156118e657600080fd5b611668878288016115bc565b6000806040838503121561190557600080fd5b61190e8361134b565b91506020830135801515811461192357600080fd5b809150509250929050565b60006020828403121561194057600080fd5b6113c48261134b565b6000806040838503121561195c57600080fd5b6119658361134b565b91506119736020840161134b565b90509250929050565b600080600080600060a0868803121561199457600080fd5b61199d8661134b565b94506119ab6020870161134b565b9350604086013592506060860135915060808601356001600160401b038111156119d457600080fd5b611710888289016115bc565b6000806000606084860312156119f557600080fd5b6119fe8461134b565b95602085013595506040909401359392505050565b600181811c90821680611a2757607f821691505b602082108103611a4757634e487b7160e01b600052602260045260246000fd5b50919050565b634e487b7160e01b600052603260045260246000fd5b601f821115610686576000816000526020600020601f850160051c81016020861015611a8c5750805b601f850160051c820191505b8181101561055357828155600101611a98565b81516001600160401b03811115611ac457611ac46113cb565b611ad881611ad28454611a13565b84611a63565b602080601f831160018114611b0d5760008415611af55750858301515b600019600386901b1c1916600185901b178555610553565b600085815260208120601f198616915b82811015611b3c57888601518255948401946001909101908401611b1d565b5085821015611b5a5787850151600019600388901b60f8161c191681555b5050505050600190811b01905550565b6001600160a01b03868116825285166020820152604081018490526060810183905260a060808201819052600090611ba4908301846114d1565b979650505050505050565b600060208284031215611bc157600080fd5b81516113c481611391565b6001600160a01b0386811682528516602082015260a060408201819052600090611bf8908301866117dc565b8281036060840152611c0a81866117dc565b90508281036080840152611c1e81856114d1565b98975050505050505050565b808201808211156103a657634e487b7160e01b600052601160045260246000fd5b604081526000611c5e60408301856117dc565b8281036020840152611c7081856117dc565b9594505050505056fe88be536d5240c274a3b1d3a1be54482fd9caa294f08c62a7cde569f49a3c4500a26469706673582212208d05bd2eeccec8bf4ed67e4f4ce032377d91c66169dae6d34d01e22f7f3ec0b564736f6c63430008160033",
  "linkReferences": {},
  "deployedLinkReferences": {}
}