{
  "_format": "hh3-artifact-1",
  "contractName": "TransparentNFT",
  "sourceName": "contracts/TransparentNFT.sol",
  "abi": [
    {
      "inputs": [],
      "stateMutability": "nonpayable",
      "type": "constructor"
    },
    {
      "inputs": [
        {
          "internalType": "address",
          "name": "sender",
          "type": "address"
        },
        {
          "internalType": "uint256",
          "name": "tokenId",
          "type": "uint256"
        },
        {
          "internalType": "address",
          "name": "owner",
          "type": "address"
        }
      ],
      "name": "ERC721IncorrectOwner",
      "type": "error"
    },
    {
      "inputs": [
        {
          "internalType": "address",
          "name": "operator",
          "type": "address"
        },
        {
          "internalType": "uint256",
          "name": "tokenId",
          "type": "uint256"
        }
      ],
      "name": "ERC721InsufficientApproval",
      "type": "error"
    },
    {
      "inputs": [
        {
          "internalType": "address",
          "name": "approver",
          "type": "address"
        }
      ],
      "name": "ERC721InvalidApprover",
      "type": "error"
    },
    {
      "inputs": [
        {
          "internalType": "address",
          "name": "operator",
          "type": "address"
        }
      ],
      "name": "ERC721InvalidOperator",
      "type": "error"
    },
    {
      "inputs": [
        {
          "internalType": "address",
          "name": "owner",
          "type": "address"
        }
      ],
      "name": "ERC721InvalidOwner",
      "type": "error"
    },
    {
      "inputs": [
        {
          "internalType": "address",
          "name": "receiver",
          "type": "address"
        }
      ],
      "name": "ERC721InvalidReceiver",
      "type": "error"
    },
    {
      "inputs": [
        {
          "internalType": "address",
          "name": "sender",
          "type": "address"
        }
      ],
      "name": "ERC721InvalidSender",
      "type": "error"
    },
    {
      "inputs": [
        {
          "internalType": "uint256",
          "name": "tokenId",
          "type": "uint256"
        }
      ],
      "name": "ERC721NonexistentToken",
      "type": "error"
    },
    {
      "inputs": [],
      "name": "EnforcedPause",
      "type": "error"
    },
    {
      "inputs": [],
      "name": "ExpectedPause",
      "type": "error"
    },
    {
      "inputs": [],
      "name": "InvalidInitialization",
      "type": "error"
    },
    {
      "inputs": [],
      "name": "NotInitializing",
      "type": "error"
    },
    {
      "inputs": [
        {
          "internalType": "address",
          "name": "owner",
          "type": "address"
        }
      ],
      "name": "OwnableInvalidOwner",
      "type": "error"
    },
    {
      "inputs": [
        {
          "internalType": "address",
          "name": "account",
          "type": "address"
        }
      ],
      "name": "OwnableUnauthorizedAccount",
      "type": "error"
    },
    {
      "anonymous": false,
      "inputs": [
        {
          "indexed": true,
          "internalType": "address",
          "name": "owner",
          "type": "address"
        },
        {
          "indexed": true,
          "internalType": "address",
          "name": "approved",
          "type": "address"
        },
        {
          "indexed": true,
          "internalType": "uint256",
          "name": "tokenId",
          "type": "uint256"
        }
      ],
      "name": "Approval",
      "type": "event"
    },
    {
      "anonymous": false,
      "inputs": [
        {
          "indexed": true,
          "internalType": "address",
          "name": "owner",
          "type": "address"
        },
        {
          "indexed": true,
          "internalType": "address",
          "name": "operator",
          "type": "address"
        },
        {
          "indexed": false,
          "internalType": "bool",
          "name": "approved",
          "type": "bool"
        }
      ],
      "name": "ApprovalForAll",
      "type": "event"
    },
    {
      "anonymous": false,
      "inputs": [
        {
          "indexed": false,
          "internalType": "uint64",
          "name": "version",
          "type": "uint64"
        }
      ],
      "name": "Initialized",
      "type": "event"
    },
    {
      "anonymous": false,
      "inputs": [
        {
          "indexed": true,
          "internalType": "address",
          "name": "previousOwner",
          "type": "address"
        },
        {
          "indexed": true,
          "internalType": "address",
          "name": "newOwner",
          "type": "address"
        }
      ],
      "name": "OwnershipTransferred",
      "type": "event"
    },
    {
      "anonymous": false,
      "inputs": [
        {
          "indexed": false,
          "internalType": "address",
          "name": "account",
          "type": "address"
        }
      ],
      "name": "Paused",
      "type": "event"
    },
    {
      "anonymous": false,
      "inputs": [
        {
          "indexed": true,
          "internalType": "address",
          "name": "from",
          "type": "address"
        },
        {
          "indexed": true,
          "internalType": "address",
          "name": "to",
          "type": "address"
        },
        {
          "indexed": true,
          "internalType": "uint256",
          "name": "tokenId",
          "type": "uint256"
        }
      ],
      "name": "Transfer",
      "type": "event"
    },
    {
      "anonymous": false,
      "inputs": [
        {
          "indexed": false,
          "internalType": "address",
          "name": "account",
          "type": "address"
        }
      ],
      "name": "Unpaused",
      "type": "event"
    },
    {
      "inputs": [
        {
          "internalType": "address",
          "name": "to",
          "type": "address"
        },
        {
          "internalType": "uint256",
          "name": "tokenId",
          "type": "uint256"
        }
      ],
      "name": "approve",
      "outputs": [],
      "stateMutability": "nonpayable",
      "type": "function"
    },
    {
      "inputs": [
        {
          "internalType": "address",
          "name": "owner",
          "type": "address"
        }
      ],
      "name": "balanceOf",
      "outputs": [
        {
          "internalType": "uint256",
          "name": "",
          "type": "uint256"
        }
      ],
      "stateMutability": "view",
      "type": "function"
    },
    {
      "inputs": [
        {
          "internalType": "uint256",
          "name": "tokenId",
          "type": "uint256"
        }
      ],
      "name": "burn",
      "outputs": [],
      "stateMutability": "nonpayable",
      "type": "function"
    },
    {
      "inputs": [
        {
          "internalType": "uint256",
          "name": "tokenId",
          "type": "uint256"
        }
      ],
      "name": "getApproved",
      "outputs": [
        {
          "internalType": "address",
          "name": "",
          "type": "address"
        }
      ],
      "stateMutability": "view",
      "type": "function"
    },
    {
      "inputs": [
        {
          "internalType": "address",
          "name": "initialOwner",
          "type": "address"
        }
      ],
      "name": "initialize",
      "outputs": [],
      "stateMutability": "nonpayable",
      "type": "function"
    },
    {
      "inputs": [
        {
          "internalType": "address",
          "name": "owner",
          "type": "address"
        },
        {
          "internalType": "address",
          "name": "operator",
          "type": "address"
        }
      ],
      "name": "isApprovedForAll",
      "outputs": [
        {
          "internalType": "bool",
          "name": "",
          "type": "bool"
        }
      ],
      "stateMutability": "view",
      "type": "function"
    },
    {
      "inputs": [],
      "name": "name",
      "outputs": [
        {
          "internalType": "string",
          "name": "",
          "type": "string"
        }
      ],
      "stateMutability": "view",
      "type": "function"
    },
    {
      "inputs": [],
      "name": "owner",
      "outputs": [
        {
          "internalType": "address",
          "name": "",
          "type": "address"
        }
      ],
      "stateMutability": "view",
      "type": "function"
    },
    {
      "inputs": [
        {
          "internalType": "uint256",
          "name": "tokenId",
          "type": "uint256"
        }
      ],
      "name": "ownerOf",
      "outputs": [
        {
          "internalType": "address",
          "name": "",
          "type": "address"
        }
      ],
      "stateMutability": "view",
      "type": "function"
    },
    {
      "inputs": [],
      "name": "pause",
      "outputs": [],
      "stateMutability": "nonpayable",
      "type": "function"
    },
    {
      "inputs": [],
      "name": "paused",
      "outputs": [
        {
          "internalType": "bool",
          "name": "",
          "type": "bool"
        }
      ],
      "stateMutability": "view",
      "type": "function"
    },
    {
      "inputs": [],
      "name": "renounceOwnership",
      "outputs": [],
      "stateMutability": "nonpayable",
      "type": "function"
    },
    {
      "inputs": [
        {
          "internalType": "address",
          "name": "to",
          "type": "address"
        },
        {
          "internalType": "uint256",
          "name": "tokenId",
          "type": "uint256"
        }
      ],
      "name": "safeMint",
      "outputs": [],
      "stateMutability": "nonpayable",
      "type": "function"
    },
    {
      "inputs": [
        {
          "internalType": "address",
          "name": "from",
          "type": "address"
        },
        {
          "internalType": "address",
          "name": "to",
          "type": "address"
        },
        {
          "internalType": "uint256",
          "name": "tokenId",
          "type": "uint256"
        }
      ],
      "name": "safeTransferFrom",
      "outputs": [],
      "stateMutability": "nonpayable",
      "type": "function"
    },
    {
      "inputs": [
        {
          "internalType": "address",
          "name": "from",
          "type": "address"
        },
        {
          "internalType": "address",
          "name": "to",
          "type": "address"
        },
        {
          "internalType": "uint256",
          "name": "tokenId",
          "type": "uint256"
        },
        {
          "internalType": "bytes",
          "name": "data",
          "type": "bytes"
        }
      ],
      "name": "safeTransferFrom",
      "outputs": [],
      "stateMutability": "nonpayable",
      "type": "function"
    },
    {
      "inputs": [
        {
          "internalType": "address",
          "name": "operator",
          "type": "address"
        },
        {
          "internalType": "bool",
          "name": "approved",
          "type": "bool"
        }
      ],
      "name": "setApprovalForAll",
      "outputs": [],
      "stateMutability": "nonpayable",
      "type": "function"
    },
    {
      "inputs": [
        {
          "internalType": "bytes4",
          "name": "interfaceId",
          "type": "bytes4"
        }
      ],
      "name": "supportsInterface",
      "outputs": [
        {
          "internalType": "bool",
          "name": "",
          "type": "bool"
        }
      ],
      "stateMutability": "view",
      "type": "function"
    },
    {
      "inputs": [],
      "name": "symbol",
      "outputs": [
        {
          "internalType": "string",
          "name": "",
          "type": "string"
        }
      ],
      "stateMutability": "view",
      "type": "function"
    },
    {
      "inputs": [
        {
          "internalType": "uint256",
          "name": "tokenId",
          "type": "uint256"
        }
      ],
      "name": "tokenURI",
      "outputs": [
        {
          "internalType": "string",
          "name": "",
          "type": "string"
        }
      ],
      "stateMutability": "view",
      "type": "function"
    },
    {
      "inputs": [
        {
          "internalType": "address",
          "name": "from",
          "type": "address"
        },
        {
          "internalType": "address",
          "name": "to",
          "type": "address"
        },
        {
          "internalType": "uint256",
          "name": "tokenId",
          "type": "uint256"
        }
      ],
      "name": "transferFrom",
      "outputs": [],
      "stateMutability": "nonpayable",
      "type": "function"
    },
    {
      "inputs": [
        {
          "internalType": "address",
          "name": "newOwner",
          "type": "address"
        }
      ],
      "name": "transferOwnership",
      "outputs": [],
      "stateMutability": "nonpayable",
      "type": "function"
    },
    {
      "inputs": [],
      "name": "unpause",
      "outputs": [],
      "stateMutability": "nonpayable",
      "type": "function"
    }
  ],
  "bytecode": "0x6080604052348015600e575f5ffd5b5060156019565b60c9565b7ff0c57e16840df040f15088dc2f81fe391c3923bec73e23a9662efc9c229c6a00805468010000000000000000900460ff161560685760405163f92ee8a960e01b815260040160405180910390fd5b80546001600160401b039081161460c65780546001600160401b0319166001600160401b0390811782556040519081527fc7f505b2f371ae2175ee4913f4499e1f2633a7b5936321eed1cdaeb6115181d29060200160405180910390a15b50565b611704806100d65f395ff3fe608060405234801561000f575f5ffd5b506004361061013d575f3560e01c8063715018a6116100b4578063a22cb46511610079578063a22cb465146102a5578063b88d4fde146102b8578063c4d66de8146102cb578063c87b56dd146102de578063e985e9c5146102f1578063f2fde38b14610304575f5ffd5b8063715018a61461024a5780638456cb59146102525780638da5cb5b1461025a57806395d89b411461028a578063a144819414610292575f5ffd5b80633f4ba83a116101055780633f4ba83a146101d157806342842e0e146101d957806342966c68146101ec5780635c975abb146101ff5780636352211e1461021657806370a0823114610229575f5ffd5b806301ffc9a71461014157806306fdde0314610169578063081812fc1461017e578063095ea7b3146101a957806323b872dd146101be575b5f5ffd5b61015461014f366004611272565b610317565b60405190151581526020015b60405180910390f35b610171610368565b60405161016091906112bb565b61019161018c3660046112cd565b610409565b6040516001600160a01b039091168152602001610160565b6101bc6101b73660046112ff565b61041d565b005b6101bc6101cc366004611327565b61042c565b6101bc6104ba565b6101bc6101e7366004611327565b6104cc565b6101bc6101fa3660046112cd565b6104eb565b5f5160206116af5f395f51905f525460ff16610154565b6101916102243660046112cd565b6104f6565b61023c610237366004611361565b610500565b604051908152602001610160565b6101bc610558565b6101bc610569565b7f9016d09d72d40fdae2fd8ceac6b6234c7706214fd39c1cd1e609a0528c199300546001600160a01b0316610191565b610171610579565b6101bc6102a03660046112ff565b6105b7565b6101bc6102b336600461137a565b6105c9565b6101bc6102c63660046113c7565b6105d4565b6101bc6102d9366004611361565b6105ec565b6101716102ec3660046112cd565b610741565b6101546102ff3660046114a4565b6107b2565b6101bc610312366004611361565b6107fe565b5f6001600160e01b031982166380ac58cd60e01b148061034757506001600160e01b03198216635b5e139f60e01b145b8061036257506301ffc9a760e01b6001600160e01b03198316145b92915050565b5f51602061168f5f395f51905f528054606091908190610387906114d5565b80601f01602080910402602001604051908101604052809291908181526020018280546103b3906114d5565b80156103fe5780601f106103d5576101008083540402835291602001916103fe565b820191905f5260205f20905b8154815290600101906020018083116103e157829003601f168201915b505050505091505090565b5f6104138261083b565b5061036282610872565b6104288282336108ab565b5050565b6001600160a01b03821661045a57604051633250574960e11b81525f60048201526024015b60405180910390fd5b5f6104668383336108b8565b9050836001600160a01b0316816001600160a01b0316146104b4576040516364283d7b60e01b81526001600160a01b0380861660048301526024820184905282166044820152606401610451565b50505050565b6104c26108cc565b6104ca610927565b565b6104e683838360405180602001604052805f8152506105d4565b505050565b6104285f82336108b8565b5f6103628261083b565b5f5f51602061168f5f395f51905f526001600160a01b038316610538576040516322718ad960e21b81525f6004820152602401610451565b6001600160a01b039092165f908152600390920160205250604090205490565b6105606108cc565b6104ca5f610986565b6105716108cc565b6104ca6109f6565b7f80bb2b638cc20bc4d0a60d66940f3ab4a00c1d7b313497ca82fb0b4ab007930180546060915f51602061168f5f395f51905f5291610387906114d5565b6105bf6108cc565b6104288282610a3e565b610428338383610a57565b6105df84848461042c565b6104b43385858585610b06565b5f6105f5610c2c565b805490915060ff600160401b820416159067ffffffffffffffff165f8115801561061c5750825b90505f8267ffffffffffffffff1660011480156106385750303b155b905081158015610646575080155b156106645760405163f92ee8a960e01b815260040160405180910390fd5b845467ffffffffffffffff19166001178555831561068e57845460ff60401b1916600160401b1785555b6106da6040518060400160405280600e81526020016d151c985b9cdc185c995b9d13919560921b815250604051806040016040528060048152602001631513919560e21b815250610c54565b6106e2610c66565b6106eb86610c6e565b6106f3610c66565b831561073957845460ff60401b19168555604051600181527fc7f505b2f371ae2175ee4913f4499e1f2633a7b5936321eed1cdaeb6115181d29060200160405180910390a15b505050505050565b606061074c8261083b565b505f61076260408051602081019091525f815290565b90505f8151116107805760405180602001604052805f8152506107ab565b8061078a84610c7f565b60405160200161079b929190611524565b6040516020818303038152906040525b9392505050565b6001600160a01b039182165f9081527f80bb2b638cc20bc4d0a60d66940f3ab4a00c1d7b313497ca82fb0b4ab00793056020908152604080832093909416825291909152205460ff1690565b6108066108cc565b6001600160a01b03811661082f57604051631e4fbdf760e01b81525f6004820152602401610451565b61083881610986565b50565b5f5f61084683610d0f565b90506001600160a01b03811661036257604051637e27328960e01b815260048101849052602401610451565b5f9081527f80bb2b638cc20bc4d0a60d66940f3ab4a00c1d7b313497ca82fb0b4ab007930460205260409020546001600160a01b031690565b6104e68383836001610d48565b5f6108c4848484610e5b565b949350505050565b336108fe7f9016d09d72d40fdae2fd8ceac6b6234c7706214fd39c1cd1e609a0528c199300546001600160a01b031690565b6001600160a01b0316146104ca5760405163118cdaa760e01b8152336004820152602401610451565b61092f610e6f565b5f5160206116af5f395f51905f52805460ff191681557f5db9ee0a495bf2e6ff9c91a7834c1ba4fdd244a5e8aa4e537bd38aeae4b073aa335b6040516001600160a01b03909116815260200160405180910390a150565b7f9016d09d72d40fdae2fd8ceac6b6234c7706214fd39c1cd1e609a0528c19930080546001600160a01b031981166001600160a01b03848116918217845560405192169182907f8be0079c531659141344cd1fd0a4f28419497f9722a3daafe3b4186f6b6457e0905f90a3505050565b6109fe610e9e565b5f5160206116af5f395f51905f52805460ff191660011781557f62e78cea01bee320cd4e420270b5ea74000d11b0c9f74754ebdbfc544b05a25833610968565b610428828260405180602001604052805f815250610ece565b5f51602061168f5f395f51905f526001600160a01b038316610a9757604051630b61174360e31b81526001600160a01b0384166004820152602401610451565b6001600160a01b038481165f818152600584016020908152604080832094881680845294825291829020805460ff191687151590811790915591519182527f17307eab39ab6107e8899845ad3d59bd9653f200f220920489ca2b5937696c31910160405180910390a350505050565b6001600160a01b0383163b15610c2557604051630a85bd0160e11b81526001600160a01b0384169063150b7a0290610b48908890889087908790600401611538565b6020604051808303815f875af1925050508015610b82575060408051601f3d908101601f19168201909252610b7f91810190611574565b60015b610be9573d808015610baf576040519150601f19603f3d011682016040523d82523d5f602084013e610bb4565b606091505b5080515f03610be157604051633250574960e11b81526001600160a01b0385166004820152602401610451565b805160208201fd5b6001600160e01b03198116630a85bd0160e11b1461073957604051633250574960e11b81526001600160a01b0385166004820152602401610451565b5050505050565b5f807ff0c57e16840df040f15088dc2f81fe391c3923bec73e23a9662efc9c229c6a00610362565b610c5c610ee5565b6104288282610f0a565b6104ca610ee5565b610c76610ee5565b61083881610f3a565b60605f610c8b83610f42565b60010190505f8167ffffffffffffffff811115610caa57610caa6113b3565b6040519080825280601f01601f191660200182016040528015610cd4576020820181803683370190505b5090508181016020015b5f19016f181899199a1a9b1b9c1cb0b131b232b360811b600a86061a8153600a8504945084610cde57509392505050565b5f9081527f80bb2b638cc20bc4d0a60d66940f3ab4a00c1d7b313497ca82fb0b4ab007930260205260409020546001600160a01b031690565b5f51602061168f5f395f51905f528180610d6a57506001600160a01b03831615155b15610e2b575f610d798561083b565b90506001600160a01b03841615801590610da55750836001600160a01b0316816001600160a01b031614155b8015610db85750610db681856107b2565b155b15610de15760405163a9fbf51f60e01b81526001600160a01b0385166004820152602401610451565b8215610e295784866001600160a01b0316826001600160a01b03167f8c5be1e5ebec7d5bd14f71427d1e84f3dd0314c0f7b2291e5b200ac8c7c3b92560405160405180910390a45b505b5f93845260040160205250506040902080546001600160a01b0319166001600160a01b0392909216919091179055565b5f610e64610e9e565b6108c4848484611019565b5f5160206116af5f395f51905f525460ff166104ca57604051638dfc202b60e01b815260040160405180910390fd5b5f5160206116af5f395f51905f525460ff16156104ca5760405163d93c066560e01b815260040160405180910390fd5b610ed8838361111b565b6104e6335f858585610b06565b610eed61117c565b6104ca57604051631afcd79f60e31b815260040160405180910390fd5b610f12610ee5565b5f51602061168f5f395f51905f5280610f2b84826115d3565b50600181016104b483826115d3565b610806610ee5565b5f8072184f03e93ff9f4daa797ed6e38ed64bf6a1f0160401b8310610f805772184f03e93ff9f4daa797ed6e38ed64bf6a1f0160401b830492506040015b6d04ee2d6d415b85acef81000000008310610fac576d04ee2d6d415b85acef8100000000830492506020015b662386f26fc100008310610fca57662386f26fc10000830492506010015b6305f5e1008310610fe2576305f5e100830492506008015b6127108310610ff657612710830492506004015b60648310611008576064830492506002015b600a83106103625760010192915050565b5f5f51602061168f5f395f51905f528161103285610d0f565b90506001600160a01b0384161561104e5761104e818587611195565b6001600160a01b0381161561108a576110695f865f5f610d48565b6001600160a01b0381165f908152600383016020526040902080545f190190555b6001600160a01b038616156110ba576001600160a01b0386165f9081526003830160205260409020805460010190555b5f85815260028301602052604080822080546001600160a01b0319166001600160a01b038a811691821790925591518893918516917fddf252ad1be2c89b69c2b068fc378daa952ba7f163c4a11628f55a4df523b3ef91a495945050505050565b6001600160a01b03821661114457604051633250574960e11b81525f6004820152602401610451565b5f61115083835f6108b8565b90506001600160a01b038116156104e6576040516339e3563760e11b81525f6004820152602401610451565b5f611185610c2c565b54600160401b900460ff16919050565b6111a08383836111f9565b6104e6576001600160a01b0383166111ce57604051637e27328960e01b815260048101829052602401610451565b60405163177e802f60e01b81526001600160a01b038316600482015260248101829052604401610451565b5f6001600160a01b038316158015906108c45750826001600160a01b0316846001600160a01b03161480611232575061123284846107b2565b806108c45750826001600160a01b031661124b83610872565b6001600160a01b031614949350505050565b6001600160e01b031981168114610838575f5ffd5b5f60208284031215611282575f5ffd5b81356107ab8161125d565b5f81518084528060208401602086015e5f602082860101526020601f19601f83011685010191505092915050565b602081525f6107ab602083018461128d565b5f602082840312156112dd575f5ffd5b5035919050565b80356001600160a01b03811681146112fa575f5ffd5b919050565b5f5f60408385031215611310575f5ffd5b611319836112e4565b946020939093013593505050565b5f5f5f60608486031215611339575f5ffd5b611342846112e4565b9250611350602085016112e4565b929592945050506040919091013590565b5f60208284031215611371575f5ffd5b6107ab826112e4565b5f5f6040838503121561138b575f5ffd5b611394836112e4565b9150602083013580151581146113a8575f5ffd5b809150509250929050565b634e487b7160e01b5f52604160045260245ffd5b5f5f5f5f608085870312156113da575f5ffd5b6113e3856112e4565b93506113f1602086016112e4565b925060408501359150606085013567ffffffffffffffff811115611413575f5ffd5b8501601f81018713611423575f5ffd5b803567ffffffffffffffff81111561143d5761143d6113b3565b604051601f8201601f19908116603f0116810167ffffffffffffffff8111828210171561146c5761146c6113b3565b604052818152828201602001891015611483575f5ffd5b816020840160208301375f6020838301015280935050505092959194509250565b5f5f604083850312156114b5575f5ffd5b6114be836112e4565b91506114cc602084016112e4565b90509250929050565b600181811c908216806114e957607f821691505b60208210810361150757634e487b7160e01b5f52602260045260245ffd5b50919050565b5f81518060208401855e5f93019283525090919050565b5f6108c4611532838661150d565b8461150d565b6001600160a01b03858116825284166020820152604081018390526080606082018190525f9061156a9083018461128d565b9695505050505050565b5f60208284031215611584575f5ffd5b81516107ab8161125d565b601f8211156104e657805f5260205f20601f840160051c810160208510156115b45750805b601f840160051c820191505b81811015610c25575f81556001016115c0565b815167ffffffffffffffff8111156115ed576115ed6113b3565b611601816115fb84546114d5565b8461158f565b6020601f821160018114611633575f831561161c5750848201515b5f19600385901b1c1916600184901b178455610c25565b5f84815260208120601f198516915b828110156116625787850151825560209485019460019092019101611642565b508482101561167f57868401515f19600387901b60f8161c191681555b50505050600190811b0190555056fe80bb2b638cc20bc4d0a60d66940f3ab4a00c1d7b313497ca82fb0b4ab0079300cd5ed15c6e187e77e9aee88184c21f4f2182ab5827cb3b7e07fbedcd63f03300a2646970667358221220a6c89afb4625febc1b6ab14a33d0b428b6455adc62732e320006697c55ab965764736f6c634300081b0033",
  "linkReferences": {},
  "deployedLinkReferences": {},
  "immutableReferences": {},
  "inputSourceName": "project/contracts/TransparentNFT.sol",
  "buildInfoId": "solc-0_8_27-32fe6f3eb6c914859900df8f653bd9922f887437"
}