{
  "_format": "hh3-artifact-1",
  "contractName": "TransparentMultiToken",
  "sourceName": "contracts/TransparentMultiToken.sol",
  "abi": [
    {
      "inputs": [],
      "stateMutability": "nonpayable",
      "type": "constructor"
    },
    {
      "inputs": [
        {
          "internalType": "address",
          "name": "sender",
          "type": "address"
        },
        {
          "internalType": "uint256",
          "name": "balance",
          "type": "uint256"
        },
        {
          "internalType": "uint256",
          "name": "needed",
          "type": "uint256"
        },
        {
          "internalType": "uint256",
          "name": "tokenId",
          "type": "uint256"
        }
      ],
      "name": "ERC1155InsufficientBalance",
      "type": "error"
    },
    {
      "inputs": [
        {
          "internalType": "address",
          "name": "approver",
          "type": "address"
        }
      ],
      "name": "ERC1155InvalidApprover",
      "type": "error"
    },
    {
      "inputs": [
        {
          "internalType": "uint256",
          "name": "idsLength",
          "type": "uint256"
        },
        {
          "internalType": "uint256",
          "name": "valuesLength",
          "type": "uint256"
        }
      ],
      "name": "ERC1155InvalidArrayLength",
      "type": "error"
    },
    {
      "inputs": [
        {
          "internalType": "address",
          "name": "operator",
          "type": "address"
        }
      ],
      "name": "ERC1155InvalidOperator",
      "type": "error"
    },
    {
      "inputs": [
        {
          "internalType": "address",
          "name": "receiver",
          "type": "address"
        }
      ],
      "name": "ERC1155InvalidReceiver",
      "type": "error"
    },
    {
      "inputs": [
        {
          "internalType": "address",
          "name": "sender",
          "type": "address"
        }
      ],
      "name": "ERC1155InvalidSender",
      "type": "error"
    },
    {
      "inputs": [
        {
          "internalType": "address",
          "name": "operator",
          "type": "address"
        },
        {
          "internalType": "address",
          "name": "owner",
          "type": "address"
        }
      ],
      "name": "ERC1155MissingApprovalForAll",
      "type": "error"
    },
    {
      "inputs": [],
      "name": "InvalidInitialization",
      "type": "error"
    },
    {
      "inputs": [],
      "name": "NotInitializing",
      "type": "error"
    },
    {
      "inputs": [
        {
          "internalType": "address",
          "name": "owner",
          "type": "address"
        }
      ],
      "name": "OwnableInvalidOwner",
      "type": "error"
    },
    {
      "inputs": [
        {
          "internalType": "address",
          "name": "account",
          "type": "address"
        }
      ],
      "name": "OwnableUnauthorizedAccount",
      "type": "error"
    },
    {
      "anonymous": false,
      "inputs": [
        {
          "indexed": true,
          "internalType": "address",
          "name": "account",
          "type": "address"
        },
        {
          "indexed": true,
          "internalType": "address",
          "name": "operator",
          "type": "address"
        },
        {
          "indexed": false,
          "internalType": "bool",
          "name": "approved",
          "type": "bool"
        }
      ],
      "name": "ApprovalForAll",
      "type": "event"
    },
    {
      "anonymous": false,
      "inputs": [
        {
          "indexed": false,
          "internalType": "uint64",
          "name": "version",
          "type": "uint64"
        }
      ],
      "name": "Initialized",
      "type": "event"
    },
    {
      "anonymous": false,
      "inputs": [
        {
          "indexed": true,
          "internalType": "address",
          "name": "previousOwner",
          "type": "address"
        },
        {
          "indexed": true,
          "internalType": "address",
          "name": "newOwner",
          "type": "address"
        }
      ],
      "name": "OwnershipTransferred",
      "type": "event"
    },
    {
      "anonymous": false,
      "inputs": [
        {
          "indexed": true,
          "internalType": "address",
          "name": "operator",
          "type": "address"
        },
        {
          "indexed": true,
          "internalType": "address",
          "name": "from",
          "type": "address"
        },
        {
          "indexed": true,
          "internalType": "address",
          "name": "to",
          "type": "address"
        },
        {
          "indexed": false,
          "internalType": "uint256[]",
          "name": "ids",
          "type": "uint256[]"
        },
        {
          "indexed": false,
          "internalType": "uint256[]",
          "name": "values",
          "type": "uint256[]"
        }
      ],
      "name": "TransferBatch",
      "type": "event"
    },
    {
      "anonymous": false,
      "inputs": [
        {
          "indexed": true,
          "internalType": "address",
          "name": "operator",
          "type": "address"
        },
        {
          "indexed": true,
          "internalType": "address",
          "name": "from",
          "type": "address"
        },
        {
          "indexed": true,
          "internalType": "address",
          "name": "to",
          "type": "address"
        },
        {
          "indexed": false,
          "internalType": "uint256",
          "name": "id",
          "type": "uint256"
        },
        {
          "indexed": false,
          "internalType": "uint256",
          "name": "value",
          "type": "uint256"
        }
      ],
      "name": "TransferSingle",
      "type": "event"
    },
    {
      "anonymous": false,
      "inputs": [
        {
          "indexed": false,
          "internalType": "string",
          "name": "value",
          "type": "string"
        },
        {
          "indexed": true,
          "internalType": "uint256",
          "name": "id",
          "type": "uint256"
        }
      ],
      "name": "URI",
      "type": "event"
    },
    {
      "inputs": [
        {
          "internalType": "address",
          "name": "account",
          "type": "address"
        },
        {
          "internalType": "uint256",
          "name": "id",
          "type": "uint256"
        }
      ],
      "name": "balanceOf",
      "outputs": [
        {
          "internalType": "uint256",
          "name": "",
          "type": "uint256"
        }
      ],
      "stateMutability": "view",
      "type": "function"
    },
    {
      "inputs": [
        {
          "internalType": "address[]",
          "name": "accounts",
          "type": "address[]"
        },
        {
          "internalType": "uint256[]",
          "name": "ids",
          "type": "uint256[]"
        }
      ],
      "name": "balanceOfBatch",
      "outputs": [
        {
          "internalType": "uint256[]",
          "name": "",
          "type": "uint256[]"
        }
      ],
      "stateMutability": "view",
      "type": "function"
    },
    {
      "inputs": [
        {
          "internalType": "address",
          "name": "account",
          "type": "address"
        },
        {
          "internalType": "uint256",
          "name": "id",
          "type": "uint256"
        },
        {
          "internalType": "uint256",
          "name": "value",
          "type": "uint256"
        }
      ],
      "name": "burn",
      "outputs": [],
      "stateMutability": "nonpayable",
      "type": "function"
    },
    {
      "inputs": [
        {
          "internalType": "address",
          "name": "account",
          "type": "address"
        },
        {
          "internalType": "uint256[]",
          "name": "ids",
          "type": "uint256[]"
        },
        {
          "internalType": "uint256[]",
          "name": "values",
          "type": "uint256[]"
        }
      ],
      "name": "burnBatch",
      "outputs": [],
      "stateMutability": "nonpayable",
      "type": "function"
    },
    {
      "inputs": [
        {
          "internalType": "uint256",
          "name": "id",
          "type": "uint256"
        }
      ],
      "name": "exists",
      "outputs": [
        {
          "internalType": "bool",
          "name": "",
          "type": "bool"
        }
      ],
      "stateMutability": "view",
      "type": "function"
    },
    {
      "inputs": [
        {
          "internalType": "address",
          "name": "initialOwner",
          "type": "address"
        }
      ],
      "name": "initialize",
      "outputs": [],
      "stateMutability": "nonpayable",
      "type": "function"
    },
    {
      "inputs": [
        {
          "internalType": "address",
          "name": "account",
          "type": "address"
        },
        {
          "internalType": "address",
          "name": "operator",
          "type": "address"
        }
      ],
      "name": "isApprovedForAll",
      "outputs": [
        {
          "internalType": "bool",
          "name": "",
          "type": "bool"
        }
      ],
      "stateMutability": "view",
      "type": "function"
    },
    {
      "inputs": [
        {
          "internalType": "address",
          "name": "account",
          "type": "address"
        },
        {
          "internalType": "uint256",
          "name": "id",
          "type": "uint256"
        },
        {
          "internalType": "uint256",
          "name": "amount",
          "type": "uint256"
        },
        {
          "internalType": "bytes",
          "name": "data",
          "type": "bytes"
        }
      ],
      "name": "mint",
      "outputs": [],
      "stateMutability": "nonpayable",
      "type": "function"
    },
    {
      "inputs": [
        {
          "internalType": "address",
          "name": "to",
          "type": "address"
        },
        {
          "internalType": "uint256[]",
          "name": "ids",
          "type": "uint256[]"
        },
        {
          "internalType": "uint256[]",
          "name": "amounts",
          "type": "uint256[]"
        },
        {
          "internalType": "bytes",
          "name": "data",
          "type": "bytes"
        }
      ],
      "name": "mintBatch",
      "outputs": [],
      "stateMutability": "nonpayable",
      "type": "function"
    },
    {
      "inputs": [],
      "name": "owner",
      "outputs": [
        {
          "internalType": "address",
          "name": "",
          "type": "address"
        }
      ],
      "stateMutability": "view",
      "type": "function"
    },
    {
      "inputs": [],
      "name": "renounceOwnership",
      "outputs": [],
      "stateMutability": "nonpayable",
      "type": "function"
    },
    {
      "inputs": [
        {
          "internalType": "address",
          "name": "from",
          "type": "address"
        },
        {
          "internalType": "address",
          "name": "to",
          "type": "address"
        },
        {
          "internalType": "uint256[]",
          "name": "ids",
          "type": "uint256[]"
        },
        {
          "internalType": "uint256[]",
          "name": "values",
          "type": "uint256[]"
        },
        {
          "internalType": "bytes",
          "name": "data",
          "type": "bytes"
        }
      ],
      "name": "safeBatchTransferFrom",
      "outputs": [],
      "stateMutability": "nonpayable",
      "type": "function"
    },
    {
      "inputs": [
        {
          "internalType": "address",
          "name": "from",
          "type": "address"
        },
        {
          "internalType": "address",
          "name": "to",
          "type": "address"
        },
        {
          "internalType": "uint256",
          "name": "id",
          "type": "uint256"
        },
        {
          "internalType": "uint256",
          "name": "value",
          "type": "uint256"
        },
        {
          "internalType": "bytes",
          "name": "data",
          "type": "bytes"
        }
      ],
      "name": "safeTransferFrom",
      "outputs": [],
      "stateMutability": "nonpayable",
      "type": "function"
    },
    {
      "inputs": [
        {
          "internalType": "address",
          "name": "operator",
          "type": "address"
        },
        {
          "internalType": "bool",
          "name": "approved",
          "type": "bool"
        }
      ],
      "name": "setApprovalForAll",
      "outputs": [],
      "stateMutability": "nonpayable",
      "type": "function"
    },
    {
      "inputs": [
        {
          "internalType": "string",
          "name": "newuri",
          "type": "string"
        }
      ],
      "name": "setURI",
      "outputs": [],
      "stateMutability": "nonpayable",
      "type": "function"
    },
    {
      "inputs": [
        {
          "internalType": "bytes4",
          "name": "interfaceId",
          "type": "bytes4"
        }
      ],
      "name": "supportsInterface",
      "outputs": [
        {
          "internalType": "bool",
          "name": "",
          "type": "bool"
        }
      ],
      "stateMutability": "view",
      "type": "function"
    },
    {
      "inputs": [],
      "name": "totalSupply",
      "outputs": [
        {
          "internalType": "uint256",
          "name": "",
          "type": "uint256"
        }
      ],
      "stateMutability": "view",
      "type": "function"
    },
    {
      "inputs": [
        {
          "internalType": "uint256",
          "name": "id",
          "type": "uint256"
        }
      ],
      "name": "totalSupply",
      "outputs": [
        {
          "internalType": "uint256",
          "name": "",
          "type": "uint256"
        }
      ],
      "stateMutability": "view",
      "type": "function"
    },
    {
      "inputs": [
        {
          "internalType": "address",
          "name": "newOwner",
          "type": "address"
        }
      ],
      "name": "transferOwnership",
      "outputs": [],
      "stateMutability": "nonpayable",
      "type": "function"
    },
    {
      "inputs": [
        {
          "internalType": "uint256",
          "name": "",
          "type": "uint256"
        }
      ],
      "name": "uri",
      "outputs": [
        {
          "internalType": "string",
          "name": "",
          "type": "string"
        }
      ],
      "stateMutability": "view",
      "type": "function"
    }
  ],
  "bytecode": "0x6080604052348015600e575f5ffd5b5060156019565b60c9565b7ff0c57e16840df040f15088dc2f81fe391c3923bec73e23a9662efc9c229c6a00805468010000000000000000900460ff161560685760405163f92ee8a960e01b815260040160405180910390fd5b80546001600160401b039081161460c65780546001600160401b0319166001600160401b0390811782556040519081527fc7f505b2f371ae2175ee4913f4499e1f2633a7b5936321eed1cdaeb6115181d29060200160405180910390a15b50565b611c2d806100d65f395ff3fe608060405234801561000f575f5ffd5b5060043610610126575f3560e01c8063715018a6116100a9578063c4d66de81161006e578063c4d66de81461030e578063e985e9c514610321578063f242432a14610334578063f2fde38b14610347578063f5298aca1461035a575f5ffd5b8063715018a614610268578063731133e9146102705780638da5cb5b14610283578063a22cb465146102bd578063bd85b039146102d0575f5ffd5b80631f7fdffa116100ef5780631f7fdffa146101cf5780632eb2c2d6146101e25780634e1273f4146101f55780634f558e79146102155780636b20c45414610255575f5ffd5b8062fdd58e1461012a57806301ffc9a71461015057806302fe5305146101735780630e89341c1461018857806318160ddd146101a8575b5f5ffd5b61013d61013836600461132c565b61036d565b6040519081526020015b60405180910390f35b61016361015e366004611369565b6103a2565b6040519015158152602001610147565b610186610181366004611427565b6103f1565b005b61019b610196366004611473565b610405565b60405161014791906114b8565b7f4a593662ee04d27b6a00ebb31be7fe0c102c2ade82a7c5d764f2df05dc4e28015461013d565b6101866101dd366004611574565b6104c7565b6101866101f0366004611610565b6104e1565b6102086102033660046116bc565b61054d565b60405161014791906117b7565b610163610223366004611473565b5f9081527f4a593662ee04d27b6a00ebb31be7fe0c102c2ade82a7c5d764f2df05dc4e28006020526040902054151590565b6101866102633660046117c9565b610617565b61018661067b565b61018661027e36600461183b565b61068e565b7f9016d09d72d40fdae2fd8ceac6b6234c7706214fd39c1cd1e609a0528c199300546040516001600160a01b039091168152602001610147565b6101866102cb36600461187f565b6106a2565b61013d6102de366004611473565b5f9081527f4a593662ee04d27b6a00ebb31be7fe0c102c2ade82a7c5d764f2df05dc4e2800602052604090205490565b61018661031c3660046118b8565b6106b1565b61016361032f3660046118d1565b6107f5565b610186610342366004611902565b610841565b6101866103553660046118b8565b6108a0565b610186610368366004611955565b6108da565b5f8181525f516020611bd85f395f51905f52602090815260408083206001600160a01b03861684529091529020545b92915050565b5f6001600160e01b03198216636cdb3d1360e11b14806103d257506001600160e01b031982166303a24d0760e21b145b8061039c57506301ffc9a760e01b6001600160e01b031983161461039c565b6103f9610910565b6104028161096b565b50565b7f88be536d5240c274a3b1d3a1be54482fd9caa294f08c62a7cde569f49a3c450280546060915f516020611bd85f395f51905f529161044390611985565b80601f016020809104026020016040519081016040528092919081815260200182805461046f90611985565b80156104ba5780601f10610491576101008083540402835291602001916104ba565b820191905f5260205f20905b81548152906001019060200180831161049d57829003601f168201915b5050505050915050919050565b6104cf610910565b6104db848484846109a4565b50505050565b336001600160a01b0386168114801590610502575061050086826107f5565b155b156105385760405163711bec9160e11b81526001600160a01b038083166004830152871660248201526044015b60405180910390fd5b61054586868686866109da565b505050505050565b6060815183511461057e5781518351604051635b05999160e01b81526004810192909252602482015260440161052f565b5f83516001600160401b038111156105985761059861138b565b6040519080825280602002602001820160405280156105c1578160200160208202803683370190505b5090505f5b845181101561060f576020808202860101516105ea9060208084028701015161036d565b8282815181106105fc576105fc6119bd565b60209081029190910101526001016105c6565b509392505050565b6001600160a01b0383163314801590610637575061063583336107f5565b155b1561066b57335b60405163711bec9160e11b81526001600160a01b039182166004820152908416602482015260440161052f565b610676838383610a3f565b505050565b610683610910565b61068c5f610a82565b565b610696610910565b6104db84848484610af2565b6106ad338383610b4d565b5050565b5f6106ba610bf2565b805490915060ff600160401b82041615906001600160401b03165f811580156106e05750825b90505f826001600160401b031660011480156106fb5750303b155b905081158015610709575080155b156107275760405163f92ee8a960e01b815260040160405180910390fd5b845467ffffffffffffffff19166001178555831561075157845460ff60401b1916600160401b1785555b61078f6040518060400160405280601e81526020017f697066733a2f2f516d5472616e73706172656e742f7b69647d2e6a736f6e0000815250610c1a565b61079886610c2b565b6107a0610c3c565b6107a8610c3c565b831561054557845460ff60401b19168555604051600181527fc7f505b2f371ae2175ee4913f4499e1f2633a7b5936321eed1cdaeb6115181d29060200160405180910390a1505050505050565b6001600160a01b039182165f9081527f88be536d5240c274a3b1d3a1be54482fd9caa294f08c62a7cde569f49a3c45016020908152604080832093909416825291909152205460ff1690565b336001600160a01b0386168114801590610862575061086086826107f5565b155b156108935760405163711bec9160e11b81526001600160a01b0380831660048301528716602482015260440161052f565b6105458686868686610c44565b6108a8610910565b6001600160a01b0381166108d157604051631e4fbdf760e01b81525f600482015260240161052f565b61040281610a82565b6001600160a01b03831633148015906108fa57506108f883336107f5565b155b15610905573361063e565b610676838383610cd0565b336109427f9016d09d72d40fdae2fd8ceac6b6234c7706214fd39c1cd1e609a0528c199300546001600160a01b031690565b6001600160a01b03161461068c5760405163118cdaa760e01b815233600482015260240161052f565b5f516020611bd85f395f51905f527f88be536d5240c274a3b1d3a1be54482fd9caa294f08c62a7cde569f49a3c45026106768382611a15565b6001600160a01b0384166109cd57604051632bfa23e760e11b81525f600482015260240161052f565b6104db5f85858585610d32565b6001600160a01b038416610a0357604051632bfa23e760e11b81525f600482015260240161052f565b6001600160a01b038516610a2b57604051626a0d4560e21b81525f600482015260240161052f565b610a388585858585610d32565b5050505050565b6001600160a01b038316610a6757604051626a0d4560e21b81525f600482015260240161052f565b610676835f848460405180602001604052805f815250610d32565b7f9016d09d72d40fdae2fd8ceac6b6234c7706214fd39c1cd1e609a0528c19930080546001600160a01b031981166001600160a01b03848116918217845560405192169182907f8be0079c531659141344cd1fd0a4f28419497f9722a3daafe3b4186f6b6457e0905f90a3505050565b6001600160a01b038416610b1b57604051632bfa23e760e11b81525f600482015260240161052f565b604080516001808252602082018690528183019081526060820185905260808201909252906105455f87848487610d32565b5f516020611bd85f395f51905f526001600160a01b038316610b835760405162ced3e160e81b81525f600482015260240161052f565b6001600160a01b038481165f818152600184016020908152604080832094881680845294825291829020805460ff191687151590811790915591519182527f17307eab39ab6107e8899845ad3d59bd9653f200f220920489ca2b5937696c31910160405180910390a350505050565b5f807ff0c57e16840df040f15088dc2f81fe391c3923bec73e23a9662efc9c229c6a0061039c565b610c22610d85565b61040281610daa565b610c33610d85565b61040281610db2565b61068c610d85565b6001600160a01b038416610c6d57604051632bfa23e760e11b81525f600482015260240161052f565b6001600160a01b038516610c9557604051626a0d4560e21b81525f600482015260240161052f565b60408051600180825260208201869052818301908152606082018590526080820190925290610cc78787848487610d32565b50505050505050565b6001600160a01b038316610cf857604051626a0d4560e21b81525f600482015260240161052f565b604080516001808252602082018590528183019081526060820184905260a082019092525f60808201818152919291610a38918791859085905b610d3e85858585610dba565b6001600160a01b03841615610a385782513390600103610d775760208481015190840151610d70838989858589610dc6565b5050610545565b610545818787878787610ee7565b610d8d610fce565b61068c57604051631afcd79f60e31b815260040160405180910390fd5b6103f9610d85565b6108a8610d85565b6104db84848484610fe7565b6001600160a01b0384163b156105455760405163f23a6e6160e01b81526001600160a01b0385169063f23a6e6190610e0a9089908990889088908890600401611acf565b6020604051808303815f875af1925050508015610e44575060408051601f3d908101601f19168201909252610e4191810190611b13565b60015b610eab573d808015610e71576040519150601f19603f3d011682016040523d82523d5f602084013e610e76565b606091505b5080515f03610ea357604051632bfa23e760e11b81526001600160a01b038616600482015260240161052f565b805160208201fd5b6001600160e01b0319811663f23a6e6160e01b14610cc757604051632bfa23e760e11b81526001600160a01b038616600482015260240161052f565b6001600160a01b0384163b156105455760405163bc197c8160e01b81526001600160a01b0385169063bc197c8190610f2b9089908990889088908890600401611b2e565b6020604051808303815f875af1925050508015610f65575060408051601f3d908101601f19168201909252610f6291810190611b13565b60015b610f92573d808015610e71576040519150601f19603f3d011682016040523d82523d5f602084013e610e76565b6001600160e01b0319811663bc197c8160e01b14610cc757604051632bfa23e760e11b81526001600160a01b038616600482015260240161052f565b5f610fd7610bf2565b54600160401b900460ff16919050565b7f4a593662ee04d27b6a00ebb31be7fe0c102c2ade82a7c5d764f2df05dc4e2800611014858585856110f2565b6001600160a01b038516611092575f805b84518110156110775760208181028581018201519087018201515f908152918590526040822080549192839261105c908490611b8b565b9091555061106c90508184611b8b565b925050600101611025565b5080826001015f82825461108b9190611b8b565b9091555050505b6001600160a01b038416610a38575f805b84518110156110de5760208181028581018201519087018201515f9081529185905260409091208054829003905591909101906001016110a3565b506001820180549190910390555050505050565b805182515f516020611bd85f395f51905f5291146111305782518251604051635b05999160e01b81526004810192909252602482015260440161052f565b335f5b8451811015611232576020818102868101820151908601909101516001600160a01b038916156111e4575f828152602086815260408083206001600160a01b038d168452909152902054818110156111be576040516303dee4c560e01b81526001600160a01b038b16600482015260248101829052604481018390526064810184905260840161052f565b5f838152602087815260408083206001600160a01b038e16845290915290209082900390555b6001600160a01b03881615611228575f828152602086815260408083206001600160a01b038c16845290915281208054839290611222908490611b8b565b90915550505b5050600101611133565b5083516001036112b25760208401515f906020850151909150866001600160a01b0316886001600160a01b0316846001600160a01b03167fc3d58168c5ae7397731d063d5bbf3d657854427343f4c083240f7aacaa2d0f6285856040516112a3929190918252602082015260400190565b60405180910390a45050610545565b846001600160a01b0316866001600160a01b0316826001600160a01b03167f4a39dc06d4c0dbc64b70af90fd698a233a518aa5d07e595d983b8c0526c8f7fb8787604051611301929190611baa565b60405180910390a4505050505050565b80356001600160a01b0381168114611327575f5ffd5b919050565b5f5f6040838503121561133d575f5ffd5b61134683611311565b946020939093013593505050565b6001600160e01b031981168114610402575f5ffd5b5f60208284031215611379575f5ffd5b813561138481611354565b9392505050565b634e487b7160e01b5f52604160045260245ffd5b604051601f8201601f191681016001600160401b03811182821017156113c7576113c761138b565b604052919050565b5f5f6001600160401b038411156113e8576113e861138b565b50601f8301601f19166020016113fd8161139f565b915050828152838383011115611411575f5ffd5b828260208301375f602084830101529392505050565b5f60208284031215611437575f5ffd5b81356001600160401b0381111561144c575f5ffd5b8201601f8101841361145c575f5ffd5b61146b848235602084016113cf565b949350505050565b5f60208284031215611483575f5ffd5b5035919050565b5f81518084528060208401602086015e5f602082860101526020601f19601f83011685010191505092915050565b602081525f611384602083018461148a565b5f6001600160401b038211156114e2576114e261138b565b5060051b60200190565b5f82601f8301126114fb575f5ffd5b813561150e611509826114ca565b61139f565b8082825260208201915060208360051b86010192508583111561152f575f5ffd5b602085015b8381101561154c578035835260209283019201611534565b5095945050505050565b5f82601f830112611565575f5ffd5b611384838335602085016113cf565b5f5f5f5f60808587031215611587575f5ffd5b61159085611311565b935060208501356001600160401b038111156115aa575f5ffd5b6115b6878288016114ec565b93505060408501356001600160401b038111156115d1575f5ffd5b6115dd878288016114ec565b92505060608501356001600160401b038111156115f8575f5ffd5b61160487828801611556565b91505092959194509250565b5f5f5f5f5f60a08688031215611624575f5ffd5b61162d86611311565b945061163b60208701611311565b935060408601356001600160401b03811115611655575f5ffd5b611661888289016114ec565b93505060608601356001600160401b0381111561167c575f5ffd5b611688888289016114ec565b92505060808601356001600160401b038111156116a3575f5ffd5b6116af88828901611556565b9150509295509295909350565b5f5f604083850312156116cd575f5ffd5b82356001600160401b038111156116e2575f5ffd5b8301601f810185136116f2575f5ffd5b8035611700611509826114ca565b8082825260208201915060208360051b850101925087831115611721575f5ffd5b6020840193505b8284101561174a5761173984611311565b825260209384019390910190611728565b945050505060208301356001600160401b03811115611767575f5ffd5b611773858286016114ec565b9150509250929050565b5f8151808452602084019350602083015f5b828110156117ad57815186526020958601959091019060010161178f565b5093949350505050565b602081525f611384602083018461177d565b5f5f5f606084860312156117db575f5ffd5b6117e484611311565b925060208401356001600160401b038111156117fe575f5ffd5b61180a868287016114ec565b92505060408401356001600160401b03811115611825575f5ffd5b611831868287016114ec565b9150509250925092565b5f5f5f5f6080858703121561184e575f5ffd5b61185785611311565b9350602085013592506040850135915060608501356001600160401b038111156115f8575f5ffd5b5f5f60408385031215611890575f5ffd5b61189983611311565b9150602083013580151581146118ad575f5ffd5b809150509250929050565b5f602082840312156118c8575f5ffd5b61138482611311565b5f5f604083850312156118e2575f5ffd5b6118eb83611311565b91506118f960208401611311565b90509250929050565b5f5f5f5f5f60a08688031215611916575f5ffd5b61191f86611311565b945061192d60208701611311565b9350604086013592506060860135915060808601356001600160401b038111156116a3575f5ffd5b5f5f5f60608486031215611967575f5ffd5b61197084611311565b95602085013595506040909401359392505050565b600181811c9082168061199957607f821691505b6020821081036119b757634e487b7160e01b5f52602260045260245ffd5b50919050565b634e487b7160e01b5f52603260045260245ffd5b601f82111561067657805f5260205f20601f840160051c810160208510156119f65750805b601f840160051c820191505b81811015610a38575f8155600101611a02565b81516001600160401b03811115611a2e57611a2e61138b565b611a4281611a3c8454611985565b846119d1565b6020601f821160018114611a74575f8315611a5d5750848201515b5f19600385901b1c1916600184901b178455610a38565b5f84815260208120601f198516915b82811015611aa35787850151825560209485019460019092019101611a83565b5084821015611ac057868401515f19600387901b60f8161c191681555b50505050600190811b01905550565b6001600160a01b03868116825285166020820152604081018490526060810183905260a0608082018190525f90611b089083018461148a565b979650505050505050565b5f60208284031215611b23575f5ffd5b815161138481611354565b6001600160a01b0386811682528516602082015260a0604082018190525f90611b599083018661177d565b8281036060840152611b6b818661177d565b90508281036080840152611b7f818561148a565b98975050505050505050565b8082018082111561039c57634e487b7160e01b5f52601160045260245ffd5b604081525f611bbc604083018561177d565b8281036020840152611bce818561177d565b9594505050505056fe88be536d5240c274a3b1d3a1be54482fd9caa294f08c62a7cde569f49a3c4500a2646970667358221220cce66b8a5f2b1dce09f313b3c9a798675d10e02e661f5afabb5de5b0c29666ea64736f6c634300081b0033",
  "linkReferences": {},
  "deployedLinkReferences": {},
  "immutableReferences": {},
  "inputSourceName": "project/contracts/TransparentMultiToken.sol",
  "buildInfoId": "solc-0_8_27-a7a3d8b0f995e8083592179cd7fdd706b5fa72ce"
}