{
  "_format": "hh-sol-artifact-1",
  "contractName": "ComplexMultiToken",
  "sourceName": "ComplexMultiToken.sol",
  "abi": [
    {
      "inputs": [
        {
          "internalType": "address",
          "name": "initialOwner",
          "type": "address"
        }
      ],
      "stateMutability": "nonpayable",
      "type": "constructor"
    },
    {
      "inputs": [
        {
          "internalType": "address",
          "name": "sender",
          "type": "address"
        },
        {
          "internalType": "uint256",
          "name": "balance",
          "type": "uint256"
        },
        {
          "internalType": "uint256",
          "name": "needed",
          "type": "uint256"
        },
        {
          "internalType": "uint256",
          "name": "tokenId",
          "type": "uint256"
        }
      ],
      "name": "ERC1155InsufficientBalance",
      "type": "error"
    },
    {
      "inputs": [
        {
          "internalType": "address",
          "name": "approver",
          "type": "address"
        }
      ],
      "name": "ERC1155InvalidApprover",
      "type": "error"
    },
    {
      "inputs": [
        {
          "internalType": "uint256",
          "name": "idsLength",
          "type": "uint256"
        },
        {
          "internalType": "uint256",
          "name": "valuesLength",
          "type": "uint256"
        }
      ],
      "name": "ERC1155InvalidArrayLength",
      "type": "error"
    },
    {
      "inputs": [
        {
          "internalType": "address",
          "name": "operator",
          "type": "address"
        }
      ],
      "name": "ERC1155InvalidOperator",
      "type": "error"
    },
    {
      "inputs": [
        {
          "internalType": "address",
          "name": "receiver",
          "type": "address"
        }
      ],
      "name": "ERC1155InvalidReceiver",
      "type": "error"
    },
    {
      "inputs": [
        {
          "internalType": "address",
          "name": "sender",
          "type": "address"
        }
      ],
      "name": "ERC1155InvalidSender",
      "type": "error"
    },
    {
      "inputs": [
        {
          "internalType": "address",
          "name": "operator",
          "type": "address"
        },
        {
          "internalType": "address",
          "name": "owner",
          "type": "address"
        }
      ],
      "name": "ERC1155MissingApprovalForAll",
      "type": "error"
    },
    {
      "inputs": [],
      "name": "EnforcedPause",
      "type": "error"
    },
    {
      "inputs": [],
      "name": "ExpectedPause",
      "type": "error"
    },
    {
      "inputs": [
        {
          "internalType": "address",
          "name": "owner",
          "type": "address"
        }
      ],
      "name": "OwnableInvalidOwner",
      "type": "error"
    },
    {
      "inputs": [
        {
          "internalType": "address",
          "name": "account",
          "type": "address"
        }
      ],
      "name": "OwnableUnauthorizedAccount",
      "type": "error"
    },
    {
      "anonymous": false,
      "inputs": [
        {
          "indexed": true,
          "internalType": "address",
          "name": "account",
          "type": "address"
        },
        {
          "indexed": true,
          "internalType": "address",
          "name": "operator",
          "type": "address"
        },
        {
          "indexed": false,
          "internalType": "bool",
          "name": "approved",
          "type": "bool"
        }
      ],
      "name": "ApprovalForAll",
      "type": "event"
    },
    {
      "anonymous": false,
      "inputs": [
        {
          "indexed": true,
          "internalType": "address",
          "name": "previousOwner",
          "type": "address"
        },
        {
          "indexed": true,
          "internalType": "address",
          "name": "newOwner",
          "type": "address"
        }
      ],
      "name": "OwnershipTransferred",
      "type": "event"
    },
    {
      "anonymous": false,
      "inputs": [
        {
          "indexed": false,
          "internalType": "address",
          "name": "account",
          "type": "address"
        }
      ],
      "name": "Paused",
      "type": "event"
    },
    {
      "anonymous": false,
      "inputs": [
        {
          "indexed": true,
          "internalType": "address",
          "name": "operator",
          "type": "address"
        },
        {
          "indexed": true,
          "internalType": "address",
          "name": "from",
          "type": "address"
        },
        {
          "indexed": true,
          "internalType": "address",
          "name": "to",
          "type": "address"
        },
        {
          "indexed": false,
          "internalType": "uint256[]",
          "name": "ids",
          "type": "uint256[]"
        },
        {
          "indexed": false,
          "internalType": "uint256[]",
          "name": "values",
          "type": "uint256[]"
        }
      ],
      "name": "TransferBatch",
      "type": "event"
    },
    {
      "anonymous": false,
      "inputs": [
        {
          "indexed": true,
          "internalType": "address",
          "name": "operator",
          "type": "address"
        },
        {
          "indexed": true,
          "internalType": "address",
          "name": "from",
          "type": "address"
        },
        {
          "indexed": true,
          "internalType": "address",
          "name": "to",
          "type": "address"
        },
        {
          "indexed": false,
          "internalType": "uint256",
          "name": "id",
          "type": "uint256"
        },
        {
          "indexed": false,
          "internalType": "uint256",
          "name": "value",
          "type": "uint256"
        }
      ],
      "name": "TransferSingle",
      "type": "event"
    },
    {
      "anonymous": false,
      "inputs": [
        {
          "indexed": false,
          "internalType": "string",
          "name": "value",
          "type": "string"
        },
        {
          "indexed": true,
          "internalType": "uint256",
          "name": "id",
          "type": "uint256"
        }
      ],
      "name": "URI",
      "type": "event"
    },
    {
      "anonymous": false,
      "inputs": [
        {
          "indexed": false,
          "internalType": "address",
          "name": "account",
          "type": "address"
        }
      ],
      "name": "Unpaused",
      "type": "event"
    },
    {
      "inputs": [
        {
          "internalType": "address",
          "name": "account",
          "type": "address"
        },
        {
          "internalType": "uint256",
          "name": "id",
          "type": "uint256"
        }
      ],
      "name": "balanceOf",
      "outputs": [
        {
          "internalType": "uint256",
          "name": "",
          "type": "uint256"
        }
      ],
      "stateMutability": "view",
      "type": "function"
    },
    {
      "inputs": [
        {
          "internalType": "address[]",
          "name": "accounts",
          "type": "address[]"
        },
        {
          "internalType": "uint256[]",
          "name": "ids",
          "type": "uint256[]"
        }
      ],
      "name": "balanceOfBatch",
      "outputs": [
        {
          "internalType": "uint256[]",
          "name": "",
          "type": "uint256[]"
        }
      ],
      "stateMutability": "view",
      "type": "function"
    },
    {
      "inputs": [
        {
          "internalType": "address",
          "name": "account",
          "type": "address"
        },
        {
          "internalType": "uint256",
          "name": "id",
          "type": "uint256"
        },
        {
          "internalType": "uint256",
          "name": "value",
          "type": "uint256"
        }
      ],
      "name": "burn",
      "outputs": [],
      "stateMutability": "nonpayable",
      "type": "function"
    },
    {
      "inputs": [
        {
          "internalType": "address",
          "name": "account",
          "type": "address"
        },
        {
          "internalType": "uint256[]",
          "name": "ids",
          "type": "uint256[]"
        },
        {
          "internalType": "uint256[]",
          "name": "values",
          "type": "uint256[]"
        }
      ],
      "name": "burnBatch",
      "outputs": [],
      "stateMutability": "nonpayable",
      "type": "function"
    },
    {
      "inputs": [
        {
          "internalType": "uint256",
          "name": "id",
          "type": "uint256"
        }
      ],
      "name": "exists",
      "outputs": [
        {
          "internalType": "bool",
          "name": "",
          "type": "bool"
        }
      ],
      "stateMutability": "view",
      "type": "function"
    },
    {
      "inputs": [
        {
          "internalType": "address",
          "name": "account",
          "type": "address"
        },
        {
          "internalType": "address",
          "name": "operator",
          "type": "address"
        }
      ],
      "name": "isApprovedForAll",
      "outputs": [
        {
          "internalType": "bool",
          "name": "",
          "type": "bool"
        }
      ],
      "stateMutability": "view",
      "type": "function"
    },
    {
      "inputs": [
        {
          "internalType": "address",
          "name": "account",
          "type": "address"
        },
        {
          "internalType": "uint256",
          "name": "id",
          "type": "uint256"
        },
        {
          "internalType": "uint256",
          "name": "amount",
          "type": "uint256"
        },
        {
          "internalType": "bytes",
          "name": "data",
          "type": "bytes"
        }
      ],
      "name": "mint",
      "outputs": [],
      "stateMutability": "nonpayable",
      "type": "function"
    },
    {
      "inputs": [
        {
          "internalType": "address",
          "name": "to",
          "type": "address"
        },
        {
          "internalType": "uint256[]",
          "name": "ids",
          "type": "uint256[]"
        },
        {
          "internalType": "uint256[]",
          "name": "amounts",
          "type": "uint256[]"
        },
        {
          "internalType": "bytes",
          "name": "data",
          "type": "bytes"
        }
      ],
      "name": "mintBatch",
      "outputs": [],
      "stateMutability": "nonpayable",
      "type": "function"
    },
    {
      "inputs": [],
      "name": "owner",
      "outputs": [
        {
          "internalType": "address",
          "name": "",
          "type": "address"
        }
      ],
      "stateMutability": "view",
      "type": "function"
    },
    {
      "inputs": [],
      "name": "pause",
      "outputs": [],
      "stateMutability": "nonpayable",
      "type": "function"
    },
    {
      "inputs": [],
      "name": "paused",
      "outputs": [
        {
          "internalType": "bool",
          "name": "",
          "type": "bool"
        }
      ],
      "stateMutability": "view",
      "type": "function"
    },
    {
      "inputs": [],
      "name": "renounceOwnership",
      "outputs": [],
      "stateMutability": "nonpayable",
      "type": "function"
    },
    {
      "inputs": [
        {
          "internalType": "address",
          "name": "from",
          "type": "address"
        },
        {
          "internalType": "address",
          "name": "to",
          "type": "address"
        },
        {
          "internalType": "uint256[]",
          "name": "ids",
          "type": "uint256[]"
        },
        {
          "internalType": "uint256[]",
          "name": "values",
          "type": "uint256[]"
        },
        {
          "internalType": "bytes",
          "name": "data",
          "type": "bytes"
        }
      ],
      "name": "safeBatchTransferFrom",
      "outputs": [],
      "stateMutability": "nonpayable",
      "type": "function"
    },
    {
      "inputs": [
        {
          "internalType": "address",
          "name": "from",
          "type": "address"
        },
        {
          "internalType": "address",
          "name": "to",
          "type": "address"
        },
        {
          "internalType": "uint256",
          "name": "id",
          "type": "uint256"
        },
        {
          "internalType": "uint256",
          "name": "value",
          "type": "uint256"
        },
        {
          "internalType": "bytes",
          "name": "data",
          "type": "bytes"
        }
      ],
      "name": "safeTransferFrom",
      "outputs": [],
      "stateMutability": "nonpayable",
      "type": "function"
    },
    {
      "inputs": [
        {
          "internalType": "address",
          "name": "operator",
          "type": "address"
        },
        {
          "internalType": "bool",
          "name": "approved",
          "type": "bool"
        }
      ],
      "name": "setApprovalForAll",
      "outputs": [],
      "stateMutability": "nonpayable",
      "type": "function"
    },
    {
      "inputs": [
        {
          "internalType": "string",
          "name": "newuri",
          "type": "string"
        }
      ],
      "name": "setURI",
      "outputs": [],
      "stateMutability": "nonpayable",
      "type": "function"
    },
    {
      "inputs": [
        {
          "internalType": "bytes4",
          "name": "interfaceId",
          "type": "bytes4"
        }
      ],
      "name": "supportsInterface",
      "outputs": [
        {
          "internalType": "bool",
          "name": "",
          "type": "bool"
        }
      ],
      "stateMutability": "view",
      "type": "function"
    },
    {
      "inputs": [],
      "name": "totalSupply",
      "outputs": [
        {
          "internalType": "uint256",
          "name": "",
          "type": "uint256"
        }
      ],
      "stateMutability": "view",
      "type": "function"
    },
    {
      "inputs": [
        {
          "internalType": "uint256",
          "name": "id",
          "type": "uint256"
        }
      ],
      "name": "totalSupply",
      "outputs": [
        {
          "internalType": "uint256",
          "name": "",
          "type": "uint256"
        }
      ],
      "stateMutability": "view",
      "type": "function"
    },
    {
      "inputs": [
        {
          "internalType": "address",
          "name": "newOwner",
          "type": "address"
        }
      ],
      "name": "transferOwnership",
      "outputs": [],
      "stateMutability": "nonpayable",
      "type": "function"
    },
    {
      "inputs": [],
      "name": "unpause",
      "outputs": [],
      "stateMutability": "nonpayable",
      "type": "function"
    },
    {
      "inputs": [
        {
          "internalType": "uint256",
          "name": "",
          "type": "uint256"
        }
      ],
      "name": "uri",
      "outputs": [
        {
          "internalType": "string",
          "name": "",
          "type": "string"
        }
      ],
      "stateMutability": "view",
      "type": "function"
    }
  ],
  "bytecode": "0x60806040523480156200001157600080fd5b5060405162001d5438038062001d54833981016040819052620000349162000129565b60408051808201909152601f81527f697066733a2f2f516d436f6d706c6578546f6b656e2f7b69647d2e6a736f6e00602082015281906200007581620000c5565b506001600160a01b038116620000a557604051631e4fbdf760e01b81526000600482015260240160405180910390fd5b620000b081620000d7565b50506003805460ff60a01b19169055620002ce565b6002620000d3828262000202565b5050565b600380546001600160a01b038381166001600160a01b0319831681179093556040519116919082907f8be0079c531659141344cd1fd0a4f28419497f9722a3daafe3b4186f6b6457e090600090a35050565b6000602082840312156200013c57600080fd5b81516001600160a01b03811681146200015457600080fd5b9392505050565b634e487b7160e01b600052604160045260246000fd5b600181811c908216806200018657607f821691505b602082108103620001a757634e487b7160e01b600052602260045260246000fd5b50919050565b601f821115620001fd576000816000526020600020601f850160051c81016020861015620001d85750805b601f850160051c820191505b81811015620001f957828155600101620001e4565b5050505b505050565b81516001600160401b038111156200021e576200021e6200015b565b62000236816200022f845462000171565b84620001ad565b602080601f8311600181146200026e5760008415620002555750858301515b600019600386901b1c1916600185901b178555620001f9565b600085815260208120601f198616915b828110156200029f578886015182559484019460019091019084016200027e565b5085821015620002be5787850151600019600388901b60f8161c191681555b5050505050600190811b01905550565b611a7680620002de6000396000f3fe608060405234801561001057600080fd5b50600436106101415760003560e01c80636b20c454116100b8578063a22cb4651161007c578063a22cb4651461029f578063bd85b039146102b2578063e985e9c5146102d2578063f242432a146102e5578063f2fde38b146102f8578063f5298aca1461030b57600080fd5b80636b20c4541461024e578063715018a614610261578063731133e9146102695780638456cb591461027c5780638da5cb5b1461028457600080fd5b80631f7fdffa1161010a5780631f7fdffa146101cc5780632eb2c2d6146101df5780633f4ba83a146101f25780634e1273f4146101fa5780634f558e791461021a5780635c975abb1461023c57600080fd5b8062fdd58e1461014657806301ffc9a71461016c57806302fe53051461018f5780630e89341c146101a457806318160ddd146101c4575b600080fd5b610159610154366004611123565b61031e565b6040519081526020015b60405180910390f35b61017f61017a366004611163565b610346565b6040519015158152602001610163565b6101a261019d366004611226565b610396565b005b6101b76101b2366004611277565b6103aa565b60405161016391906112d6565b600554610159565b6101a26101da36600461139c565b61043e565b6101a26101ed366004611435565b610458565b6101a26104c4565b61020d6102083660046114df565b6104d6565b60405161016391906115db565b61017f610228366004611277565b600090815260046020526040902054151590565b600354600160a01b900460ff1661017f565b6101a261025c3660046115ee565b6105a3565b6101a2610607565b6101a2610277366004611662565b610619565b6101a261062d565b6003546040516001600160a01b039091168152602001610163565b6101a26102ad3660046116b7565b61063d565b6101596102c0366004611277565b60009081526004602052604090205490565b61017f6102e03660046116f3565b61064c565b6101a26102f3366004611726565b61067a565b6101a261030636600461178b565b6106d9565b6101a26103193660046117a6565b610714565b6000818152602081815260408083206001600160a01b03861684529091529020545b92915050565b60006001600160e01b03198216636cdb3d1360e11b148061037757506001600160e01b031982166303a24d0760e21b145b8061034057506301ffc9a760e01b6001600160e01b0319831614610340565b61039e61074a565b6103a781610777565b50565b6060600280546103b9906117d9565b80601f01602080910402602001604051908101604052809291908181526020018280546103e5906117d9565b80156104325780601f1061040757610100808354040283529160200191610432565b820191906000526020600020905b81548152906001019060200180831161041557829003601f168201915b50505050509050919050565b61044661074a565b61045284848484610783565b50505050565b336001600160a01b03861681148015906104795750610477868261064c565b155b156104af5760405163711bec9160e11b81526001600160a01b038083166004830152871660248201526044015b60405180910390fd5b6104bc86868686866107bb565b505050505050565b6104cc61074a565b6104d4610822565b565b606081518351146105075781518351604051635b05999160e01b8152600481019290925260248201526044016104a6565b6000835167ffffffffffffffff81111561052357610523611187565b60405190808252806020026020018201604052801561054c578160200160208202803683370190505b50905060005b845181101561059b576020808202860101516105769060208084028701015161031e565b82828151811061058857610588611813565b6020908102919091010152600101610552565b509392505050565b6001600160a01b03831633148015906105c357506105c1833361064c565b155b156105f757335b60405163711bec9160e11b81526001600160a01b03918216600482015290841660248201526044016104a6565b610602838383610877565b505050565b61060f61074a565b6104d460006108bd565b61062161074a565b6104528484848461090f565b61063561074a565b6104d461096c565b6106483383836109af565b5050565b6001600160a01b03918216600090815260016020908152604080832093909416825291909152205460ff1690565b336001600160a01b038616811480159061069b5750610699868261064c565b155b156106cc5760405163711bec9160e11b81526001600160a01b038083166004830152871660248201526044016104a6565b6104bc8686868686610a45565b6106e161074a565b6001600160a01b03811661070b57604051631e4fbdf760e01b8152600060048201526024016104a6565b6103a7816108bd565b6001600160a01b03831633148015906107345750610732833361064c565b155b1561073f57336105ca565b610602838383610ad3565b6003546001600160a01b031633146104d45760405163118cdaa760e01b81523360048201526024016104a6565b60026106488282611871565b6001600160a01b0384166107ad57604051632bfa23e760e11b8152600060048201526024016104a6565b610452600085858585610b37565b6001600160a01b0384166107e557604051632bfa23e760e11b8152600060048201526024016104a6565b6001600160a01b03851661080e57604051626a0d4560e21b8152600060048201526024016104a6565b61081b8585858585610b37565b5050505050565b61082a610b8a565b6003805460ff60a01b191690557f5db9ee0a495bf2e6ff9c91a7834c1ba4fdd244a5e8aa4e537bd38aeae4b073aa335b6040516001600160a01b03909116815260200160405180910390a1565b6001600160a01b0383166108a057604051626a0d4560e21b8152600060048201526024016104a6565b610602836000848460405180602001604052806000815250610b37565b600380546001600160a01b038381166001600160a01b0319831681179093556040519116919082907f8be0079c531659141344cd1fd0a4f28419497f9722a3daafe3b4186f6b6457e090600090a35050565b6001600160a01b03841661093957604051632bfa23e760e11b8152600060048201526024016104a6565b604080516001808252602082018690528183019081526060820185905260808201909252906104bc600087848487610b37565b610974610bb4565b6003805460ff60a01b1916600160a01b1790557f62e78cea01bee320cd4e420270b5ea74000d11b0c9f74754ebdbfc544b05a25861085a3390565b6001600160a01b0382166109d85760405162ced3e160e81b8152600060048201526024016104a6565b6001600160a01b03838116600081815260016020908152604080832094871680845294825291829020805460ff191686151590811790915591519182527f17307eab39ab6107e8899845ad3d59bd9653f200f220920489ca2b5937696c31910160405180910390a3505050565b6001600160a01b038416610a6f57604051632bfa23e760e11b8152600060048201526024016104a6565b6001600160a01b038516610a9857604051626a0d4560e21b8152600060048201526024016104a6565b60408051600180825260208201869052818301908152606082018590526080820190925290610aca8787848487610b37565b50505050505050565b6001600160a01b038316610afc57604051626a0d4560e21b8152600060048201526024016104a6565b604080516001808252602082018590528183019081526060820184905260a0820190925260006080820181815291929161081b918791859085905b610b4385858585610bdf565b6001600160a01b0384161561081b5782513390600103610b7c5760208481015190840151610b75838989858589610beb565b50506104bc565b6104bc818787878787610d0f565b600354600160a01b900460ff166104d457604051638dfc202b60e01b815260040160405180910390fd5b600354600160a01b900460ff16156104d45760405163d93c066560e01b815260040160405180910390fd5b61045284848484610df8565b6001600160a01b0384163b156104bc5760405163f23a6e6160e01b81526001600160a01b0385169063f23a6e6190610c2f9089908990889088908890600401611931565b6020604051808303816000875af1925050508015610c6a575060408051601f3d908101601f19168201909252610c6791810190611976565b60015b610cd3573d808015610c98576040519150601f19603f3d011682016040523d82523d6000602084013e610c9d565b606091505b508051600003610ccb57604051632bfa23e760e11b81526001600160a01b03861660048201526024016104a6565b805181602001fd5b6001600160e01b0319811663f23a6e6160e01b14610aca57604051632bfa23e760e11b81526001600160a01b03861660048201526024016104a6565b6001600160a01b0384163b156104bc5760405163bc197c8160e01b81526001600160a01b0385169063bc197c8190610d539089908990889088908890600401611993565b6020604051808303816000875af1925050508015610d8e575060408051601f3d908101601f19168201909252610d8b91810190611976565b60015b610dbc573d808015610c98576040519150601f19603f3d011682016040523d82523d6000602084013e610c9d565b6001600160e01b0319811663bc197c8160e01b14610aca57604051632bfa23e760e11b81526001600160a01b03861660048201526024016104a6565b610e0484848484610ee4565b6001600160a01b038416610e84576000805b8351811015610e6a5760208181028481018201519086018201516000908152600490925260408220805491928392610e4f9084906119f1565b90915550610e5f905081846119f1565b925050600101610e16565b508060056000828254610e7d91906119f1565b9091555050505b6001600160a01b038316610452576000805b8351811015610ed3576020818102848101820151908601820151600090815260049092526040909120805482900390559190910190600101610e96565b506005805491909103905550505050565b610eec610bb4565b610452848484848051825114610f225781518151604051635b05999160e01b8152600481019290925260248201526044016104a6565b3360005b8351811015611028576020818102858101820151908501909101516001600160a01b03881615610fd9576000828152602081815260408083206001600160a01b038c16845290915290205481811015610fb2576040516303dee4c560e01b81526001600160a01b038a1660048201526024810182905260448101839052606481018490526084016104a6565b6000838152602081815260408083206001600160a01b038d16845290915290209082900390555b6001600160a01b0387161561101e576000828152602081815260408083206001600160a01b038b168452909152812080548392906110189084906119f1565b90915550505b5050600101610f26565b5082516001036110a95760208301516000906020840151909150856001600160a01b0316876001600160a01b0316846001600160a01b03167fc3d58168c5ae7397731d063d5bbf3d657854427343f4c083240f7aacaa2d0f62858560405161109a929190918252602082015260400190565b60405180910390a4505061081b565b836001600160a01b0316856001600160a01b0316826001600160a01b03167f4a39dc06d4c0dbc64b70af90fd698a233a518aa5d07e595d983b8c0526c8f7fb86866040516110f8929190611a12565b60405180910390a45050505050565b80356001600160a01b038116811461111e57600080fd5b919050565b6000806040838503121561113657600080fd5b61113f83611107565b946020939093013593505050565b6001600160e01b0319811681146103a757600080fd5b60006020828403121561117557600080fd5b81356111808161114d565b9392505050565b634e487b7160e01b600052604160045260246000fd5b604051601f8201601f1916810167ffffffffffffffff811182821017156111c6576111c6611187565b604052919050565b600067ffffffffffffffff8311156111e8576111e8611187565b6111fb601f8401601f191660200161119d565b905082815283838301111561120f57600080fd5b828260208301376000602084830101529392505050565b60006020828403121561123857600080fd5b813567ffffffffffffffff81111561124f57600080fd5b8201601f8101841361126057600080fd5b61126f848235602084016111ce565b949350505050565b60006020828403121561128957600080fd5b5035919050565b6000815180845260005b818110156112b65760208185018101518683018201520161129a565b506000602082860101526020601f19601f83011685010191505092915050565b6020815260006111806020830184611290565b600067ffffffffffffffff82111561130357611303611187565b5060051b60200190565b600082601f83011261131e57600080fd5b8135602061133361132e836112e9565b61119d565b8083825260208201915060208460051b87010193508684111561135557600080fd5b602086015b84811015611371578035835291830191830161135a565b509695505050505050565b600082601f83011261138d57600080fd5b611180838335602085016111ce565b600080600080608085870312156113b257600080fd5b6113bb85611107565b9350602085013567ffffffffffffffff808211156113d857600080fd5b6113e48883890161130d565b945060408701359150808211156113fa57600080fd5b6114068883890161130d565b9350606087013591508082111561141c57600080fd5b506114298782880161137c565b91505092959194509250565b600080600080600060a0868803121561144d57600080fd5b61145686611107565b945061146460208701611107565b9350604086013567ffffffffffffffff8082111561148157600080fd5b61148d89838a0161130d565b945060608801359150808211156114a357600080fd5b6114af89838a0161130d565b935060808801359150808211156114c557600080fd5b506114d28882890161137c565b9150509295509295909350565b600080604083850312156114f257600080fd5b823567ffffffffffffffff8082111561150a57600080fd5b818501915085601f83011261151e57600080fd5b8135602061152e61132e836112e9565b82815260059290921b8401810191818101908984111561154d57600080fd5b948201945b838610156115725761156386611107565b82529482019490820190611552565b9650508601359250508082111561158857600080fd5b506115958582860161130d565b9150509250929050565b60008151808452602080850194506020840160005b838110156115d0578151875295820195908201906001016115b4565b509495945050505050565b602081526000611180602083018461159f565b60008060006060848603121561160357600080fd5b61160c84611107565b9250602084013567ffffffffffffffff8082111561162957600080fd5b6116358783880161130d565b9350604086013591508082111561164b57600080fd5b506116588682870161130d565b9150509250925092565b6000806000806080858703121561167857600080fd5b61168185611107565b93506020850135925060408501359150606085013567ffffffffffffffff8111156116ab57600080fd5b6114298782880161137c565b600080604083850312156116ca57600080fd5b6116d383611107565b9150602083013580151581146116e857600080fd5b809150509250929050565b6000806040838503121561170657600080fd5b61170f83611107565b915061171d60208401611107565b90509250929050565b600080600080600060a0868803121561173e57600080fd5b61174786611107565b945061175560208701611107565b93506040860135925060608601359150608086013567ffffffffffffffff81111561177f57600080fd5b6114d28882890161137c565b60006020828403121561179d57600080fd5b61118082611107565b6000806000606084860312156117bb57600080fd5b6117c484611107565b95602085013595506040909401359392505050565b600181811c908216806117ed57607f821691505b60208210810361180d57634e487b7160e01b600052602260045260246000fd5b50919050565b634e487b7160e01b600052603260045260246000fd5b601f821115610602576000816000526020600020601f850160051c810160208610156118525750805b601f850160051c820191505b818110156104bc5782815560010161185e565b815167ffffffffffffffff81111561188b5761188b611187565b61189f8161189984546117d9565b84611829565b602080601f8311600181146118d457600084156118bc5750858301515b600019600386901b1c1916600185901b1785556104bc565b600085815260208120601f198616915b82811015611903578886015182559484019460019091019084016118e4565b50858210156119215787850151600019600388901b60f8161c191681555b5050505050600190811b01905550565b6001600160a01b03868116825285166020820152604081018490526060810183905260a06080820181905260009061196b90830184611290565b979650505050505050565b60006020828403121561198857600080fd5b81516111808161114d565b6001600160a01b0386811682528516602082015260a0604082018190526000906119bf9083018661159f565b82810360608401526119d1818661159f565b905082810360808401526119e58185611290565b98975050505050505050565b8082018082111561034057634e487b7160e01b600052601160045260246000fd5b604081526000611a25604083018561159f565b8281036020840152611a37818561159f565b9594505050505056fea2646970667358221220007413288a4f95d49f03a06af3ece25a1877cb7645cab754151bfedd845a92d464736f6c63430008160033",
  "linkReferences": {},
  "deployedLinkReferences": {}
}