{
  "_format": "hh-sol-artifact-1",
  "contractName": "UUPSNFT",
  "sourceName": "contracts/UUPSNFT.sol",
  "abi": [
    {
      "inputs": [],
      "stateMutability": "nonpayable",
      "type": "constructor"
    },
    {
      "inputs": [
        {
          "internalType": "address",
          "name": "target",
          "type": "address"
        }
      ],
      "name": "AddressEmptyCode",
      "type": "error"
    },
    {
      "inputs": [
        {
          "internalType": "address",
          "name": "implementation",
          "type": "address"
        }
      ],
      "name": "ERC1967InvalidImplementation",
      "type": "error"
    },
    {
      "inputs": [],
      "name": "ERC1967NonPayable",
      "type": "error"
    },
    {
      "inputs": [
        {
          "internalType": "address",
          "name": "sender",
          "type": "address"
        },
        {
          "internalType": "uint256",
          "name": "tokenId",
          "type": "uint256"
        },
        {
          "internalType": "address",
          "name": "owner",
          "type": "address"
        }
      ],
      "name": "ERC721IncorrectOwner",
      "type": "error"
    },
    {
      "inputs": [
        {
          "internalType": "address",
          "name": "operator",
          "type": "address"
        },
        {
          "internalType": "uint256",
          "name": "tokenId",
          "type": "uint256"
        }
      ],
      "name": "ERC721InsufficientApproval",
      "type": "error"
    },
    {
      "inputs": [
        {
          "internalType": "address",
          "name": "approver",
          "type": "address"
        }
      ],
      "name": "ERC721InvalidApprover",
      "type": "error"
    },
    {
      "inputs": [
        {
          "internalType": "address",
          "name": "operator",
          "type": "address"
        }
      ],
      "name": "ERC721InvalidOperator",
      "type": "error"
    },
    {
      "inputs": [
        {
          "internalType": "address",
          "name": "owner",
          "type": "address"
        }
      ],
      "name": "ERC721InvalidOwner",
      "type": "error"
    },
    {
      "inputs": [
        {
          "internalType": "address",
          "name": "receiver",
          "type": "address"
        }
      ],
      "name": "ERC721InvalidReceiver",
      "type": "error"
    },
    {
      "inputs": [
        {
          "internalType": "address",
          "name": "sender",
          "type": "address"
        }
      ],
      "name": "ERC721InvalidSender",
      "type": "error"
    },
    {
      "inputs": [
        {
          "internalType": "uint256",
          "name": "tokenId",
          "type": "uint256"
        }
      ],
      "name": "ERC721NonexistentToken",
      "type": "error"
    },
    {
      "inputs": [],
      "name": "EnforcedPause",
      "type": "error"
    },
    {
      "inputs": [],
      "name": "ExpectedPause",
      "type": "error"
    },
    {
      "inputs": [],
      "name": "FailedCall",
      "type": "error"
    },
    {
      "inputs": [],
      "name": "InvalidInitialization",
      "type": "error"
    },
    {
      "inputs": [],
      "name": "NotInitializing",
      "type": "error"
    },
    {
      "inputs": [
        {
          "internalType": "address",
          "name": "owner",
          "type": "address"
        }
      ],
      "name": "OwnableInvalidOwner",
      "type": "error"
    },
    {
      "inputs": [
        {
          "internalType": "address",
          "name": "account",
          "type": "address"
        }
      ],
      "name": "OwnableUnauthorizedAccount",
      "type": "error"
    },
    {
      "inputs": [],
      "name": "UUPSUnauthorizedCallContext",
      "type": "error"
    },
    {
      "inputs": [
        {
          "internalType": "bytes32",
          "name": "slot",
          "type": "bytes32"
        }
      ],
      "name": "UUPSUnsupportedProxiableUUID",
      "type": "error"
    },
    {
      "anonymous": false,
      "inputs": [
        {
          "indexed": true,
          "internalType": "address",
          "name": "owner",
          "type": "address"
        },
        {
          "indexed": true,
          "internalType": "address",
          "name": "approved",
          "type": "address"
        },
        {
          "indexed": true,
          "internalType": "uint256",
          "name": "tokenId",
          "type": "uint256"
        }
      ],
      "name": "Approval",
      "type": "event"
    },
    {
      "anonymous": false,
      "inputs": [
        {
          "indexed": true,
          "internalType": "address",
          "name": "owner",
          "type": "address"
        },
        {
          "indexed": true,
          "internalType": "address",
          "name": "operator",
          "type": "address"
        },
        {
          "indexed": false,
          "internalType": "bool",
          "name": "approved",
          "type": "bool"
        }
      ],
      "name": "ApprovalForAll",
      "type": "event"
    },
    {
      "anonymous": false,
      "inputs": [
        {
          "indexed": false,
          "internalType": "uint64",
          "name": "version",
          "type": "uint64"
        }
      ],
      "name": "Initialized",
      "type": "event"
    },
    {
      "anonymous": false,
      "inputs": [
        {
          "indexed": true,
          "internalType": "address",
          "name": "previousOwner",
          "type": "address"
        },
        {
          "indexed": true,
          "internalType": "address",
          "name": "newOwner",
          "type": "address"
        }
      ],
      "name": "OwnershipTransferred",
      "type": "event"
    },
    {
      "anonymous": false,
      "inputs": [
        {
          "indexed": false,
          "internalType": "address",
          "name": "account",
          "type": "address"
        }
      ],
      "name": "Paused",
      "type": "event"
    },
    {
      "anonymous": false,
      "inputs": [
        {
          "indexed": true,
          "internalType": "address",
          "name": "from",
          "type": "address"
        },
        {
          "indexed": true,
          "internalType": "address",
          "name": "to",
          "type": "address"
        },
        {
          "indexed": true,
          "internalType": "uint256",
          "name": "tokenId",
          "type": "uint256"
        }
      ],
      "name": "Transfer",
      "type": "event"
    },
    {
      "anonymous": false,
      "inputs": [
        {
          "indexed": false,
          "internalType": "address",
          "name": "account",
          "type": "address"
        }
      ],
      "name": "Unpaused",
      "type": "event"
    },
    {
      "anonymous": false,
      "inputs": [
        {
          "indexed": true,
          "internalType": "address",
          "name": "implementation",
          "type": "address"
        }
      ],
      "name": "Upgraded",
      "type": "event"
    },
    {
      "inputs": [],
      "name": "UPGRADE_INTERFACE_VERSION",
      "outputs": [
        {
          "internalType": "string",
          "name": "",
          "type": "string"
        }
      ],
      "stateMutability": "view",
      "type": "function"
    },
    {
      "inputs": [
        {
          "internalType": "address",
          "name": "to",
          "type": "address"
        },
        {
          "internalType": "uint256",
          "name": "tokenId",
          "type": "uint256"
        }
      ],
      "name": "approve",
      "outputs": [],
      "stateMutability": "nonpayable",
      "type": "function"
    },
    {
      "inputs": [
        {
          "internalType": "address",
          "name": "owner",
          "type": "address"
        }
      ],
      "name": "balanceOf",
      "outputs": [
        {
          "internalType": "uint256",
          "name": "",
          "type": "uint256"
        }
      ],
      "stateMutability": "view",
      "type": "function"
    },
    {
      "inputs": [
        {
          "internalType": "uint256",
          "name": "tokenId",
          "type": "uint256"
        }
      ],
      "name": "burn",
      "outputs": [],
      "stateMutability": "nonpayable",
      "type": "function"
    },
    {
      "inputs": [
        {
          "internalType": "uint256",
          "name": "tokenId",
          "type": "uint256"
        }
      ],
      "name": "getApproved",
      "outputs": [
        {
          "internalType": "address",
          "name": "",
          "type": "address"
        }
      ],
      "stateMutability": "view",
      "type": "function"
    },
    {
      "inputs": [
        {
          "internalType": "address",
          "name": "initialOwner",
          "type": "address"
        }
      ],
      "name": "initialize",
      "outputs": [],
      "stateMutability": "nonpayable",
      "type": "function"
    },
    {
      "inputs": [
        {
          "internalType": "address",
          "name": "owner",
          "type": "address"
        },
        {
          "internalType": "address",
          "name": "operator",
          "type": "address"
        }
      ],
      "name": "isApprovedForAll",
      "outputs": [
        {
          "internalType": "bool",
          "name": "",
          "type": "bool"
        }
      ],
      "stateMutability": "view",
      "type": "function"
    },
    {
      "inputs": [],
      "name": "name",
      "outputs": [
        {
          "internalType": "string",
          "name": "",
          "type": "string"
        }
      ],
      "stateMutability": "view",
      "type": "function"
    },
    {
      "inputs": [],
      "name": "owner",
      "outputs": [
        {
          "internalType": "address",
          "name": "",
          "type": "address"
        }
      ],
      "stateMutability": "view",
      "type": "function"
    },
    {
      "inputs": [
        {
          "internalType": "uint256",
          "name": "tokenId",
          "type": "uint256"
        }
      ],
      "name": "ownerOf",
      "outputs": [
        {
          "internalType": "address",
          "name": "",
          "type": "address"
        }
      ],
      "stateMutability": "view",
      "type": "function"
    },
    {
      "inputs": [],
      "name": "pause",
      "outputs": [],
      "stateMutability": "nonpayable",
      "type": "function"
    },
    {
      "inputs": [],
      "name": "paused",
      "outputs": [
        {
          "internalType": "bool",
          "name": "",
          "type": "bool"
        }
      ],
      "stateMutability": "view",
      "type": "function"
    },
    {
      "inputs": [],
      "name": "proxiableUUID",
      "outputs": [
        {
          "internalType": "bytes32",
          "name": "",
          "type": "bytes32"
        }
      ],
      "stateMutability": "view",
      "type": "function"
    },
    {
      "inputs": [],
      "name": "renounceOwnership",
      "outputs": [],
      "stateMutability": "nonpayable",
      "type": "function"
    },
    {
      "inputs": [
        {
          "internalType": "address",
          "name": "to",
          "type": "address"
        },
        {
          "internalType": "uint256",
          "name": "tokenId",
          "type": "uint256"
        }
      ],
      "name": "safeMint",
      "outputs": [],
      "stateMutability": "nonpayable",
      "type": "function"
    },
    {
      "inputs": [
        {
          "internalType": "address",
          "name": "from",
          "type": "address"
        },
        {
          "internalType": "address",
          "name": "to",
          "type": "address"
        },
        {
          "internalType": "uint256",
          "name": "tokenId",
          "type": "uint256"
        }
      ],
      "name": "safeTransferFrom",
      "outputs": [],
      "stateMutability": "nonpayable",
      "type": "function"
    },
    {
      "inputs": [
        {
          "internalType": "address",
          "name": "from",
          "type": "address"
        },
        {
          "internalType": "address",
          "name": "to",
          "type": "address"
        },
        {
          "internalType": "uint256",
          "name": "tokenId",
          "type": "uint256"
        },
        {
          "internalType": "bytes",
          "name": "data",
          "type": "bytes"
        }
      ],
      "name": "safeTransferFrom",
      "outputs": [],
      "stateMutability": "nonpayable",
      "type": "function"
    },
    {
      "inputs": [
        {
          "internalType": "address",
          "name": "operator",
          "type": "address"
        },
        {
          "internalType": "bool",
          "name": "approved",
          "type": "bool"
        }
      ],
      "name": "setApprovalForAll",
      "outputs": [],
      "stateMutability": "nonpayable",
      "type": "function"
    },
    {
      "inputs": [
        {
          "internalType": "bytes4",
          "name": "interfaceId",
          "type": "bytes4"
        }
      ],
      "name": "supportsInterface",
      "outputs": [
        {
          "internalType": "bool",
          "name": "",
          "type": "bool"
        }
      ],
      "stateMutability": "view",
      "type": "function"
    },
    {
      "inputs": [],
      "name": "symbol",
      "outputs": [
        {
          "internalType": "string",
          "name": "",
          "type": "string"
        }
      ],
      "stateMutability": "view",
      "type": "function"
    },
    {
      "inputs": [
        {
          "internalType": "uint256",
          "name": "tokenId",
          "type": "uint256"
        }
      ],
      "name": "tokenURI",
      "outputs": [
        {
          "internalType": "string",
          "name": "",
          "type": "string"
        }
      ],
      "stateMutability": "view",
      "type": "function"
    },
    {
      "inputs": [
        {
          "internalType": "address",
          "name": "from",
          "type": "address"
        },
        {
          "internalType": "address",
          "name": "to",
          "type": "address"
        },
        {
          "internalType": "uint256",
          "name": "tokenId",
          "type": "uint256"
        }
      ],
      "name": "transferFrom",
      "outputs": [],
      "stateMutability": "nonpayable",
      "type": "function"
    },
    {
      "inputs": [
        {
          "internalType": "address",
          "name": "newOwner",
          "type": "address"
        }
      ],
      "name": "transferOwnership",
      "outputs": [],
      "stateMutability": "nonpayable",
      "type": "function"
    },
    {
      "inputs": [],
      "name": "unpause",
      "outputs": [],
      "stateMutability": "nonpayable",
      "type": "function"
    },
    {
      "inputs": [
        {
          "internalType": "address",
          "name": "newImplementation",
          "type": "address"
        },
        {
          "internalType": "bytes",
          "name": "data",
          "type": "bytes"
        }
      ],
      "name": "upgradeToAndCall",
      "outputs": [],
      "stateMutability": "payable",
      "type": "function"
    }
  ],
  "bytecode": "0x60a06040523060805234801561001457600080fd5b5061001d610022565b6100d4565b7ff0c57e16840df040f15088dc2f81fe391c3923bec73e23a9662efc9c229c6a00805468010000000000000000900460ff16156100725760405163f92ee8a960e01b815260040160405180910390fd5b80546001600160401b03908116146100d15780546001600160401b0319166001600160401b0390811782556040519081527fc7f505b2f371ae2175ee4913f4499e1f2633a7b5936321eed1cdaeb6115181d29060200160405180910390a15b50565b608051611dac6100fd60003960008181610b8901528181610bb20152610cf30152611dac6000f3fe6080604052600436106101665760003560e01c806370a08231116100d1578063a22cb4651161008a578063c4d66de811610064578063c4d66de814610439578063c87b56dd14610459578063e985e9c514610479578063f2fde38b1461049957600080fd5b8063a22cb465146103c8578063ad3cb1cc146103e8578063b88d4fde1461041957600080fd5b806370a082311461030c578063715018a61461032c5780638456cb59146103415780638da5cb5b1461035657806395d89b4114610393578063a1448194146103a857600080fd5b806342842e0e1161012357806342842e0e1461025157806342966c68146102715780634f1ef2861461029157806352d1902d146102a45780635c975abb146102c75780636352211e146102ec57600080fd5b806301ffc9a71461016b57806306fdde03146101a0578063081812fc146101c2578063095ea7b3146101fa57806323b872dd1461021c5780633f4ba83a1461023c575b600080fd5b34801561017757600080fd5b5061018b610186366004611817565b6104b9565b60405190151581526020015b60405180910390f35b3480156101ac57600080fd5b506101b561050b565b6040516101979190611884565b3480156101ce57600080fd5b506101e26101dd366004611897565b6105af565b6040516001600160a01b039091168152602001610197565b34801561020657600080fd5b5061021a6102153660046118cc565b6105c4565b005b34801561022857600080fd5b5061021a6102373660046118f6565b6105d3565b34801561024857600080fd5b5061021a610663565b34801561025d57600080fd5b5061021a61026c3660046118f6565b610675565b34801561027d57600080fd5b5061021a61028c366004611897565b610695565b61021a61029f3660046119d8565b6106a1565b3480156102b057600080fd5b506102b96106bc565b604051908152602001610197565b3480156102d357600080fd5b50600080516020611d578339815191525460ff1661018b565b3480156102f857600080fd5b506101e2610307366004611897565b6106d9565b34801561031857600080fd5b506102b9610327366004611a26565b6106e4565b34801561033857600080fd5b5061021a610740565b34801561034d57600080fd5b5061021a610752565b34801561036257600080fd5b507f9016d09d72d40fdae2fd8ceac6b6234c7706214fd39c1cd1e609a0528c199300546001600160a01b03166101e2565b34801561039f57600080fd5b506101b5610762565b3480156103b457600080fd5b5061021a6103c33660046118cc565b6107a1565b3480156103d457600080fd5b5061021a6103e3366004611a41565b6107b3565b3480156103f457600080fd5b506101b5604051806040016040528060058152602001640352e302e360dc1b81525081565b34801561042557600080fd5b5061021a610434366004611a7d565b6107be565b34801561044557600080fd5b5061021a610454366004611a26565b6107d6565b34801561046557600080fd5b506101b5610474366004611897565b61092f565b34801561048557600080fd5b5061018b610494366004611ae5565b6109a4565b3480156104a557600080fd5b5061021a6104b4366004611a26565b6109f1565b60006001600160e01b031982166380ac58cd60e01b14806104ea57506001600160e01b03198216635b5e139f60e01b145b8061050557506301ffc9a760e01b6001600160e01b03198316145b92915050565b600080516020611d17833981519152805460609190819061052b90611b18565b80601f016020809104026020016040519081016040528092919081815260200182805461055790611b18565b80156105a45780601f10610579576101008083540402835291602001916105a4565b820191906000526020600020905b81548152906001019060200180831161058757829003601f168201915b505050505091505090565b60006105ba82610a2f565b5061050582610a67565b6105cf828233610aa1565b5050565b6001600160a01b03821661060257604051633250574960e11b8152600060048201526024015b60405180910390fd5b600061060f838333610aae565b9050836001600160a01b0316816001600160a01b03161461065d576040516364283d7b60e01b81526001600160a01b03808616600483015260248201849052821660448201526064016105f9565b50505050565b61066b610ac3565b610673610b1e565b565b610690838383604051806020016040528060008152506107be565b505050565b6105cf60008233610aae565b6106a9610b7e565b6106b282610c23565b6105cf8282610c2b565b60006106c6610ce8565b50600080516020611d3783398151915290565b600061050582610a2f565b6000600080516020611d178339815191526001600160a01b03831661071f576040516322718ad960e21b8152600060048201526024016105f9565b6001600160a01b039092166000908152600390920160205250604090205490565b610748610ac3565b6106736000610d31565b61075a610ac3565b610673610da2565b7f80bb2b638cc20bc4d0a60d66940f3ab4a00c1d7b313497ca82fb0b4ab00793018054606091600080516020611d178339815191529161052b90611b18565b6107a9610ac3565b6105cf8282610deb565b6105cf338383610e05565b6107c98484846105d3565b61065d3385858585610eb6565b60006107e0610fdf565b805490915060ff600160401b820416159067ffffffffffffffff166000811580156108085750825b905060008267ffffffffffffffff1660011480156108255750303b155b905081158015610833575080155b156108515760405163f92ee8a960e01b815260040160405180910390fd5b845467ffffffffffffffff19166001178555831561087b57845460ff60401b1916600160401b1785555b6108c06040518060400160405280600781526020016615555414d3919560ca1b815250604051806040016040528060048152602001631553919560e21b815250611008565b6108c861101a565b6108d186611022565b6108d961101a565b6108e161101a565b831561092757845460ff60401b19168555604051600181527fc7f505b2f371ae2175ee4913f4499e1f2633a7b5936321eed1cdaeb6115181d29060200160405180910390a15b505050505050565b606061093a82610a2f565b50600061095260408051602081019091526000815290565b90506000815111610972576040518060200160405280600081525061099d565b8061097c84611033565b60405160200161098d929190611b52565b6040516020818303038152906040525b9392505050565b6001600160a01b0391821660009081527f80bb2b638cc20bc4d0a60d66940f3ab4a00c1d7b313497ca82fb0b4ab00793056020908152604080832093909416825291909152205460ff1690565b6109f9610ac3565b6001600160a01b038116610a2357604051631e4fbdf760e01b8152600060048201526024016105f9565b610a2c81610d31565b50565b600080610a3b836110c6565b90506001600160a01b03811661050557604051637e27328960e01b8152600481018490526024016105f9565b60009081527f80bb2b638cc20bc4d0a60d66940f3ab4a00c1d7b313497ca82fb0b4ab007930460205260409020546001600160a01b031690565b6106908383836001611100565b6000610abb848484611216565b949350505050565b33610af57f9016d09d72d40fdae2fd8ceac6b6234c7706214fd39c1cd1e609a0528c199300546001600160a01b031690565b6001600160a01b0316146106735760405163118cdaa760e01b81523360048201526024016105f9565b610b2661122b565b600080516020611d57833981519152805460ff191681557f5db9ee0a495bf2e6ff9c91a7834c1ba4fdd244a5e8aa4e537bd38aeae4b073aa335b6040516001600160a01b03909116815260200160405180910390a150565b306001600160a01b037f0000000000000000000000000000000000000000000000000000000000000000161480610c0557507f00000000000000000000000000000000000000000000000000000000000000006001600160a01b0316610bf9600080516020611d37833981519152546001600160a01b031690565b6001600160a01b031614155b156106735760405163703e46dd60e11b815260040160405180910390fd5b610a2c610ac3565b816001600160a01b03166352d1902d6040518163ffffffff1660e01b8152600401602060405180830381865afa925050508015610c85575060408051601f3d908101601f19168201909252610c8291810190611b81565b60015b610cad57604051634c9c8ce360e01b81526001600160a01b03831660048201526024016105f9565b600080516020611d378339815191528114610cde57604051632a87526960e21b8152600481018290526024016105f9565b610690838361125b565b306001600160a01b037f000000000000000000000000000000000000000000000000000000000000000016146106735760405163703e46dd60e11b815260040160405180910390fd5b7f9016d09d72d40fdae2fd8ceac6b6234c7706214fd39c1cd1e609a0528c19930080546001600160a01b031981166001600160a01b03848116918217845560405192169182907f8be0079c531659141344cd1fd0a4f28419497f9722a3daafe3b4186f6b6457e090600090a3505050565b610daa6112b1565b600080516020611d57833981519152805460ff191660011781557f62e78cea01bee320cd4e420270b5ea74000d11b0c9f74754ebdbfc544b05a25833610b60565b6105cf8282604051806020016040528060008152506112e2565b600080516020611d178339815191526001600160a01b038316610e4657604051630b61174360e31b81526001600160a01b03841660048201526024016105f9565b6001600160a01b038481166000818152600584016020908152604080832094881680845294825291829020805460ff191687151590811790915591519182527f17307eab39ab6107e8899845ad3d59bd9653f200f220920489ca2b5937696c31910160405180910390a350505050565b6001600160a01b0383163b15610fd857604051630a85bd0160e11b81526001600160a01b0384169063150b7a0290610ef8908890889087908790600401611b9a565b6020604051808303816000875af1925050508015610f33575060408051601f3d908101601f19168201909252610f3091810190611bd7565b60015b610f9c573d808015610f61576040519150601f19603f3d011682016040523d82523d6000602084013e610f66565b606091505b508051600003610f9457604051633250574960e11b81526001600160a01b03851660048201526024016105f9565b805181602001fd5b6001600160e01b03198116630a85bd0160e11b1461092757604051633250574960e11b81526001600160a01b03851660048201526024016105f9565b5050505050565b6000807ff0c57e16840df040f15088dc2f81fe391c3923bec73e23a9662efc9c229c6a00610505565b6110106112fa565b6105cf828261131f565b6106736112fa565b61102a6112fa565b610a2c81611350565b6060600061104083611358565b600101905060008167ffffffffffffffff81111561106057611060611933565b6040519080825280601f01601f19166020018201604052801561108a576020820181803683370190505b5090508181016020015b600019016f181899199a1a9b1b9c1cb0b131b232b360811b600a86061a8153600a850494508461109457509392505050565b60009081527f80bb2b638cc20bc4d0a60d66940f3ab4a00c1d7b313497ca82fb0b4ab007930260205260409020546001600160a01b031690565b600080516020611d17833981519152818061112357506001600160a01b03831615155b156111e557600061113385610a2f565b90506001600160a01b0384161580159061115f5750836001600160a01b0316816001600160a01b031614155b8015611172575061117081856109a4565b155b1561119b5760405163a9fbf51f60e01b81526001600160a01b03851660048201526024016105f9565b82156111e35784866001600160a01b0316826001600160a01b03167f8c5be1e5ebec7d5bd14f71427d1e84f3dd0314c0f7b2291e5b200ac8c7c3b92560405160405180910390a45b505b600093845260040160205250506040902080546001600160a01b0319166001600160a01b0392909216919091179055565b60006112206112b1565b610abb848484611430565b600080516020611d578339815191525460ff1661067357604051638dfc202b60e01b815260040160405180910390fd5b6112648261153a565b6040516001600160a01b038316907fbc7cd75a20ee27fd9adebab32041f755214dbc6bffa90cc0225b39da2e5c2d3b90600090a28051156112a957610690828261159f565b6105cf611615565b600080516020611d578339815191525460ff16156106735760405163d93c066560e01b815260040160405180910390fd5b6112ec8383611634565b610690336000858585610eb6565b611302611699565b61067357604051631afcd79f60e31b815260040160405180910390fd5b6113276112fa565b600080516020611d17833981519152806113418482611c3b565b506001810161065d8382611c3b565b6109f96112fa565b60008072184f03e93ff9f4daa797ed6e38ed64bf6a1f0160401b83106113975772184f03e93ff9f4daa797ed6e38ed64bf6a1f0160401b830492506040015b6d04ee2d6d415b85acef810000000083106113c3576d04ee2d6d415b85acef8100000000830492506020015b662386f26fc1000083106113e157662386f26fc10000830492506010015b6305f5e10083106113f9576305f5e100830492506008015b612710831061140d57612710830492506004015b6064831061141f576064830492506002015b600a83106105055760010192915050565b6000600080516020611d178339815191528161144b856110c6565b90506001600160a01b03841615611467576114678185876116b3565b6001600160a01b038116156114a757611484600086600080611100565b6001600160a01b0381166000908152600383016020526040902080546000190190555b6001600160a01b038616156114d8576001600160a01b03861660009081526003830160205260409020805460010190555b600085815260028301602052604080822080546001600160a01b0319166001600160a01b038a811691821790925591518893918516917fddf252ad1be2c89b69c2b068fc378daa952ba7f163c4a11628f55a4df523b3ef91a495945050505050565b806001600160a01b03163b60000361157057604051634c9c8ce360e01b81526001600160a01b03821660048201526024016105f9565b600080516020611d3783398151915280546001600160a01b0319166001600160a01b0392909216919091179055565b6060600080846001600160a01b0316846040516115bc9190611cfa565b600060405180830381855af49150503d80600081146115f7576040519150601f19603f3d011682016040523d82523d6000602084013e6115fc565b606091505b509150915061160c858383611717565b95945050505050565b34156106735760405163b398979f60e01b815260040160405180910390fd5b6001600160a01b03821661165e57604051633250574960e11b8152600060048201526024016105f9565b600061166c83836000610aae565b90506001600160a01b03811615610690576040516339e3563760e11b8152600060048201526024016105f9565b60006116a3610fdf565b54600160401b900460ff16919050565b6116be838383611773565b610690576001600160a01b0383166116ec57604051637e27328960e01b8152600481018290526024016105f9565b60405163177e802f60e01b81526001600160a01b0383166004820152602481018290526044016105f9565b60608261172c57611727826117d8565b61099d565b815115801561174357506001600160a01b0384163b155b1561176c57604051639996b31560e01b81526001600160a01b03851660048201526024016105f9565b508061099d565b60006001600160a01b03831615801590610abb5750826001600160a01b0316846001600160a01b031614806117ad57506117ad84846109a4565b80610abb5750826001600160a01b03166117c683610a67565b6001600160a01b031614949350505050565b8051156117e85780518082602001fd5b60405163d6bda27560e01b815260040160405180910390fd5b6001600160e01b031981168114610a2c57600080fd5b60006020828403121561182957600080fd5b813561099d81611801565b60005b8381101561184f578181015183820152602001611837565b50506000910152565b60008151808452611870816020860160208601611834565b601f01601f19169290920160200192915050565b60208152600061099d6020830184611858565b6000602082840312156118a957600080fd5b5035919050565b80356001600160a01b03811681146118c757600080fd5b919050565b600080604083850312156118df57600080fd5b6118e8836118b0565b946020939093013593505050565b60008060006060848603121561190b57600080fd5b611914846118b0565b9250611922602085016118b0565b929592945050506040919091013590565b634e487b7160e01b600052604160045260246000fd5b600082601f83011261195a57600080fd5b813567ffffffffffffffff81111561197457611974611933565b604051601f8201601f19908116603f0116810167ffffffffffffffff811182821017156119a3576119a3611933565b6040528181528382016020018510156119bb57600080fd5b816020850160208301376000918101602001919091529392505050565b600080604083850312156119eb57600080fd5b6119f4836118b0565b9150602083013567ffffffffffffffff811115611a1057600080fd5b611a1c85828601611949565b9150509250929050565b600060208284031215611a3857600080fd5b61099d826118b0565b60008060408385031215611a5457600080fd5b611a5d836118b0565b915060208301358015158114611a7257600080fd5b809150509250929050565b60008060008060808587031215611a9357600080fd5b611a9c856118b0565b9350611aaa602086016118b0565b925060408501359150606085013567ffffffffffffffff811115611acd57600080fd5b611ad987828801611949565b91505092959194509250565b60008060408385031215611af857600080fd5b611b01836118b0565b9150611b0f602084016118b0565b90509250929050565b600181811c90821680611b2c57607f821691505b602082108103611b4c57634e487b7160e01b600052602260045260246000fd5b50919050565b60008351611b64818460208801611834565b835190830190611b78818360208801611834565b01949350505050565b600060208284031215611b9357600080fd5b5051919050565b6001600160a01b0385811682528416602082015260408101839052608060608201819052600090611bcd90830184611858565b9695505050505050565b600060208284031215611be957600080fd5b815161099d81611801565b601f82111561069057806000526020600020601f840160051c81016020851015611c1b5750805b601f840160051c820191505b81811015610fd85760008155600101611c27565b815167ffffffffffffffff811115611c5557611c55611933565b611c6981611c638454611b18565b84611bf4565b6020601f821160018114611c9d5760008315611c855750848201515b600019600385901b1c1916600184901b178455610fd8565b600084815260208120601f198516915b82811015611ccd5787850151825560209485019460019092019101611cad565b5084821015611ceb5786840151600019600387901b60f8161c191681555b50505050600190811b01905550565b60008251611d0c818460208701611834565b919091019291505056fe80bb2b638cc20bc4d0a60d66940f3ab4a00c1d7b313497ca82fb0b4ab0079300360894a13ba1a3210667c828492db98dca3e2076cc3735a920a3ca505d382bbccd5ed15c6e187e77e9aee88184c21f4f2182ab5827cb3b7e07fbedcd63f03300a2646970667358221220c480525c38812a7a2a56d6f7fb37f875ecc92f6bbe73b756f2b044a08bf8936d64736f6c634300081b0033",
  "linkReferences": {},
  "deployedLinkReferences": {}
}