{
  "_format": "hh-sol-artifact-1",
  "contractName": "ComplexNFT",
  "sourceName": "contracts/ComplexNFT.sol",
  "abi": [
    {
      "inputs": [
        {
          "internalType": "address",
          "name": "initialOwner",
          "type": "address"
        }
      ],
      "stateMutability": "nonpayable",
      "type": "constructor"
    },
    {
      "inputs": [],
      "name": "ERC721EnumerableForbiddenBatchMint",
      "type": "error"
    },
    {
      "inputs": [
        {
          "internalType": "address",
          "name": "sender",
          "type": "address"
        },
        {
          "internalType": "uint256",
          "name": "tokenId",
          "type": "uint256"
        },
        {
          "internalType": "address",
          "name": "owner",
          "type": "address"
        }
      ],
      "name": "ERC721IncorrectOwner",
      "type": "error"
    },
    {
      "inputs": [
        {
          "internalType": "address",
          "name": "operator",
          "type": "address"
        },
        {
          "internalType": "uint256",
          "name": "tokenId",
          "type": "uint256"
        }
      ],
      "name": "ERC721InsufficientApproval",
      "type": "error"
    },
    {
      "inputs": [
        {
          "internalType": "address",
          "name": "approver",
          "type": "address"
        }
      ],
      "name": "ERC721InvalidApprover",
      "type": "error"
    },
    {
      "inputs": [
        {
          "internalType": "address",
          "name": "operator",
          "type": "address"
        }
      ],
      "name": "ERC721InvalidOperator",
      "type": "error"
    },
    {
      "inputs": [
        {
          "internalType": "address",
          "name": "owner",
          "type": "address"
        }
      ],
      "name": "ERC721InvalidOwner",
      "type": "error"
    },
    {
      "inputs": [
        {
          "internalType": "address",
          "name": "receiver",
          "type": "address"
        }
      ],
      "name": "ERC721InvalidReceiver",
      "type": "error"
    },
    {
      "inputs": [
        {
          "internalType": "address",
          "name": "sender",
          "type": "address"
        }
      ],
      "name": "ERC721InvalidSender",
      "type": "error"
    },
    {
      "inputs": [
        {
          "internalType": "uint256",
          "name": "tokenId",
          "type": "uint256"
        }
      ],
      "name": "ERC721NonexistentToken",
      "type": "error"
    },
    {
      "inputs": [
        {
          "internalType": "address",
          "name": "owner",
          "type": "address"
        },
        {
          "internalType": "uint256",
          "name": "index",
          "type": "uint256"
        }
      ],
      "name": "ERC721OutOfBoundsIndex",
      "type": "error"
    },
    {
      "inputs": [],
      "name": "EnforcedPause",
      "type": "error"
    },
    {
      "inputs": [],
      "name": "ExpectedPause",
      "type": "error"
    },
    {
      "inputs": [
        {
          "internalType": "address",
          "name": "owner",
          "type": "address"
        }
      ],
      "name": "OwnableInvalidOwner",
      "type": "error"
    },
    {
      "inputs": [
        {
          "internalType": "address",
          "name": "account",
          "type": "address"
        }
      ],
      "name": "OwnableUnauthorizedAccount",
      "type": "error"
    },
    {
      "anonymous": false,
      "inputs": [
        {
          "indexed": true,
          "internalType": "address",
          "name": "owner",
          "type": "address"
        },
        {
          "indexed": true,
          "internalType": "address",
          "name": "approved",
          "type": "address"
        },
        {
          "indexed": true,
          "internalType": "uint256",
          "name": "tokenId",
          "type": "uint256"
        }
      ],
      "name": "Approval",
      "type": "event"
    },
    {
      "anonymous": false,
      "inputs": [
        {
          "indexed": true,
          "internalType": "address",
          "name": "owner",
          "type": "address"
        },
        {
          "indexed": true,
          "internalType": "address",
          "name": "operator",
          "type": "address"
        },
        {
          "indexed": false,
          "internalType": "bool",
          "name": "approved",
          "type": "bool"
        }
      ],
      "name": "ApprovalForAll",
      "type": "event"
    },
    {
      "anonymous": false,
      "inputs": [
        {
          "indexed": false,
          "internalType": "uint256",
          "name": "_fromTokenId",
          "type": "uint256"
        },
        {
          "indexed": false,
          "internalType": "uint256",
          "name": "_toTokenId",
          "type": "uint256"
        }
      ],
      "name": "BatchMetadataUpdate",
      "type": "event"
    },
    {
      "anonymous": false,
      "inputs": [
        {
          "indexed": false,
          "internalType": "uint256",
          "name": "_tokenId",
          "type": "uint256"
        }
      ],
      "name": "MetadataUpdate",
      "type": "event"
    },
    {
      "anonymous": false,
      "inputs": [
        {
          "indexed": true,
          "internalType": "address",
          "name": "previousOwner",
          "type": "address"
        },
        {
          "indexed": true,
          "internalType": "address",
          "name": "newOwner",
          "type": "address"
        }
      ],
      "name": "OwnershipTransferred",
      "type": "event"
    },
    {
      "anonymous": false,
      "inputs": [
        {
          "indexed": false,
          "internalType": "address",
          "name": "account",
          "type": "address"
        }
      ],
      "name": "Paused",
      "type": "event"
    },
    {
      "anonymous": false,
      "inputs": [
        {
          "indexed": true,
          "internalType": "address",
          "name": "from",
          "type": "address"
        },
        {
          "indexed": true,
          "internalType": "address",
          "name": "to",
          "type": "address"
        },
        {
          "indexed": true,
          "internalType": "uint256",
          "name": "tokenId",
          "type": "uint256"
        }
      ],
      "name": "Transfer",
      "type": "event"
    },
    {
      "anonymous": false,
      "inputs": [
        {
          "indexed": false,
          "internalType": "address",
          "name": "account",
          "type": "address"
        }
      ],
      "name": "Unpaused",
      "type": "event"
    },
    {
      "inputs": [
        {
          "internalType": "address",
          "name": "to",
          "type": "address"
        },
        {
          "internalType": "uint256",
          "name": "tokenId",
          "type": "uint256"
        }
      ],
      "name": "approve",
      "outputs": [],
      "stateMutability": "nonpayable",
      "type": "function"
    },
    {
      "inputs": [
        {
          "internalType": "address",
          "name": "owner",
          "type": "address"
        }
      ],
      "name": "balanceOf",
      "outputs": [
        {
          "internalType": "uint256",
          "name": "",
          "type": "uint256"
        }
      ],
      "stateMutability": "view",
      "type": "function"
    },
    {
      "inputs": [
        {
          "internalType": "uint256",
          "name": "tokenId",
          "type": "uint256"
        }
      ],
      "name": "burn",
      "outputs": [],
      "stateMutability": "nonpayable",
      "type": "function"
    },
    {
      "inputs": [
        {
          "internalType": "uint256",
          "name": "tokenId",
          "type": "uint256"
        }
      ],
      "name": "getApproved",
      "outputs": [
        {
          "internalType": "address",
          "name": "",
          "type": "address"
        }
      ],
      "stateMutability": "view",
      "type": "function"
    },
    {
      "inputs": [
        {
          "internalType": "address",
          "name": "owner",
          "type": "address"
        },
        {
          "internalType": "address",
          "name": "operator",
          "type": "address"
        }
      ],
      "name": "isApprovedForAll",
      "outputs": [
        {
          "internalType": "bool",
          "name": "",
          "type": "bool"
        }
      ],
      "stateMutability": "view",
      "type": "function"
    },
    {
      "inputs": [],
      "name": "name",
      "outputs": [
        {
          "internalType": "string",
          "name": "",
          "type": "string"
        }
      ],
      "stateMutability": "view",
      "type": "function"
    },
    {
      "inputs": [],
      "name": "owner",
      "outputs": [
        {
          "internalType": "address",
          "name": "",
          "type": "address"
        }
      ],
      "stateMutability": "view",
      "type": "function"
    },
    {
      "inputs": [
        {
          "internalType": "uint256",
          "name": "tokenId",
          "type": "uint256"
        }
      ],
      "name": "ownerOf",
      "outputs": [
        {
          "internalType": "address",
          "name": "",
          "type": "address"
        }
      ],
      "stateMutability": "view",
      "type": "function"
    },
    {
      "inputs": [],
      "name": "pause",
      "outputs": [],
      "stateMutability": "nonpayable",
      "type": "function"
    },
    {
      "inputs": [],
      "name": "paused",
      "outputs": [
        {
          "internalType": "bool",
          "name": "",
          "type": "bool"
        }
      ],
      "stateMutability": "view",
      "type": "function"
    },
    {
      "inputs": [],
      "name": "renounceOwnership",
      "outputs": [],
      "stateMutability": "nonpayable",
      "type": "function"
    },
    {
      "inputs": [
        {
          "internalType": "address",
          "name": "to",
          "type": "address"
        },
        {
          "internalType": "string",
          "name": "uri",
          "type": "string"
        }
      ],
      "name": "safeMint",
      "outputs": [
        {
          "internalType": "uint256",
          "name": "",
          "type": "uint256"
        }
      ],
      "stateMutability": "nonpayable",
      "type": "function"
    },
    {
      "inputs": [
        {
          "internalType": "address",
          "name": "from",
          "type": "address"
        },
        {
          "internalType": "address",
          "name": "to",
          "type": "address"
        },
        {
          "internalType": "uint256",
          "name": "tokenId",
          "type": "uint256"
        }
      ],
      "name": "safeTransferFrom",
      "outputs": [],
      "stateMutability": "nonpayable",
      "type": "function"
    },
    {
      "inputs": [
        {
          "internalType": "address",
          "name": "from",
          "type": "address"
        },
        {
          "internalType": "address",
          "name": "to",
          "type": "address"
        },
        {
          "internalType": "uint256",
          "name": "tokenId",
          "type": "uint256"
        },
        {
          "internalType": "bytes",
          "name": "data",
          "type": "bytes"
        }
      ],
      "name": "safeTransferFrom",
      "outputs": [],
      "stateMutability": "nonpayable",
      "type": "function"
    },
    {
      "inputs": [
        {
          "internalType": "address",
          "name": "operator",
          "type": "address"
        },
        {
          "internalType": "bool",
          "name": "approved",
          "type": "bool"
        }
      ],
      "name": "setApprovalForAll",
      "outputs": [],
      "stateMutability": "nonpayable",
      "type": "function"
    },
    {
      "inputs": [
        {
          "internalType": "bytes4",
          "name": "interfaceId",
          "type": "bytes4"
        }
      ],
      "name": "supportsInterface",
      "outputs": [
        {
          "internalType": "bool",
          "name": "",
          "type": "bool"
        }
      ],
      "stateMutability": "view",
      "type": "function"
    },
    {
      "inputs": [],
      "name": "symbol",
      "outputs": [
        {
          "internalType": "string",
          "name": "",
          "type": "string"
        }
      ],
      "stateMutability": "view",
      "type": "function"
    },
    {
      "inputs": [
        {
          "internalType": "uint256",
          "name": "index",
          "type": "uint256"
        }
      ],
      "name": "tokenByIndex",
      "outputs": [
        {
          "internalType": "uint256",
          "name": "",
          "type": "uint256"
        }
      ],
      "stateMutability": "view",
      "type": "function"
    },
    {
      "inputs": [
        {
          "internalType": "address",
          "name": "owner",
          "type": "address"
        },
        {
          "internalType": "uint256",
          "name": "index",
          "type": "uint256"
        }
      ],
      "name": "tokenOfOwnerByIndex",
      "outputs": [
        {
          "internalType": "uint256",
          "name": "",
          "type": "uint256"
        }
      ],
      "stateMutability": "view",
      "type": "function"
    },
    {
      "inputs": [
        {
          "internalType": "uint256",
          "name": "tokenId",
          "type": "uint256"
        }
      ],
      "name": "tokenURI",
      "outputs": [
        {
          "internalType": "string",
          "name": "",
          "type": "string"
        }
      ],
      "stateMutability": "view",
      "type": "function"
    },
    {
      "inputs": [],
      "name": "totalSupply",
      "outputs": [
        {
          "internalType": "uint256",
          "name": "",
          "type": "uint256"
        }
      ],
      "stateMutability": "view",
      "type": "function"
    },
    {
      "inputs": [
        {
          "internalType": "address",
          "name": "from",
          "type": "address"
        },
        {
          "internalType": "address",
          "name": "to",
          "type": "address"
        },
        {
          "internalType": "uint256",
          "name": "tokenId",
          "type": "uint256"
        }
      ],
      "name": "transferFrom",
      "outputs": [],
      "stateMutability": "nonpayable",
      "type": "function"
    },
    {
      "inputs": [
        {
          "internalType": "address",
          "name": "newOwner",
          "type": "address"
        }
      ],
      "name": "transferOwnership",
      "outputs": [],
      "stateMutability": "nonpayable",
      "type": "function"
    },
    {
      "inputs": [],
      "name": "unpause",
      "outputs": [],
      "stateMutability": "nonpayable",
      "type": "function"
    }
  ],
  "bytecode": "0x608060405234801561001057600080fd5b50604051611c96380380611c9683398101604081905261002f91610127565b806040518060400160405280600a81526020016910dbdb5c1b195e13919560b21b8152506040518060400160405280600481526020016310d3919560e21b815250816000908161007f91906101f6565b50600161008c82826101f6565b5050506001600160a01b0381166100bd57604051631e4fbdf760e01b81526000600482015260240160405180910390fd5b6100c6816100cd565b50506102b4565b600b80546001600160a01b03838116610100818102610100600160a81b031985161790945560405193909204169182907f8be0079c531659141344cd1fd0a4f28419497f9722a3daafe3b4186f6b6457e090600090a35050565b60006020828403121561013957600080fd5b81516001600160a01b038116811461015057600080fd5b9392505050565b634e487b7160e01b600052604160045260246000fd5b600181811c9082168061018157607f821691505b6020821081036101a157634e487b7160e01b600052602260045260246000fd5b50919050565b601f8211156101f157806000526020600020601f840160051c810160208510156101ce5750805b601f840160051c820191505b818110156101ee57600081556001016101da565b50505b505050565b81516001600160401b0381111561020f5761020f610157565b6102238161021d845461016d565b846101a7565b6020601f821160018114610257576000831561023f5750848201515b600019600385901b1c1916600184901b1784556101ee565b600084815260208120601f198516915b828110156102875787850151825560209485019460019092019101610267565b50848210156102a55786840151600019600387901b60f8161c191681555b50505050600190811b01905550565b6119d3806102c36000396000f3fe608060405234801561001057600080fd5b50600436106101585760003560e01c80636352211e116100c3578063a22cb4651161007c578063a22cb465146102b2578063b88d4fde146102c5578063c87b56dd146102d8578063d204c45e146102eb578063e985e9c5146102fe578063f2fde38b1461031157600080fd5b80636352211e1461025e57806370a0823114610271578063715018a6146102845780638456cb591461028c5780638da5cb5b1461029457806395d89b41146102aa57600080fd5b80632f745c59116101155780632f745c59146101ff5780633f4ba83a1461021257806342842e0e1461021a57806342966c681461022d5780634f6ccce7146102405780635c975abb1461025357600080fd5b806301ffc9a71461015d57806306fdde0314610185578063081812fc1461019a578063095ea7b3146101c557806318160ddd146101da57806323b872dd146101ec575b600080fd5b61017061016b366004611452565b610324565b60405190151581526020015b60405180910390f35b61018d610335565b60405161017c91906114bf565b6101ad6101a83660046114d2565b6103c7565b6040516001600160a01b03909116815260200161017c565b6101d86101d3366004611507565b6103f0565b005b6008545b60405190815260200161017c565b6101d86101fa366004611531565b6103ff565b6101de61020d366004611507565b61048f565b6101d86104f4565b6101d8610228366004611531565b610506565b6101d861023b3660046114d2565b610526565b6101de61024e3660046114d2565b610532565b600b5460ff16610170565b6101ad61026c3660046114d2565b61058b565b6101de61027f36600461156e565b610596565b6101d86105de565b6101d86105f0565b600b5461010090046001600160a01b03166101ad565b61018d610600565b6101d86102c0366004611589565b61060f565b6101d86102d3366004611655565b61061a565b61018d6102e63660046114d2565b610632565b6101de6102f93660046116d1565b61063d565b61017061030c366004611733565b610679565b6101d861031f36600461156e565b6106a7565b600061032f826106e5565b92915050565b60606000805461034490611766565b80601f016020809104026020016040519081016040528092919081815260200182805461037090611766565b80156103bd5780601f10610392576101008083540402835291602001916103bd565b820191906000526020600020905b8154815290600101906020018083116103a057829003601f168201915b5050505050905090565b60006103d28261070a565b506000828152600460205260409020546001600160a01b031661032f565b6103fb828233610743565b5050565b6001600160a01b03821661042e57604051633250574960e11b8152600060048201526024015b60405180910390fd5b600061043b838333610750565b9050836001600160a01b0316816001600160a01b031614610489576040516364283d7b60e01b81526001600160a01b0380861660048301526024820184905282166044820152606401610425565b50505050565b600061049a83610596565b82106104cb5760405163295f44f760e21b81526001600160a01b038416600482015260248101839052604401610425565b506001600160a01b03919091166000908152600660209081526040808320938352929052205490565b6104fc610765565b610504610798565b565b6105218383836040518060200160405280600081525061061a565b505050565b6103fb60008233610750565b600061053d60085490565b82106105665760405163295f44f760e21b81526000600482015260248101839052604401610425565b60088281548110610579576105796117a0565b90600052602060002001549050919050565b600061032f8261070a565b60006001600160a01b0382166105c2576040516322718ad960e21b815260006004820152602401610425565b506001600160a01b031660009081526003602052604090205490565b6105e6610765565b61050460006107ea565b6105f8610765565b610504610844565b60606001805461034490611766565b6103fb338383610881565b6106258484846103ff565b6104893385858585610920565b606061032f82610a4b565b6000610647610765565b600c805460009182610658836117cc565b9190505590506106688482610b73565b6106728184610b8d565b9392505050565b6001600160a01b03918216600090815260056020908152604080832093909416825291909152205460ff1690565b6106af610765565b6001600160a01b0381166106d957604051631e4fbdf760e01b815260006004820152602401610425565b6106e2816107ea565b50565b60006001600160e01b03198216632483248360e11b148061032f575061032f82610bdd565b6000818152600260205260408120546001600160a01b03168061032f57604051637e27328960e01b815260048101849052602401610425565b6105218383836001610c02565b600061075d848484610d08565b949350505050565b600b546001600160a01b036101009091041633146105045760405163118cdaa760e01b8152336004820152602401610425565b6107a0610d1d565b600b805460ff191690557f5db9ee0a495bf2e6ff9c91a7834c1ba4fdd244a5e8aa4e537bd38aeae4b073aa335b6040516001600160a01b03909116815260200160405180910390a1565b600b80546001600160a01b03838116610100818102610100600160a81b031985161790945560405193909204169182907f8be0079c531659141344cd1fd0a4f28419497f9722a3daafe3b4186f6b6457e090600090a35050565b61084c610d40565b600b805460ff191660011790557f62e78cea01bee320cd4e420270b5ea74000d11b0c9f74754ebdbfc544b05a2586107cd3390565b6001600160a01b0382166108b357604051630b61174360e31b81526001600160a01b0383166004820152602401610425565b6001600160a01b03838116600081815260056020908152604080832094871680845294825291829020805460ff191686151590811790915591519182527f17307eab39ab6107e8899845ad3d59bd9653f200f220920489ca2b5937696c31910160405180910390a3505050565b6001600160a01b0383163b15610a4457604051630a85bd0160e11b81526001600160a01b0384169063150b7a02906109629088908890879087906004016117e5565b6020604051808303816000875af192505050801561099d575060408051601f3d908101601f1916820190925261099a91810190611822565b60015b610a06573d8080156109cb576040519150601f19603f3d011682016040523d82523d6000602084013e6109d0565b606091505b5080516000036109fe57604051633250574960e11b81526001600160a01b0385166004820152602401610425565b805181602001fd5b6001600160e01b03198116630a85bd0160e11b14610a4257604051633250574960e11b81526001600160a01b0385166004820152602401610425565b505b5050505050565b6060610a568261070a565b506000828152600a602052604081208054610a7090611766565b80601f0160208091040260200160405190810160405280929190818152602001828054610a9c90611766565b8015610ae95780601f10610abe57610100808354040283529160200191610ae9565b820191906000526020600020905b815481529060010190602001808311610acc57829003601f168201915b505050505090506000610b26604080518082019091526017815276697066733a2f2f516d4e4654436f6c6c656374696f6e2f60481b602082015290565b90508051600003610b38575092915050565b815115610b6a578082604051602001610b5292919061183f565b60405160208183030381529060405292505050919050565b61075d84610d64565b6103fb828260405180602001604052806000815250610df7565b6000828152600a60205260409020610ba582826118b5565b506040518281527ff8e1a15aba9398e019f0b49df1a4fde98ee17ae345cb5f6b5e2c27f5033e8ce79060200160405180910390a15050565b60006001600160e01b0319821663780e9d6360e01b148061032f575061032f82610e0f565b8080610c1657506001600160a01b03821615155b15610cd8576000610c268461070a565b90506001600160a01b03831615801590610c525750826001600160a01b0316816001600160a01b031614155b8015610c655750610c638184610679565b155b15610c8e5760405163a9fbf51f60e01b81526001600160a01b0384166004820152602401610425565b8115610cd65783856001600160a01b0316826001600160a01b03167f8c5be1e5ebec7d5bd14f71427d1e84f3dd0314c0f7b2291e5b200ac8c7c3b92560405160405180910390a45b505b5050600090815260046020526040902080546001600160a01b0319166001600160a01b0392909216919091179055565b6000610d12610d40565b61075d848484610e5f565b600b5460ff1661050457604051638dfc202b60e01b815260040160405180910390fd5b600b5460ff16156105045760405163d93c066560e01b815260040160405180910390fd5b6060610d6f8261070a565b506000610da6604080518082019091526017815276697066733a2f2f516d4e4654436f6c6c656374696f6e2f60481b602082015290565b90506000815111610dc65760405180602001604052806000815250610672565b80610dd084610f2c565b604051602001610de192919061183f565b6040516020818303038152906040529392505050565b610e018383610fbf565b610521336000858585610920565b60006001600160e01b031982166380ac58cd60e01b1480610e4057506001600160e01b03198216635b5e139f60e01b145b8061032f57506301ffc9a760e01b6001600160e01b031983161461032f565b600080610e6d858585611024565b90506001600160a01b038116610eca57610ec584600880546000838152600960205260408120829055600182018355919091527ff3f7a9fe364faab93b216da50a3214154f22a0a2b415b23a84c8169e8b636ee30155565b610eed565b846001600160a01b0316816001600160a01b031614610eed57610eed818561111d565b6001600160a01b038516610f0957610f048461119e565b61075d565b846001600160a01b0316816001600160a01b03161461075d5761075d858561124d565b60606000610f398361129d565b600101905060008167ffffffffffffffff811115610f5957610f596115c5565b6040519080825280601f01601f191660200182016040528015610f83576020820181803683370190505b5090508181016020015b600019016f181899199a1a9b1b9c1cb0b131b232b360811b600a86061a8153600a8504945084610f8d57509392505050565b6001600160a01b038216610fe957604051633250574960e11b815260006004820152602401610425565b6000610ff783836000610750565b90506001600160a01b03811615610521576040516339e3563760e11b815260006004820152602401610425565b6000828152600260205260408120546001600160a01b039081169083161561105157611051818486611375565b6001600160a01b0381161561108f5761106e600085600080610c02565b6001600160a01b038116600090815260036020526040902080546000190190555b6001600160a01b038516156110be576001600160a01b0385166000908152600360205260409020805460010190555b60008481526002602052604080822080546001600160a01b0319166001600160a01b0389811691821790925591518793918516917fddf252ad1be2c89b69c2b068fc378daa952ba7f163c4a11628f55a4df523b3ef91a4949350505050565b600061112883610596565b6000838152600760209081526040808320546001600160a01b038816845260069092529091209192509081831461117f57600083815260208281526040808320548584528184208190558352600790915290208290555b6000938452600760209081526040808620869055938552525081205550565b6008546000906111b090600190611974565b600083815260096020526040812054600880549394509092849081106111d8576111d86117a0565b9060005260206000200154905080600883815481106111f9576111f96117a0565b600091825260208083209091019290925582815260099091526040808220849055858252812055600880548061123157611231611987565b6001900381819060005260206000200160009055905550505050565b6000600161125a84610596565b6112649190611974565b6001600160a01b039093166000908152600660209081526040808320868452825280832085905593825260079052919091209190915550565b60008072184f03e93ff9f4daa797ed6e38ed64bf6a1f0160401b83106112dc5772184f03e93ff9f4daa797ed6e38ed64bf6a1f0160401b830492506040015b6d04ee2d6d415b85acef81000000008310611308576d04ee2d6d415b85acef8100000000830492506020015b662386f26fc10000831061132657662386f26fc10000830492506010015b6305f5e100831061133e576305f5e100830492506008015b612710831061135257612710830492506004015b60648310611364576064830492506002015b600a831061032f5760010192915050565b6113808383836113d9565b610521576001600160a01b0383166113ae57604051637e27328960e01b815260048101829052602401610425565b60405163177e802f60e01b81526001600160a01b038316600482015260248101829052604401610425565b60006001600160a01b0383161580159061075d5750826001600160a01b0316846001600160a01b0316148061141357506114138484610679565b8061075d5750506000908152600460205260409020546001600160a01b03908116911614919050565b6001600160e01b0319811681146106e257600080fd5b60006020828403121561146457600080fd5b81356106728161143c565b60005b8381101561148a578181015183820152602001611472565b50506000910152565b600081518084526114ab81602086016020860161146f565b601f01601f19169290920160200192915050565b6020815260006106726020830184611493565b6000602082840312156114e457600080fd5b5035919050565b80356001600160a01b038116811461150257600080fd5b919050565b6000806040838503121561151a57600080fd5b611523836114eb565b946020939093013593505050565b60008060006060848603121561154657600080fd5b61154f846114eb565b925061155d602085016114eb565b929592945050506040919091013590565b60006020828403121561158057600080fd5b610672826114eb565b6000806040838503121561159c57600080fd5b6115a5836114eb565b9150602083013580151581146115ba57600080fd5b809150509250929050565b634e487b7160e01b600052604160045260246000fd5b60008067ffffffffffffffff8411156115f6576115f66115c5565b50604051601f19601f85018116603f0116810181811067ffffffffffffffff82111715611625576116256115c5565b60405283815290508082840185101561163d57600080fd5b83836020830137600060208583010152509392505050565b6000806000806080858703121561166b57600080fd5b611674856114eb565b9350611682602086016114eb565b925060408501359150606085013567ffffffffffffffff8111156116a557600080fd5b8501601f810187136116b657600080fd5b6116c5878235602084016115db565b91505092959194509250565b600080604083850312156116e457600080fd5b6116ed836114eb565b9150602083013567ffffffffffffffff81111561170957600080fd5b8301601f8101851361171a57600080fd5b611729858235602084016115db565b9150509250929050565b6000806040838503121561174657600080fd5b61174f836114eb565b915061175d602084016114eb565b90509250929050565b600181811c9082168061177a57607f821691505b60208210810361179a57634e487b7160e01b600052602260045260246000fd5b50919050565b634e487b7160e01b600052603260045260246000fd5b634e487b7160e01b600052601160045260246000fd5b6000600182016117de576117de6117b6565b5060010190565b6001600160a01b038581168252841660208201526040810183905260806060820181905260009061181890830184611493565b9695505050505050565b60006020828403121561183457600080fd5b81516106728161143c565b6000835161185181846020880161146f565b83519083019061186581836020880161146f565b01949350505050565b601f82111561052157806000526020600020601f840160051c810160208510156118955750805b601f840160051c820191505b81811015610a4457600081556001016118a1565b815167ffffffffffffffff8111156118cf576118cf6115c5565b6118e3816118dd8454611766565b8461186e565b6020601f82116001811461191757600083156118ff5750848201515b600019600385901b1c1916600184901b178455610a44565b600084815260208120601f198516915b828110156119475787850151825560209485019460019092019101611927565b50848210156119655786840151600019600387901b60f8161c191681555b50505050600190811b01905550565b8181038181111561032f5761032f6117b6565b634e487b7160e01b600052603160045260246000fdfea2646970667358221220fd347a21ea45f26b535492d2798fdfd0bd782793672dfc9d00be61cf8a12951364736f6c634300081b0033",
  "linkReferences": {},
  "deployedLinkReferences": {}
}