{
  "_format": "hh-sol-artifact-1",
  "contractName": "MultiFeatureToken",
  "sourceName": "contracts/MultiFeatureToken.sol",
  "abi": [
    {
      "inputs": [
        {
          "internalType": "address",
          "name": "recipient",
          "type": "address"
        },
        {
          "internalType": "address",
          "name": "initialOwner",
          "type": "address"
        }
      ],
      "stateMutability": "nonpayable",
      "type": "constructor"
    },
    {
      "inputs": [],
      "name": "ECDSAInvalidSignature",
      "type": "error"
    },
    {
      "inputs": [
        {
          "internalType": "uint256",
          "name": "length",
          "type": "uint256"
        }
      ],
      "name": "ECDSAInvalidSignatureLength",
      "type": "error"
    },
    {
      "inputs": [
        {
          "internalType": "bytes32",
          "name": "s",
          "type": "bytes32"
        }
      ],
      "name": "ECDSAInvalidSignatureS",
      "type": "error"
    },
    {
      "inputs": [
        {
          "internalType": "address",
          "name": "spender",
          "type": "address"
        },
        {
          "internalType": "uint256",
          "name": "allowance",
          "type": "uint256"
        },
        {
          "internalType": "uint256",
          "name": "needed",
          "type": "uint256"
        }
      ],
      "name": "ERC20InsufficientAllowance",
      "type": "error"
    },
    {
      "inputs": [
        {
          "internalType": "address",
          "name": "sender",
          "type": "address"
        },
        {
          "internalType": "uint256",
          "name": "balance",
          "type": "uint256"
        },
        {
          "internalType": "uint256",
          "name": "needed",
          "type": "uint256"
        }
      ],
      "name": "ERC20InsufficientBalance",
      "type": "error"
    },
    {
      "inputs": [
        {
          "internalType": "address",
          "name": "approver",
          "type": "address"
        }
      ],
      "name": "ERC20InvalidApprover",
      "type": "error"
    },
    {
      "inputs": [
        {
          "internalType": "address",
          "name": "receiver",
          "type": "address"
        }
      ],
      "name": "ERC20InvalidReceiver",
      "type": "error"
    },
    {
      "inputs": [
        {
          "internalType": "address",
          "name": "sender",
          "type": "address"
        }
      ],
      "name": "ERC20InvalidSender",
      "type": "error"
    },
    {
      "inputs": [
        {
          "internalType": "address",
          "name": "spender",
          "type": "address"
        }
      ],
      "name": "ERC20InvalidSpender",
      "type": "error"
    },
    {
      "inputs": [
        {
          "internalType": "uint256",
          "name": "deadline",
          "type": "uint256"
        }
      ],
      "name": "ERC2612ExpiredSignature",
      "type": "error"
    },
    {
      "inputs": [
        {
          "internalType": "address",
          "name": "signer",
          "type": "address"
        },
        {
          "internalType": "address",
          "name": "owner",
          "type": "address"
        }
      ],
      "name": "ERC2612InvalidSigner",
      "type": "error"
    },
    {
      "inputs": [],
      "name": "EnforcedPause",
      "type": "error"
    },
    {
      "inputs": [],
      "name": "ExpectedPause",
      "type": "error"
    },
    {
      "inputs": [
        {
          "internalType": "address",
          "name": "account",
          "type": "address"
        },
        {
          "internalType": "uint256",
          "name": "currentNonce",
          "type": "uint256"
        }
      ],
      "name": "InvalidAccountNonce",
      "type": "error"
    },
    {
      "inputs": [],
      "name": "InvalidShortString",
      "type": "error"
    },
    {
      "inputs": [
        {
          "internalType": "address",
          "name": "owner",
          "type": "address"
        }
      ],
      "name": "OwnableInvalidOwner",
      "type": "error"
    },
    {
      "inputs": [
        {
          "internalType": "address",
          "name": "account",
          "type": "address"
        }
      ],
      "name": "OwnableUnauthorizedAccount",
      "type": "error"
    },
    {
      "inputs": [
        {
          "internalType": "string",
          "name": "str",
          "type": "string"
        }
      ],
      "name": "StringTooLong",
      "type": "error"
    },
    {
      "anonymous": false,
      "inputs": [
        {
          "indexed": true,
          "internalType": "address",
          "name": "owner",
          "type": "address"
        },
        {
          "indexed": true,
          "internalType": "address",
          "name": "spender",
          "type": "address"
        },
        {
          "indexed": false,
          "internalType": "uint256",
          "name": "value",
          "type": "uint256"
        }
      ],
      "name": "Approval",
      "type": "event"
    },
    {
      "anonymous": false,
      "inputs": [],
      "name": "EIP712DomainChanged",
      "type": "event"
    },
    {
      "anonymous": false,
      "inputs": [
        {
          "indexed": true,
          "internalType": "address",
          "name": "previousOwner",
          "type": "address"
        },
        {
          "indexed": true,
          "internalType": "address",
          "name": "newOwner",
          "type": "address"
        }
      ],
      "name": "OwnershipTransferred",
      "type": "event"
    },
    {
      "anonymous": false,
      "inputs": [
        {
          "indexed": false,
          "internalType": "address",
          "name": "account",
          "type": "address"
        }
      ],
      "name": "Paused",
      "type": "event"
    },
    {
      "anonymous": false,
      "inputs": [
        {
          "indexed": true,
          "internalType": "address",
          "name": "from",
          "type": "address"
        },
        {
          "indexed": true,
          "internalType": "address",
          "name": "to",
          "type": "address"
        },
        {
          "indexed": false,
          "internalType": "uint256",
          "name": "value",
          "type": "uint256"
        }
      ],
      "name": "Transfer",
      "type": "event"
    },
    {
      "anonymous": false,
      "inputs": [
        {
          "indexed": false,
          "internalType": "address",
          "name": "account",
          "type": "address"
        }
      ],
      "name": "Unpaused",
      "type": "event"
    },
    {
      "inputs": [],
      "name": "DOMAIN_SEPARATOR",
      "outputs": [
        {
          "internalType": "bytes32",
          "name": "",
          "type": "bytes32"
        }
      ],
      "stateMutability": "view",
      "type": "function"
    },
    {
      "inputs": [
        {
          "internalType": "address",
          "name": "owner",
          "type": "address"
        },
        {
          "internalType": "address",
          "name": "spender",
          "type": "address"
        }
      ],
      "name": "allowance",
      "outputs": [
        {
          "internalType": "uint256",
          "name": "",
          "type": "uint256"
        }
      ],
      "stateMutability": "view",
      "type": "function"
    },
    {
      "inputs": [
        {
          "internalType": "address",
          "name": "spender",
          "type": "address"
        },
        {
          "internalType": "uint256",
          "name": "value",
          "type": "uint256"
        }
      ],
      "name": "approve",
      "outputs": [
        {
          "internalType": "bool",
          "name": "",
          "type": "bool"
        }
      ],
      "stateMutability": "nonpayable",
      "type": "function"
    },
    {
      "inputs": [
        {
          "internalType": "address",
          "name": "account",
          "type": "address"
        }
      ],
      "name": "balanceOf",
      "outputs": [
        {
          "internalType": "uint256",
          "name": "",
          "type": "uint256"
        }
      ],
      "stateMutability": "view",
      "type": "function"
    },
    {
      "inputs": [
        {
          "internalType": "uint256",
          "name": "value",
          "type": "uint256"
        }
      ],
      "name": "burn",
      "outputs": [],
      "stateMutability": "nonpayable",
      "type": "function"
    },
    {
      "inputs": [
        {
          "internalType": "address",
          "name": "account",
          "type": "address"
        },
        {
          "internalType": "uint256",
          "name": "value",
          "type": "uint256"
        }
      ],
      "name": "burnFrom",
      "outputs": [],
      "stateMutability": "nonpayable",
      "type": "function"
    },
    {
      "inputs": [],
      "name": "decimals",
      "outputs": [
        {
          "internalType": "uint8",
          "name": "",
          "type": "uint8"
        }
      ],
      "stateMutability": "view",
      "type": "function"
    },
    {
      "inputs": [],
      "name": "eip712Domain",
      "outputs": [
        {
          "internalType": "bytes1",
          "name": "fields",
          "type": "bytes1"
        },
        {
          "internalType": "string",
          "name": "name",
          "type": "string"
        },
        {
          "internalType": "string",
          "name": "version",
          "type": "string"
        },
        {
          "internalType": "uint256",
          "name": "chainId",
          "type": "uint256"
        },
        {
          "internalType": "address",
          "name": "verifyingContract",
          "type": "address"
        },
        {
          "internalType": "bytes32",
          "name": "salt",
          "type": "bytes32"
        },
        {
          "internalType": "uint256[]",
          "name": "extensions",
          "type": "uint256[]"
        }
      ],
      "stateMutability": "view",
      "type": "function"
    },
    {
      "inputs": [
        {
          "internalType": "address",
          "name": "to",
          "type": "address"
        },
        {
          "internalType": "uint256",
          "name": "amount",
          "type": "uint256"
        }
      ],
      "name": "mint",
      "outputs": [],
      "stateMutability": "nonpayable",
      "type": "function"
    },
    {
      "inputs": [],
      "name": "name",
      "outputs": [
        {
          "internalType": "string",
          "name": "",
          "type": "string"
        }
      ],
      "stateMutability": "view",
      "type": "function"
    },
    {
      "inputs": [
        {
          "internalType": "address",
          "name": "owner",
          "type": "address"
        }
      ],
      "name": "nonces",
      "outputs": [
        {
          "internalType": "uint256",
          "name": "",
          "type": "uint256"
        }
      ],
      "stateMutability": "view",
      "type": "function"
    },
    {
      "inputs": [],
      "name": "owner",
      "outputs": [
        {
          "internalType": "address",
          "name": "",
          "type": "address"
        }
      ],
      "stateMutability": "view",
      "type": "function"
    },
    {
      "inputs": [],
      "name": "pause",
      "outputs": [],
      "stateMutability": "nonpayable",
      "type": "function"
    },
    {
      "inputs": [],
      "name": "paused",
      "outputs": [
        {
          "internalType": "bool",
          "name": "",
          "type": "bool"
        }
      ],
      "stateMutability": "view",
      "type": "function"
    },
    {
      "inputs": [
        {
          "internalType": "address",
          "name": "owner",
          "type": "address"
        },
        {
          "internalType": "address",
          "name": "spender",
          "type": "address"
        },
        {
          "internalType": "uint256",
          "name": "value",
          "type": "uint256"
        },
        {
          "internalType": "uint256",
          "name": "deadline",
          "type": "uint256"
        },
        {
          "internalType": "uint8",
          "name": "v",
          "type": "uint8"
        },
        {
          "internalType": "bytes32",
          "name": "r",
          "type": "bytes32"
        },
        {
          "internalType": "bytes32",
          "name": "s",
          "type": "bytes32"
        }
      ],
      "name": "permit",
      "outputs": [],
      "stateMutability": "nonpayable",
      "type": "function"
    },
    {
      "inputs": [],
      "name": "renounceOwnership",
      "outputs": [],
      "stateMutability": "nonpayable",
      "type": "function"
    },
    {
      "inputs": [],
      "name": "symbol",
      "outputs": [
        {
          "internalType": "string",
          "name": "",
          "type": "string"
        }
      ],
      "stateMutability": "view",
      "type": "function"
    },
    {
      "inputs": [],
      "name": "totalSupply",
      "outputs": [
        {
          "internalType": "uint256",
          "name": "",
          "type": "uint256"
        }
      ],
      "stateMutability": "view",
      "type": "function"
    },
    {
      "inputs": [
        {
          "internalType": "address",
          "name": "to",
          "type": "address"
        },
        {
          "internalType": "uint256",
          "name": "value",
          "type": "uint256"
        }
      ],
      "name": "transfer",
      "outputs": [
        {
          "internalType": "bool",
          "name": "",
          "type": "bool"
        }
      ],
      "stateMutability": "nonpayable",
      "type": "function"
    },
    {
      "inputs": [
        {
          "internalType": "address",
          "name": "from",
          "type": "address"
        },
        {
          "internalType": "address",
          "name": "to",
          "type": "address"
        },
        {
          "internalType": "uint256",
          "name": "value",
          "type": "uint256"
        }
      ],
      "name": "transferFrom",
      "outputs": [
        {
          "internalType": "bool",
          "name": "",
          "type": "bool"
        }
      ],
      "stateMutability": "nonpayable",
      "type": "function"
    },
    {
      "inputs": [
        {
          "internalType": "address",
          "name": "newOwner",
          "type": "address"
        }
      ],
      "name": "transferOwnership",
      "outputs": [],
      "stateMutability": "nonpayable",
      "type": "function"
    },
    {
      "inputs": [],
      "name": "unpause",
      "outputs": [],
      "stateMutability": "nonpayable",
      "type": "function"
    }
  ],
  "bytecode": "0x6101606040523480156200001257600080fd5b5060405162001b4338038062001b438339810160408190526200003591620004b9565b6040518060400160405280601181526020017026bab63a34a332b0ba3ab932aa37b5b2b760791b81525080604051806040016040528060018152602001603160f81b815250836040518060400160405280601181526020017026bab63a34a332b0ba3ab932aa37b5b2b760791b8152506040518060400160405280600381526020016213519560ea1b8152508160039081620000d2919062000597565b506004620000e1828262000597565b5050506001600160a01b0381166200011457604051631e4fbdf760e01b8152600060048201526024015b60405180910390fd5b6200011f8162000205565b506200012d8260066200025f565b610120526200013e8160076200025f565b61014052815160208084019190912060e052815190820120610100524660a052620001cc60e05161010051604080517f8b73c3c69bb8fe3d512ecc4cf759cc79239f7b179b0ffacaa9a75d522b39400f60208201529081019290925260608201524660808201523060a082015260009060c00160405160208183030381529060405280519060200120905090565b60805250503060c05250620001fd82620001e96012600a62000776565b620001f7906127106200078e565b62000298565b505062000834565b600580546001600160a01b03838116610100818102610100600160a81b031985161790945560405193909204169182907f8be0079c531659141344cd1fd0a4f28419497f9722a3daafe3b4186f6b6457e090600090a35050565b60006020835110156200027f576200027783620002d6565b905062000292565b816200028c848262000597565b5060ff90505b92915050565b6001600160a01b038216620002c45760405163ec442f0560e01b8152600060048201526024016200010b565b620002d26000838362000319565b5050565b600080829050601f8151111562000304578260405163305a27a960e01b81526004016200010b9190620007a8565b80516200031182620007f9565b179392505050565b620003268383836200032b565b505050565b6200033562000342565b6200032683838362000369565b60055460ff1615620003675760405163d93c066560e01b815260040160405180910390fd5b565b6001600160a01b038316620003985780600260008282546200038c91906200081e565b909155506200040c9050565b6001600160a01b03831660009081526020819052604090205481811015620003ed5760405163391434e360e21b81526001600160a01b038516600482015260248101829052604481018390526064016200010b565b6001600160a01b03841660009081526020819052604090209082900390555b6001600160a01b0382166200042a5760028054829003905562000449565b6001600160a01b03821660009081526020819052604090208054820190555b816001600160a01b0316836001600160a01b03167fddf252ad1be2c89b69c2b068fc378daa952ba7f163c4a11628f55a4df523b3ef836040516200048f91815260200190565b60405180910390a3505050565b80516001600160a01b0381168114620004b457600080fd5b919050565b60008060408385031215620004cd57600080fd5b620004d8836200049c565b9150620004e8602084016200049c565b90509250929050565b634e487b7160e01b600052604160045260246000fd5b600181811c908216806200051c57607f821691505b6020821081036200053d57634e487b7160e01b600052602260045260246000fd5b50919050565b601f82111562000326576000816000526020600020601f850160051c810160208610156200056e5750805b601f850160051c820191505b818110156200058f578281556001016200057a565b505050505050565b81516001600160401b03811115620005b357620005b3620004f1565b620005cb81620005c4845462000507565b8462000543565b602080601f831160018114620006035760008415620005ea5750858301515b600019600386901b1c1916600185901b1785556200058f565b600085815260208120601f198616915b82811015620006345788860151825594840194600190910190840162000613565b5085821015620006535787850151600019600388901b60f8161c191681555b5050505050600190811b01905550565b634e487b7160e01b600052601160045260246000fd5b600181815b80851115620006ba5781600019048211156200069e576200069e62000663565b80851615620006ac57918102915b93841c93908002906200067e565b509250929050565b600082620006d35750600162000292565b81620006e25750600062000292565b8160018114620006fb5760028114620007065762000726565b600191505062000292565b60ff8411156200071a576200071a62000663565b50506001821b62000292565b5060208310610133831016604e8410600b84101617156200074b575081810a62000292565b62000757838362000679565b80600019048211156200076e576200076e62000663565b029392505050565b60006200078760ff841683620006c2565b9392505050565b808202811582820484141762000292576200029262000663565b60006020808352835180602085015260005b81811015620007d857858101830151858201604001528201620007ba565b506000604082860101526040601f19601f8301168501019250505092915050565b805160208083015191908110156200053d5760001960209190910360031b1b16919050565b8082018082111562000292576200029262000663565b60805160a05160c05160e0516101005161012051610140516112b46200088f6000396000610a3901526000610a0c0152600061082c015260006108040152600061075f01526000610789015260006107b301526112b46000f3fe608060405234801561001057600080fd5b50600436106101425760003560e01c8063715018a6116100b85780638da5cb5b1161007c5780638da5cb5b1461027957806395d89b41146102a2578063a9059cbb146102aa578063d505accf146102bd578063dd62ed3e146102d0578063f2fde38b1461030957600080fd5b8063715018a61461022857806379cc6790146102305780637ecebe00146102435780638456cb591461025657806384b0196e1461025e57600080fd5b80633644e5151161010a5780633644e515146101bc5780633f4ba83a146101c457806340c10f19146101ce57806342966c68146101e15780635c975abb146101f457806370a08231146101ff57600080fd5b806306fdde0314610147578063095ea7b31461016557806318160ddd1461018857806323b872dd1461019a578063313ce567146101ad575b600080fd5b61014f61031c565b60405161015c9190610ffe565b60405180910390f35b610178610173366004611034565b6103ae565b604051901515815260200161015c565b6002545b60405190815260200161015c565b6101786101a836600461105e565b6103c8565b6040516012815260200161015c565b61018c6103ec565b6101cc6103fb565b005b6101cc6101dc366004611034565b61040d565b6101cc6101ef36600461109a565b610423565b60055460ff16610178565b61018c61020d3660046110b3565b6001600160a01b031660009081526020819052604090205490565b6101cc610430565b6101cc61023e366004611034565b610442565b61018c6102513660046110b3565b610457565b6101cc610475565b610266610485565b60405161015c97969594939291906110ce565b60055461010090046001600160a01b03166040516001600160a01b03909116815260200161015c565b61014f6104cb565b6101786102b8366004611034565b6104da565b6101cc6102cb366004611167565b6104e8565b61018c6102de3660046111da565b6001600160a01b03918216600090815260016020908152604080832093909416825291909152205490565b6101cc6103173660046110b3565b610627565b60606003805461032b9061120d565b80601f01602080910402602001604051908101604052809291908181526020018280546103579061120d565b80156103a45780601f10610379576101008083540402835291602001916103a4565b820191906000526020600020905b81548152906001019060200180831161038757829003601f168201915b5050505050905090565b6000336103bc818585610662565b60019150505b92915050565b6000336103d6858285610674565b6103e18585856106f3565b506001949350505050565b60006103f6610752565b905090565b61040361087d565b61040b6108b0565b565b61041561087d565b61041f8282610902565b5050565b61042d3382610938565b50565b61043861087d565b61040b600061096e565b61044d823383610674565b61041f8282610938565b6001600160a01b0381166000908152600860205260408120546103c2565b61047d61087d565b61040b6109c8565b600060608060008060006060610499610a05565b6104a1610a32565b60408051600080825260208201909252600f60f81b9b939a50919850469750309650945092509050565b60606004805461032b9061120d565b6000336103bc8185856106f3565b834211156105115760405163313c898160e11b8152600481018590526024015b60405180910390fd5b60007f6e71edae12b1b97f4d1f60370fef10105fa2faae0126114a169c64845d6126c988888861055e8c6001600160a01b0316600090815260086020526040902080546001810190915590565b6040805160208101969096526001600160a01b0394851690860152929091166060840152608083015260a082015260c0810186905260e00160405160208183030381529060405280519060200120905060006105b982610a5f565b905060006105c982878787610a8c565b9050896001600160a01b0316816001600160a01b031614610610576040516325c0072360e11b81526001600160a01b0380831660048301528b166024820152604401610508565b61061b8a8a8a610662565b50505050505050505050565b61062f61087d565b6001600160a01b03811661065957604051631e4fbdf760e01b815260006004820152602401610508565b61042d8161096e565b61066f8383836001610aba565b505050565b6001600160a01b038381166000908152600160209081526040808320938616835292905220546000198110156106ed57818110156106de57604051637dc7a0d960e11b81526001600160a01b03841660048201526024810182905260448101839052606401610508565b6106ed84848484036000610aba565b50505050565b6001600160a01b03831661071d57604051634b637e8f60e11b815260006004820152602401610508565b6001600160a01b0382166107475760405163ec442f0560e01b815260006004820152602401610508565b61066f838383610b8f565b6000306001600160a01b037f0000000000000000000000000000000000000000000000000000000000000000161480156107ab57507f000000000000000000000000000000000000000000000000000000000000000046145b156107d557507f000000000000000000000000000000000000000000000000000000000000000090565b6103f6604080517f8b73c3c69bb8fe3d512ecc4cf759cc79239f7b179b0ffacaa9a75d522b39400f60208201527f0000000000000000000000000000000000000000000000000000000000000000918101919091527f000000000000000000000000000000000000000000000000000000000000000060608201524660808201523060a082015260009060c00160405160208183030381529060405280519060200120905090565b6005546001600160a01b0361010090910416331461040b5760405163118cdaa760e01b8152336004820152602401610508565b6108b8610b9a565b6005805460ff191690557f5db9ee0a495bf2e6ff9c91a7834c1ba4fdd244a5e8aa4e537bd38aeae4b073aa335b6040516001600160a01b03909116815260200160405180910390a1565b6001600160a01b03821661092c5760405163ec442f0560e01b815260006004820152602401610508565b61041f60008383610b8f565b6001600160a01b03821661096257604051634b637e8f60e11b815260006004820152602401610508565b61041f82600083610b8f565b600580546001600160a01b03838116610100818102610100600160a81b031985161790945560405193909204169182907f8be0079c531659141344cd1fd0a4f28419497f9722a3daafe3b4186f6b6457e090600090a35050565b6109d0610bbd565b6005805460ff191660011790557f62e78cea01bee320cd4e420270b5ea74000d11b0c9f74754ebdbfc544b05a2586108e53390565b60606103f67f00000000000000000000000000000000000000000000000000000000000000006006610be1565b60606103f67f00000000000000000000000000000000000000000000000000000000000000006007610be1565b60006103c2610a6c610752565b8360405161190160f01b8152600281019290925260228201526042902090565b600080600080610a9e88888888610c8c565b925092509250610aae8282610d5b565b50909695505050505050565b6001600160a01b038416610ae45760405163e602df0560e01b815260006004820152602401610508565b6001600160a01b038316610b0e57604051634a1406b160e11b815260006004820152602401610508565b6001600160a01b03808516600090815260016020908152604080832093871683529290522082905580156106ed57826001600160a01b0316846001600160a01b03167f8c5be1e5ebec7d5bd14f71427d1e84f3dd0314c0f7b2291e5b200ac8c7c3b92584604051610b8191815260200190565b60405180910390a350505050565b61066f838383610e14565b60055460ff1661040b57604051638dfc202b60e01b815260040160405180910390fd5b60055460ff161561040b5760405163d93c066560e01b815260040160405180910390fd5b606060ff8314610bfb57610bf483610e27565b90506103c2565b818054610c079061120d565b80601f0160208091040260200160405190810160405280929190818152602001828054610c339061120d565b8015610c805780601f10610c5557610100808354040283529160200191610c80565b820191906000526020600020905b815481529060010190602001808311610c6357829003601f168201915b505050505090506103c2565b600080807f7fffffffffffffffffffffffffffffff5d576e7357a4501ddfe92f46681b20a0841115610cc75750600091506003905082610d51565b604080516000808252602082018084528a905260ff891692820192909252606081018790526080810186905260019060a0016020604051602081039080840390855afa158015610d1b573d6000803e3d6000fd5b5050604051601f1901519150506001600160a01b038116610d4757506000925060019150829050610d51565b9250600091508190505b9450945094915050565b6000826003811115610d6f57610d6f611247565b03610d78575050565b6001826003811115610d8c57610d8c611247565b03610daa5760405163f645eedf60e01b815260040160405180910390fd5b6002826003811115610dbe57610dbe611247565b03610ddf5760405163fce698f760e01b815260048101829052602401610508565b6003826003811115610df357610df3611247565b0361041f576040516335e2f38360e21b815260048101829052602401610508565b610e1c610bbd565b61066f838383610e66565b60606000610e3483610f90565b604080516020808252818301909252919250600091906020820181803683375050509182525060208101929092525090565b6001600160a01b038316610e91578060026000828254610e86919061125d565b90915550610f039050565b6001600160a01b03831660009081526020819052604090205481811015610ee45760405163391434e360e21b81526001600160a01b03851660048201526024810182905260448101839052606401610508565b6001600160a01b03841660009081526020819052604090209082900390555b6001600160a01b038216610f1f57600280548290039055610f3e565b6001600160a01b03821660009081526020819052604090208054820190555b816001600160a01b0316836001600160a01b03167fddf252ad1be2c89b69c2b068fc378daa952ba7f163c4a11628f55a4df523b3ef83604051610f8391815260200190565b60405180910390a3505050565b600060ff8216601f8111156103c257604051632cd44ac360e21b815260040160405180910390fd5b6000815180845260005b81811015610fde57602081850181015186830182015201610fc2565b506000602082860101526020601f19601f83011685010191505092915050565b6020815260006110116020830184610fb8565b9392505050565b80356001600160a01b038116811461102f57600080fd5b919050565b6000806040838503121561104757600080fd5b61105083611018565b946020939093013593505050565b60008060006060848603121561107357600080fd5b61107c84611018565b925061108a60208501611018565b9150604084013590509250925092565b6000602082840312156110ac57600080fd5b5035919050565b6000602082840312156110c557600080fd5b61101182611018565b60ff60f81b881681526000602060e060208401526110ef60e084018a610fb8565b8381036040850152611101818a610fb8565b606085018990526001600160a01b038816608086015260a0850187905284810360c08601528551808252602080880193509091019060005b8181101561115557835183529284019291840191600101611139565b50909c9b505050505050505050505050565b600080600080600080600060e0888a03121561118257600080fd5b61118b88611018565b965061119960208901611018565b95506040880135945060608801359350608088013560ff811681146111bd57600080fd5b9699959850939692959460a0840135945060c09093013592915050565b600080604083850312156111ed57600080fd5b6111f683611018565b915061120460208401611018565b90509250929050565b600181811c9082168061122157607f821691505b60208210810361124157634e487b7160e01b600052602260045260246000fd5b50919050565b634e487b7160e01b600052602160045260246000fd5b808201808211156103c257634e487b7160e01b600052601160045260246000fdfea26469706673582212200d7184bd07c98b77f3a4d1f49d1e0842eae8cfd48bfe2d0d2fefad2168be01e564736f6c63430008160033",
  "linkReferences": {},
  "deployedLinkReferences": {}
}